:100000000C942A000C9493100C94BF100C94EB10D9
:100010000C94880F0C945F0F0C94360F0C940D0FFA
:100020000C94E40E0C94BB0E0C94920E0C94690E7E
:100030000C9447000C9447000C9447000C94470024
:100040000C9447000C9447000C9447000C94470014
:100050000C94470011241FBECFE5D8E0DEBFCDBF12
:1000600011E0A0E6B0E0EEE0FEE302C005900D92E4
:10007000AC3FB107D9F712E0ACEFB1E001C01D927F
:10008000AD32B107E1F70E94761E0C94051F0C9467
:100090000000EF92FF920F93DF93CF93CDB7DEB7BF
:1000A00060970FB6F894DEBF0FBECDBFA82F002318
:1000B00009F461C07E010894E11CF11C88E0F7019D
:1000C00011928A95E9F729833A834B835C836D8388
:1000D0007E83AF83988780E2801BE82FFF27E7FDB0
:1000E000F09549815A816B817C81181684F01986BC
:1000F0001A861B861C86882799278E1B9F0B04C097
:10010000440F551F661F771F8A95D2F728C0202FEE
:10011000332727FD3095DB01CA01022E04C0880F6A
:10012000991FAA1FBB1F0A94D2F789879A87AB87AA
:10013000BC8704C07695679557954795EA95D2F7A1
:100140008D819E81AF81B88504C0880F991FAA1F39
:10015000BB1F2A95D2F7482B592B6A2B7B2B4D8737
:100160005E876F87788B29853A854B855C856D85A1
:100170007E85AF8598898A2F60960FB6F894DEBF8A
:100180000FBECDBFCF91DF910F91FF90EF900895FB
:10019000AEE5B0E0EEECF0E00C94CE1EA8E04E012F
:1001A0000894811C911CF4016A2E11926A94E9F75B
:1001B00029833A834B835C836D837E838F83988707
:1001C000CE010996FC011192AA95E9F7A986BA8693
:1001D000CB86DC86ED86FE860F87188B29843A84D1
:1001E0004B845C84ED84FE840F85188969807A8055
:1001F0008B809C806DA67EA68FA698AA6D807E803F
:100200008F809884E114F1040105110509F0B3C34E
:10021000621473048404950408F03DC100E02016C4
:1002200000E0300601E0400600E0500688F41FEFD1
:10023000211631044104510439F030F048E0E42E35
:10024000F12C012D112D18C0EE24FF24870114C0BC
:1002500020E0221620E0320620E0420621E052068D
:1002600030F038E1E32EF12C012D112D05C020E1F5
:10027000E22EF12C012D112DD201C1010E2C04C052
:10028000B695A795979587950A94D2F788569F4F6C
:10029000DC012C9180E290E0A0E0B0E08E199F0993
:1002A000A00BB10B7C018D01E21AF10801091109C3
:1002B000E114F10401051105A1F10E2C04C0220C7A
:1002C000331C441C551C0A94D2F7A40193010E2C34
:1002D00004C0220F331F441F551F0A94D2F780E237
:1002E00090E08E199F096DA47EA48FA498A804C0E5
:1002F00096948794779467948A95D2F7622A732AA2
:10030000842A952AADA4BEA4CFA4D8A804C0AA0C60
:10031000BB1CCC1CDD1CEA94D2F7ADA6BEA6CFA6B2
:10032000D8AA6201EE24FF24CDAADEAAEFAAF8AE75
:10033000920181012070307009AF1AAF2BAF3CAF32
:10034000C401B301A70196010E94AC1E7B018C0180
:10035000C401B3012DA93EA94FA958AD0E94AC1EFE
:10036000C901DA013C014D01C401B30129AD3AAD27
:100370004BAD5CAD0E948D1E9B01AC018701FF243B
:10038000EE24ADA4BEA4CFA4D8A8C601AA27BB273B
:1003900057016801A82AB92ACA2ADB2AA216B3067D
:1003A000C406D506E0F40894610871088108910834
:1003B000A20CB31CC41CD51CA214B304C404D504E1
:1003C00070F0A216B306C406D50648F40894610876
:1003D000710881089108A20CB31CC41CD51CA21A78
:1003E000B30AC40AD50AC601B5012DA93EA94FA971
:1003F00058AD0E94AC1E7B018C01C601B5012DA930
:100400003EA94FA958AD0E94AC1EC901DA015C019A
:100410006D01C601B50129AD3AAD4BAD5CAD0E9491
:100420008D1E9B01AC018701FF24EE248DA59EA5A6
:10043000AFA5B8A9A070B070E82AF92A0A2B1B2B27
:10044000E216F30604071507C0F40894A108B108E2
:10045000C108D108E20CF31C041D151DE214F304BD
:100460000405150550F0E216F3060407150728F4F5
:100470000894A108B108C108D108D3019927882799
:1004800086017501E82AF92A0A2B1B2BE9AAFAAA88
:100490000BAB1CABCFC4211431044104510471F4E3
:1004A00061E070E080E090E020E030E040E050E08B
:1004B0000E94AC1EC901DA011C012D0100E02016CA
:1004C00000E0300601E0400600E0500688F41FEF2F
:1004D000211631044104510431F028F048E050E085
:1004E00060E070E017C040E050E060E070E012C0F3
:1004F00020E0221620E0320620E0420621E05206EB
:1005000028F048E150E060E070E004C040E150E0D5
:1005100060E070E0D201C101042E04C0B695A79539
:10052000979587950A94D2F788569F4FDC012C91B6
:10053000E0E2EE2EF12C012D112DD801C701841B14
:10054000950BA60BB70B821B9109A109B109009766
:10055000A105B10561F464015301A218B308C408F0
:10056000D50831E0632E712C812C912C1EC16F9621
:100570008FAF6F97082E04C0220C331C441C551CEF
:100580000A94D2F7EE2DE81B640153010E2E04C02D
:10059000D694C794B794A7940A94D2F7A401930170
:1005A0006F960FAC6F9704C0220F331F441F551F67
:1005B0000A94D2F76DA47EA48FA498A80E2E04C02E
:1005C00096948794779467940A94D2F78401730180
:1005D000E22AF32A042B152BE9A6FAA60BA71CA7DF
:1005E0003201882499249201810120703070219673
:1005F0000CAF1DAF2EAF3FAF2197C601B501A401CF
:1006000093010E94AC1E7B018C01C601B501A401BF
:1006100093010E94AC1EC901DA0125968CAF9DAFF3
:10062000AEAFBFAF2597BC01CD0121962CAD3DAD3E
:100630004EAD5FAD21970E948D1E9B01AC018701DD
:10064000FF24EE24A9A4BAA4CBA4DCA4C601AA2743
:10065000BB275C016D01AE28BF28C02AD12AA21693
:10066000B306C406D50660F525966CAD7DAD8EAD9E
:100670009FAD2597615070408040904025966CAFAB
:100680007DAF8EAF9FAF2597A20CB31CC41CD51CA9
:10069000A214B304C404D50498F0A216B306C40689
:1006A000D50670F4615070408040904025966CAF44
:1006B0007DAF8EAF9FAF2597A20CB31CC41CD51C79
:1006C000A21AB30AC40AD50AC601B501A40193014E
:1006D0000E94AC1E7B018C01C601B501A4019301EF
:1006E0000E94AC1EC901DA013C014D01C401B301F5
:1006F00021962CAD3DAD4EAD5FAD21970E948D1E74
:100700009B01AC018701FF24EE2489A59AA5ABA526
:10071000BCA5A070B07057016801A82AB92ACA2ADE
:10072000DB2AA216B306C406D506E0F408946108D5
:10073000710881089108A20CB31CC41CD51CA2141A
:10074000B304C404D50470F0A216B306C406D506DB
:1007500048F408946108710881089108A20CB31C40
:10076000C41CD51C8DA59EA5AFA5B8A96F960FACCE
:100770006F9704C0880F991FAA1FBB1F0A94D2F756
:100780008DA79EA7AFA7B8ABA21AB30AC40AD50A11
:100790002596ECACFDAC0EAD1FAD2597D701992782
:1007A0008827682A792A8A2A9B2A820122273327C6
:1007B00029960CAF1DAF2EAF3FAF2997A201910133
:1007C000407050702D962CAF3DAF4EAF5FAF2D9760
:1007D000C601B50129962CAD3DAD4EAD5FAD299753
:1007E0000E94AC1E7B018C01C601B50129962CAD7F
:1007F0003DAD4EAD5FAD29970E94AC1EC901DA0137
:1008000061968CAF9DAFAEAFBFAF6197BC01CD011C
:100810002D962CAD3DAD4EAD5FAD2D970E948D1E3A
:100820009B01AC018701FF24EE24ADA4BEA4CFA49C
:10083000D8A8C601AA27BB2757016801A82AB92A48
:10084000CA2ADB2AA216B306C406D50660F561964D
:100850006CAD7DAD8EAD9FAD6197615070408040B5
:10086000904061966CAF7DAF8EAF9FAF6197A20C49
:10087000B31CC41CD51CA214B304C404D50498F042
:10088000A216B306C406D50670F4615070408040CD
:10089000904061966CAF7DAF8EAF9FAF6197A20C19
:1008A000B31CC41CD51CA21AB30AC40AD50AC601BB
:1008B000B50129962CAD3DAD4EAD5FAD29970E9497
:1008C000AC1E7B018C01C601B50129962CAD3DAD56
:1008D0004EAD5FAD29970E94AC1EC901DA015C01E3
:1008E0006D01C601B5012D962CAD3DAD4EAD5FAD90
:1008F0002D970E948D1E9B01AC018701FF24EE24E1
:100900008DA59EA5AFA5B8A9A070B070E82AF92A58
:100910000A2B1B2BE216F30604071507C0F40894F4
:10092000A108B108C108D108E20CF31C041D151D73
:10093000E214F3040405150550F0E216F30604076B
:10094000150728F40894A108B108C108D1086196D8
:10095000ECACFDAC0EAD1FAD6197D7019927882790
:1009600096018501082B192B2A2B3B2B09AB1AABBF
:100970002BAB3CAB62C26E147F048006910608F478
:1009800051C220E0E21620E0F20621E0020720E05A
:10099000120788F43FEFE316F1040105110531F069
:1009A00028F048E050E060E070E017C040E050E020
:1009B00060E070E012C040E0E41640E0F40640E081
:1009C000040741E0140728F048E150E060E070E0DF
:1009D00004C040E150E060E070E0D801C701042E9F
:1009E00004C0B695A795979587950A94D2F788562F
:1009F0009F4FDC012C9130E2A32EB12CC12CD12CC5
:100A0000D601C501841B950BA60BB70B821B910960
:100A1000A109B1090097A105B10589F4E614F7040D
:100A20000805190508F4F2C16DA47EA48FA498A846
:100A3000621473048404950408F0E8C1F3C16E964F
:100A40008FAF6E97082E04C0EE0CFF1C001F111F05
:100A50000A94D2F76A2D681BD201C101062E04C088
:100A6000B695A795979587950A94D2F75C016D0185
:100A7000AE28BF28C02AD12AADA2BEA2CFA2D8A636
:100A8000720161016E960FAC6E9704C0CC0CDD1C38
:100A9000EE1CFF1C0A94D2F7C9A2DAA2EBA2FCA2B8
:100AA00064015301062E04C0D694C794B794A7944A
:100AB0000A94D2F7D401C3016E960FAC6E9704C0AE
:100AC000880F991FAA1FBB1F0A94D2F7EDA4FEA49A
:100AD0000FA518A904C016950795F794E7946A9591
:100AE000D2F737014801682A792A8A2A9B2A6D8E13
:100AF0007E8E8F8E98A2EDA0FEA00FA118A53801C2
:100B000088249924980187012070307065960CAF75
:100B10001DAF2EAF3FAF6597C601B501A40193018C
:100B20000E94AC1E7B018C01C601B501A40193019A
:100B30000E94AC1EC901DA011C012D01C201B101E4
:100B400065962CAD3DAD4EAD5FAD65970E948D1E97
:100B50009B01AC018701FF24EE24AD8CBE8CCF8CB1
:100B6000D8A0C601AA27BB2757016801A82AB92A1D
:100B7000CA2ADB2AA216B306C406D50600F50894D5
:100B80002108310841085108EDA0FEA00FA118A5C9
:100B9000AE0CBF1CC01ED11EAE14BF04C006D106D1
:100BA00070F0A216B306C406D50648F408942108CE
:100BB000310841085108AE0CBF1CC01ED11EA21A3C
:100BC000B30AC40AD50AC601B501A40193010E9463
:100BD000AC1E7B018C01C601B501A40193010E94EA
:100BE000AC1EC901DA013C014D01C401B301659697
:100BF0002CAD3DAD4EAD5FAD65970E948D1E9B0146
:100C0000AC018701FF24EE248D8D9E8DAF8DB8A1A0
:100C1000A070B07057016801A82AB92ACA2ADB2A35
:100C2000A216B306C406D50600F50894610871083B
:100C3000810891086DA17EA18FA198A5A60EB71E6F
:100C4000C81ED91EA616B706C806D90670F0A21689
:100C5000B306C406D50648F40894610871088108F3
:100C60009108A60EB71EC81ED91ED601C501821B4B
:100C7000930BA40BB50B898F9A8FAB8FBC8FD101CF
:100C80009927882764015301A82AB92ACA2ADB2A8E
:100C9000A9AABAAACBAADCAA860175012FEF3FEF59
:100CA00040E050E0E222F32204231523A601662748
:100CB00077276D964CAF5DAF6EAF7FAF6D97A9A0F4
:100CC000BAA0CBA0DCA06FEF7FEF80E090E0A6227F
:100CD000B722C822D92289A19AA1ABA1BCA11D012A
:100CE00044245524C801B701A60195010E948D1E18
:100CF00069966CAF7DAF8EAF9FAF6997C801B701A2
:100D0000A20191010E948D1E3B014C016D966CADBC
:100D10007DAD8EAD9FAD6D97A60195010E948D1E94
:100D20007B018C016D966CAD7DAD8EAD9FAD6D97E9
:100D3000A20191010E948D1E5B016C01A801970127
:100D4000260D371D481D591D69966CAC7DAC8EACC7
:100D50009FAC6997C401AA27BB27280F391F4A1FD8
:100D60005B1F2E153F054007510748F4E12CF12C7D
:100D700061E0062F112DAE0CBF1CC01ED11ECA0192
:100D8000AA27BB27BC01CD016A0D7B1D8C1D9D1DB3
:100D9000698C7A8C8B8C9C8C6616770688069906F3
:100DA00040F1661577058805990509F043C0D9011A
:100DB0009927882769962CAD3DAD4EAD5FAD6997FB
:100DC00040705070820F931FA41FB51F2DA53EA524
:100DD0004FA558A96E960FAC6E9704C0220F331F13
:100DE000441F551F0A94D2F7281739074A075B0793
:100DF00008F509A91AA92BA93CA9015010402040C7
:100E0000304009AB1AAB2BAB3CAB14C06624772443
:100E1000430121E030E040E050E029AB3AAB4BAB7E
:100E20005CAB0BC066247724430119AA1AAA1BAA3B
:100E30001CAA03C0662477244301FE01719688E052
:100E4000DF011D928A95E9F7A9A8BAA8CBA8DCA86A
:100E5000A98ABA8ACB8ADC8A6D8A7E8A8F8A988E22
:100E600029A93A894B895C89662D7E898F89988D5D
:100E7000C25ADF4FE2E10C94EA1EABE5B0E0E3E4D6
:100E8000F7E00C94CE1EA8E04E010894811C911C42
:100E9000F4016A2E11926A94E9F729833A834B830D
:100EA0005C836D837E838F839887CE010996FC01D6
:100EB0001192AA95E9F7A986BA86CB86DC86ED86DB
:100EC000FE860F87188B29843A844B845C84AD841A
:100ED000BE84CF84D88829813A814B815C81699610
:100EE0002FAF69976A963FAF6A976B964FAF6B9734
:100EF0006C965FAF6C976C966CAC7DAC8EAC9FAC17
:100F00006C9769AA7AAA8BAA9CAA6D817E818F812F
:100F100098853B014C016DAA7EAA8FAA98AEA114B8
:100F2000B104C104D10409F004C36214730484043D
:100F3000950408F000C100E0201600E0300601E052
:100F4000400600E0500688F41FEF211631044104EA
:100F5000510439F030F088E0E82EF12C012D112DEC
:100F600018C0EE24FF24870114C040E0241640E09E
:100F7000340640E0440641E0540630F0B8E1EB2E80
:100F8000F12C012D112D05C0A0E1EA2EF12C012D2F
:100F9000112DD201C1010E2C04C0B695A7959795CD
:100FA00087950A94D2F788569F4FDC012C9180E2F6
:100FB00090E0A0E0B0E08E199F09A00BB10B5C019E
:100FC0006D01A21AB108C108D108A9AEBAAECBAE64
:100FD000DCAEA114B104C104D10409F43FC069AD71
:100FE000062E04C0220C331C441C551C0A94D2F754
:100FF000A4019301062E04C0220F331F441F551F66
:101000000A94D2F780E290E08A199B096C96CCACE6
:10101000DDACEEACFFAC6C9704C0F694E794D794CB
:10102000C7948A95D2F787017601E22AF32A042B26
:10103000152BEDAAFEAA0FAB18AF6C968CAD9DAD2B
:10104000AEADBFAD6C9704C0880F991FAA1FBB1F20
:101050006A95D2F789AB9AABABABBCAB32018824B3
:101060009924B201A1016070707021964CAF5DAF00
:101070006EAF7FAF21976DA97EA98FA998ADA4010E
:1010800093010E94AC1E7B018C016DA97EA98FA9E2
:1010900098ADA40193010E94AC1ECA01B90121962A
:1010A0002CAD3DAD4EAD5FAD21970E948D1E9B01D5
:1010B000AC018701FF24EE24A9A8BAA8CBA8DCA81C
:1010C000C601AA27BB2757016801A82AB92ACA2A3C
:1010D000DB2AA216B306C406D50690F4A20CB31CF4
:1010E000C41CD51CA214B304C404D50448F0A21631
:1010F000B306C406D50620F4A20CB31CC41CD51C30
:10110000A21AB30AC40AD50AC601B501A401930103
:101110000E94AC1E7B018C01C601B501A4019301A4
:101120000E94AC1ECA01B90121962CAD3DAD4EAD59
:101130005FAD2197BAC1211431044104510471F407
:1011400061E070E080E090E020E030E040E050E0DE
:101150000E94AC1EC901DA011C012D0100E020161D
:1011600000E0300601E0400600E0500688F41FEF82
:10117000211631044104510439F030F068E0E62EC4
:10118000F12C012D112D18C0EE24FF24870114C06D
:1011900040E0241640E0340640E0440641E05406B6
:1011A00030F058E1E52EF12C012D112D05C040E164
:1011B000E42EF12C012D112DD201C1010E2C04C001
:1011C000B695A795979587950A94D2F788569F4F1D
:1011D000DC012C9130E2A32EB12CC12CD12CD601F4
:1011E000C5018E199F09A00BB10B7C018D01E21A7C
:1011F000F10801091109E9AEFAAE0BAF1CAFE11419
:10120000F1040105110539F464015301A218B30872
:10121000C408D508E2C0F9AC6896FFAE68970F2CF9
:1012200004C0220C331C441C551C0A94D2F78A2D8E
:101230008F1964015301082E04C0D694C794B79443
:10124000A7940A94D2F7A401930104C0220F331F7C
:10125000441F551FFA94D2F76C966CAC7DAC8EACE3
:101260009FAC6C9704C096948794779467948A9502
:10127000D2F784017301E22AF32A042B152BEDA681
:10128000FEA60FA718AB320188249924B201A10150
:101290006070707025964CAF5DAF6EAF7FAF2597D5
:1012A000C601B501A40193010E94AC1E7B018C0113
:1012B000C601B501A40193010E94AC1ECA01B90187
:1012C00025962CAD3DAD4EAD5FAD25970E948D1E90
:1012D0009B01AC018701FF24EE24ADA4BEA4CFA4E2
:1012E000D8A8C601AA27BB275C016D01AE28BF287C
:1012F000C02AD12AA216B306C406D50690F4A20CC1
:10130000B31CC41CD51CA214B304C404D50448F0F7
:10131000A216B306C406D50620F4A20CB31CC41C46
:10132000D51CA21AB30AC40AD50AC601B501A40184
:1013300093010E94AC1E7B018C01C601B501A40182
:1013400093010E94AC1ECA01B90125962CAD3DAD9A
:101350004EAD5FAD25970E948D1E9B01AC018701AC
:10136000FF24EE248DA59EA5AFA5B8A9A070B070EE
:1013700057016801A82AB92ACA2ADB2AA216B3068D
:10138000C406D50690F4A20CB31CC41CD51CA21430
:10139000B304C404D50448F0A216B306C406D506A7
:1013A00020F4A20CB31CC41CD51C6C96ECACFDAC98
:1013B0000EAD1FAD6C9768960FAC689704C0EE0C2D
:1013C000FF1C001F111F0A94D2F7E9AAFAAA0BAB5F
:1013D0001CABA21AB30AC40AD50A32018824992484
:1013E000B201A1016070707029964CAF5DAF6EAF15
:1013F0007FAF2997C601B501A40193010E94AC1EDD
:101400007B018C01C601B501A40193010E94AC1EB1
:10141000CA01B90129962CAD3DAD4EAD5FAD2997FE
:101420000E948D1E9B01AC018701FF24EE24A9A818
:10143000BAA8CBA8DCA8C601AA27BB275701680118
:10144000A82AB92ACA2ADB2AA216B306C406D506D8
:1014500090F4A20CB31CC41CD51CA214B304C40485
:10146000D50448F0A216B306C406D50620F4A20C93
:10147000B31CC41CD51CA21AB30AC40AD50AC601DF
:10148000B501A40193010E94AC1E7B018C01C60131
:10149000B501A40193010E94AC1ECA01B9012996AD
:1014A0002CAD3DAD4EAD5FAD29970E948D1E9B01C9
:1014B000AC018701FF24EE2489A99AA9ABA9BCA994
:1014C000A070B070E82AF92A0A2B1B2BE216F3064B
:1014D0000407150790F4E20CF31C041D151DE2141B
:1014E000F3040405150548F0E216F3060407150792
:1014F00020F4E20CF31C041D151DE21AF30A040B80
:10150000150BD801C70109AC04C0B695A7959795EE
:1015100087950A94D2F7898B9A8BAB8BBC8B1D8AEB
:101520001E8A1F8A188E282F3A894B895C896D89FB
:101530000CC36A147B048C049D0408F409C300E006
:10154000A01600E0B00601E0C00600E0D00688F476
:101550001FEFA116B104C104D10439F030F028E026
:10156000E22EF12C012D112D18C0EE24FF2487014D
:1015700014C040E0A41640E0B40640E0C40641E0D8
:10158000D40630F098E1E92EF12C012D112D05C083
:1015900080E1E82EF12C012D112DD601C5010E2C74
:1015A00004C0B695A795979587950A94D2F7885663
:1015B0009F4FDC012C9180E290E0A0E0B0E08E191A
:1015C0009F09A00BB10B821B9109A109B1090097DA
:1015D000A105B10509F04FC0A614B704C804D90489
:1015E00058F06C96ECACFDAC0EAD1FAD6C97E214F0
:1015F000F3040405150568F16C96ECACFDAC0EAD7A
:101600001FAD6C97E218F30804091509A4019301B2
:101610002A193B094C095D09AA24BB2465016C9673
:101620006CAD7DAD8EAD9FAD6C976E157F0580075F
:10163000910728F4B1E0AB2EB12CC12CD12CDA01EA
:10164000C9018A199B09AC09BD098DAB9EABAFAB33
:10165000B8AFE98AFA8A0B8B1C8B6DA87EA88FA87D
:1016600098AC6D8A7E8A8F8A988E2E2D3A894B8906
:101670005C896DA96AC267968FAF6797A6019501CD
:10168000082E04C0220F331F441F551F0A94D2F79F
:10169000A0E2AA2EA81A6696AFAE6697D201C10143
:1016A00004C0B695A79597958795AA94D2F76C0133
:1016B0007D01C22AD32AE42AF52AC9A6DAA6EBA616
:1016C000FCA68201710167960FAC679704C0EE0C0F
:1016D000FF1C001F111F0A94D2F7EDA2FEA20FA358
:1016E00018A76401530166960FAC669704C0D694A0
:1016F000C794B794A7940A94D2F7A401930167966C
:101700000FAC679704C0220F331F441F551F0A9464
:10171000D2F76C968CAD9DADAEADBFAD6C976696B5
:101720000FAC669704C0B695A795979587950A94D0
:10173000D2F73C014D01622A732A842A952A69A2B4
:101740007AA28BA29CA26C96ECACFDAC0EAD1FAD48
:101750006C9767960FAC679704C0EE0CFF1C001FD8
:10176000111F0A94D2F7ED8EFE8E0F8F18A349A594
:101770005AA56BA57CA53B018824992460707070E4
:101780002D964CAF5DAF6EAF7FAF2D97C601B50103
:10179000A40193010E94AC1E7B018C01C601B5011E
:1017A000A40193010E94AC1EC901DA011C012D01A4
:1017B000C201B1012D962CAD3DAD4EAD5FAD2D9763
:1017C0000E948D1E9B01AC018701FF24EE24A9A07D
:1017D000BAA0CBA0DCA0C601AA27BB27570168018D
:1017E000A82AB92ACA2ADB2AA216B306C406D50635
:1017F00000F508942108310841085108E9A4FAA429
:101800000BA51CA5AE0CBF1CC01ED11EAE14BF0480
:10181000C006D10670F0A216B306C406D50648F479
:1018200008942108310841085108AE0CBF1CC01EA5
:10183000D11EA21AB30AC40AD50AC601B501A40171
:1018400093010E94AC1E7B018C01C601B501A4016D
:1018500093010E94AC1EC901DA013C014D01C40193
:10186000B3012D962CAD3DAD4EAD5FAD2D970E94D1
:101870008D1E9B01AC018701FF24EE2489A19AA152
:10188000ABA1BCA1A070B07057016801A82AB92A09
:10189000CA2ADB2AA216B306C406D50600F50894A8
:1018A000610871088108910869A57AA58BA59CA596
:1018B000A60EB71EC81ED91EA616B706C806D9069C
:1018C00070F0A216B306C406D50648F40894610861
:1018D000710881089108A60EB71EC81ED91ED60130
:1018E000C501821B930BA40BB50B898F9A8FAB8F0D
:1018F000BC8FD1019927882784017301E82AF92A2E
:101900000A2B1B2B4FEFA42E4FEFB42EC12CD12C42
:10191000AE20BF20C022D1227801002711276DA060
:101920007EA08FA098A44FEF5FEF60E070E064228C
:101930007522862297228DA19EA1AFA1B8A5BD01D7
:101940008827992765966CAF7DAF8EAF9FAF65975F
:10195000C601B501A40193010E948D1E61966CAF72
:101960007DAF8EAF9FAF6197C601B50165962CAD77
:101970003DAD4EAD5FAD65970E948D1E1B012C01E4
:10198000C801B701A40193010E948D1E5B016C0187
:10199000C801B70165962CAD3DAD4EAD5FAD659705
:1019A0000E948D1E7B018C01A6019501220D331D25
:1019B000441D551D61966CAC7DAC8EAC9FAC61979F
:1019C000C401AA27BB27280F391F4A1F5B1F2A15EE
:1019D0003B054C055D0548F4812C912CE1E0AE2ED1
:1019E000B12CE80CF91C0A1D1B1DCA01AA27BB2734
:1019F00057016801A80EB91ECA1EDB1EA9013327B4
:101A0000222761968CAD9DADAEADBFAD6197A07044
:101A1000B070280F391F4A1F5B1FE98CFA8C0B8DA1
:101A20001C8DEA14FB040C051D0570F0AE14BF04F8
:101A3000C006D10669F56D8D7E8D8F8D98A16217D8
:101A400073078407950720F5DA01C9016DA07EA010
:101A50008FA098A486199709A809B909E9A4FAA43E
:101A60000BA51CA5AE18BF08C00AD10AEE24FF249E
:101A70008701281739074A075B0728F421E0E22E7F
:101A8000F12C012D112DAE18BF08C00AD10A02C0D9
:101A9000DA01C9016D8C7E8C8F8C98A0681A790A46
:101AA0008A0A9B0A498D5A8D6B8D7C8D4A195B0978
:101AB0006C097D095A016B012224332421016D8DAB
:101AC0007E8D8F8D98A1661577058805990528F478
:101AD00081E0282E312C412C512C86017501E21811
:101AE000F30804091509A801970166960FAC6697DB
:101AF00004C0220F331F441F551F0A94D2F7D4018C
:101B0000C30167960FAC679704C0B695A7959795E4
:101B100087950A94D2F7282B392B4A2B5B2B298BDC
:101B20003A8B4B8B5C8B67960FAC679704C016950E
:101B30000795F794E7940A94D2F7ED8AFE8A0F8B03
:101B4000188F3A894B895C896E2D7E898F89988D93
:101B5000C55ADF4FE2E10C94EA1E83B78F7B83BF47
:101B600083B7886083BF8DE78CBF89B7826089BFE8
:101B700083B7887F83BF83B7836083BF08958FB5A2
:101B80008E7F8FBD8FB582608FBD8EB588608EBD14
:101B90008EB580618EBD84EF91E09BBD8ABD19BC7E
:101BA00018BC80E29EE497BD86BD8EB580648EBD74
:101BB0008FB58F7B8FBD8FB580688FBD8FB58F7EC2
:101BC0008FBD8FB580628FBD89B78B7F89BF89B785
:101BD0008F7E89BF89B7877F89BF89B78F7D89BF8E
:101BE0008EB5887F8EBD8EB582608EBD089585B519
:101BF0008F7B85BD85B5886085BD8DE783BD89B741
:101C0000806889BF85B5887F85BD85B5836085BDC2
:101C1000089582BF08959DBD8CBD089584BD08952B
:101C20008CBF08959BBD8ABD089599BD88BD089558
:101C300083BD089597BD86BD089582B708952CB5DC
:101C40003DB5C901089584B508959BBD8ABD089529
:101C50008EB580648EBD89B7806289BF089581305A
:101C600049F0882329F48EB58F7B8EBD80E00895DE
:101C700081E008958EB580648EBD80E0089589B7B7
:101C8000806289BF089589B78F7D89BF089526B581
:101C900037B5C901089581B5887F81BD81B586605A
:101CA00081BD089581B5886081BD089581B5886141
:101CB00081BD11BC0895009751F0E62FF0E0EE0FC2
:101CC000FF1FE450FE4F9183808380E0089582E0FF
:101CD00008951F920F920FB60F9211242F933F93E6
:101CE0004F935F936F937F938F939F93AF93BF9324
:101CF000EF93FF93E0911202F0911302309709F0F5
:101D00000995FF91EF91BF91AF919F918F917F9135
:101D10006F915F914F913F912F910F900FBE0F9058
:101D20001F9018951F920F920FB60F9211242F93A8
:101D30003F934F935F936F937F938F939F93AF9353
:101D4000BF93EF93FF93E0911002F091110230974F
:101D500009F00995FF91EF91BF91AF919F918F91FC
:101D60007F916F915F914F913F912F910F900FBE97
:101D70000F901F9018951F920F920FB60F9211247B
:101D80002F933F934F935F936F937F938F939F9383
:101D9000AF93BF93EF93FF93E0910E02F0910F0288
:101DA000309709F00995FF91EF91BF91AF919F9105
:101DB0008F917F916F915F914F913F912F910F90F4
:101DC0000FBE0F901F9018951F920F920FB60F9293
:101DD00011242F933F934F935F936F937F938F9330
:101DE0009F93AF93BF93EF93FF93E0910C02F09119
:101DF0000D02309709F00995FF91EF91BF91AF91D6
:101E00009F918F917F916F915F914F913F912F9112
:101E10000F900FBE0F901F9018951F920F920FB644
:101E20000F9211242F933F934F935F936F937F9360
:101E30008F939F93AF93BF93EF93FF93E0910A0229
:101E4000F0910B02309709F00995FF91EF91BF9146
:101E5000AF919F918F917F916F915F914F913F9142
:101E60002F910F900FBE0F901F9018951F920F92F9
:101E70000FB60F9211242F933F934F935F936F935D
:101E80007F938F939F93AF93BF93EF93FF93E091D3
:101E90000802F0910902309709F00995FF91EF913E
:101EA000BF91AF919F918F917F916F915F914F9172
:101EB0003F912F910F900FBE0F901F9018951F927A
:101EC0000F920FB60F9211242F933F934F935F936E
:101ED0006F937F938F939F93AF93BF93EF93FF93F2
:101EE000E0910602F0910702309709F00995FF9101
:101EF000EF91BF91AF919F918F917F916F915F9182
:101F00004F913F912F910F900FBE0F901F901895FA
:101F10001F920F920FB60F9211242F933F934F935E
:101F20005F936F937F938F939F93AF93BF93EF9341
:101F3000FF93E0910402F0910502309709F00995B2
:101F4000FF91EF91BF91AF919F918F917F916F9191
:101F50005F914F913F912F910F900FBE0F901F9067
:101F6000189588E38ABB87E087BB14BA11BA1BBAFD
:101F700018BA15BA84E082BB08958FB780688FBF06
:101F800008958FB78F778FBF089585B78B7F85BFF3
:101F900085B7886085BF0895982F862F8650823038
:101FA00068F0992321F484B78F7B84BF0895913022
:101FB00009F0089584B7806484BF0895262F220F06
:101FC0002C509130C9F19130C8F465B730E041E050
:101FD00050E0CA01022E02C0880F991F0A94E2F74E
:101FE0008095862385BF85B72F5F3F4F02C0440F82
:101FF000551F2A95E2F7842B85BF0895923051F141
:102000009330B9F665B7422F50E081E090E09C0133
:10201000042E02C0220F331F0A94E2F7622B65BF21
:1020200025B74F5F5F4F02C0880F991F4A95E2F7AF
:102030008095822385BF089565B730E041E050E088
:10204000CA01022E02C0880F991F0A94E2F7682B7A
:1020500065BFC9CF65B7422F50E021E030E0C9012C
:10206000042E02C0880F991F0A94E2F780958623F8
:1020700085BF85B74F5F5F4F02C0220F331F4A9560
:10208000E2F72095282325BF0895382F8550833007
:1020900068F42BB781E090E002C0880F991F3A9551
:1020A000E2F7809582238BBF80E0089581E0089558
:1020B000382F8550833060F42BB781E090E002C068
:1020C000880F991F3A95E2F7282B2BBF80E00895DF
:1020D00081E008959AB721E030E002C0220F331F5B
:1020E0008A95E2F7922B9ABF08954AB721E030E033
:1020F000082E02C0220F331F0A94E2F750E0242377
:10210000352302C0359527958A95E2F7822F0895E9
:10211000009741F0E62FF0E0EE0FFF1FE45EFD4F69
:102120009183808308951F920F920FB60F9211240E
:102130002F933F934F935F936F937F938F939F93CF
:10214000AF93BF93EF93FF93E0911C02F0911D02B8
:10215000309721F009958AB780648ABFFF91EF918B
:10216000BF91AF919F918F917F916F915F914F91AF
:102170003F912F910F900FBE0F901F9018951F92B7
:102180000F920FB60F9211242F933F934F935F93AB
:102190006F937F938F939F93AF93BF93EF93FF932F
:1021A000E0911E02F0911F02309721F009958AB745
:1021B00080688ABFFF91EF91BF91AF919F918F91FE
:1021C0007F916F915F914F913F912F910F900FBE33
:1021D0000F901F9018951F920F920FB60F92112417
:1021E0002F933F934F935F936F937F938F939F931F
:1021F000AF93BF93EF93FF93E0912002F091210200
:10220000309721F009958AB780628ABFFF91EF91DC
:10221000BF91AF919F918F917F916F915F914F91FE
:102220003F912F910F900FBE0F901F901895843003
:1022300090F4683080F4413081F0442361F48130BF
:10224000D9F1813000F1823009F450C0833009F4B3
:1022500040C081E0089580E00895813009F453C0C2
:102260008130F0F0823009F45AC0833091F721B305
:1022700081E090E002C0880F991F6A95E2F7282B51
:1022800021BB81E008952AB381E090E002C0880F6D
:10229000991F6A95E2F7809582238ABB81E00895B1
:1022A0002AB381E090E002C0880F991F6A95E2F797
:1022B000282B2ABB81E0089527B381E090E002C07B
:1022C000880F991F6A95E2F78095822387BB81E08A
:1022D000089521B381E090E002C0880F991F6A95AC
:1022E000E2F78095822381BB81E0089524B381E0E9
:1022F00090E002C0880F991F6A95E2F780958223CB
:1023000084BB81E0089527B381E090E002C0880F8C
:10231000991F6A95E2F7282B27BB81E0089524B323
:1023200081E090E002C0880F991F6A95E2F7282BA0
:1023300024BB81E00895843090F4683080F441300B
:1023400081F0442361F48130D9F1813000F1823091
:1023500009F450C0833009F440C081E0089580E062
:102360000895813009F453C08130F0F0823009F4CF
:102370005AC0833091F722B381E090E002C0880F09
:10238000991F6A95E2F7282B22BB81E008952BB3B1
:1023900081E090E002C0880F991F6A95E2F780956E
:1023A00082238BBB81E008952BB381E090E002C0D3
:1023B000880F991F6A95E2F7282B2BBB81E00895BF
:1023C00028B381E090E002C0880F991F6A95E2F778
:1023D0008095822388BB81E0089522B381E090E05C
:1023E00002C0880F991F6A95E2F78095822382BB0D
:1023F00081E0089525B381E090E002C0880F991F25
:102400006A95E2F78095822385BB81E0089528B321
:1024100081E090E002C0880F991F6A95E2F7282BAF
:1024200028BB81E0089525B381E090E002C0880FC9
:10243000991F6A95E2F7282B25BB81E00895FA01E0
:10244000843060F4683050F48130F1F0813040F035
:10245000823081F1833061F181E0089580E0089558
:1024600029B381E090E0062E02C0880F991F0A94DC
:10247000E2F730E08223932302C0959587956A9511
:10248000E2F7808381E0089526B381E090E0062E94
:1024900002C0880F991F0A94E2F730E08223932349
:1024A00002C0959587956A95E2F7808381E008954B
:1024B00020B3EBCF23B3E9CF683050F48130B1F0D3
:1024C000813040F0823051F18330E1F081E00895B5
:1024D00080E008952BB381E090E002C0880F991F3F
:1024E0006A95E2F728272BBB81E0089528B381E0A5
:1024F00090E002C0880F991F6A95E2F7282728BB51
:1025000081E0089522B381E090E002C0880F991F16
:102510006A95E2F7282722BB81E0089525B381E080
:1025200090E002C0880F991F6A95E2F7282725BB23
:1025300081E00895843060F4683050F48130D1F047
:10254000813040F08230B1F1833021F181E0089593
:1025500080E00895413009F43CC02BB381E090E065
:1025600002C0880F991F6A95E2F7809582238BBB82
:1025700081E00895413009F453C028B381E090E030
:1025800002C0880F991F6A95E2F78095822388BB65
:1025900081E00895413009F457C022B381E090E012
:1025A00002C0880F991F6A95E2F78095822382BB4B
:1025B00081E00895413001F125B381E090E002C04F
:1025C000880F991F6A95E2F78095822385BB81E089
:1025D000089580B78B7F80BF3AB381E090E002C05E
:1025E000880F991F6A95E2F7282F209523232ABB8D
:1025F0002BB3822B8BBBAACF80B78B7F80BF34B32A
:1026000081E090E002C0880F991F6A95E2F7282FB9
:102610002095232324BB25B3822B85BB81E008951D
:1026200080B78B7F80BF37B381E090E002C0880F16
:10263000991F6A95E2F7282F2095232327BB28B3FB
:10264000822B88BB81E0089580B78B7F80BF31B338
:1026500081E090E002C0880F991F6A95E2F7282F69
:102660002095232321BB22B3822B82BB81E00895D6
:10267000843040F4813059F0813030F0823069F09C
:10268000833041F080E008956ABB81E0089567BB24
:1026900081E0089561BB81E0089564BB81E0089505
:1026A000843040F4813059F0813030F0823069F06C
:1026B000833041F080E008956BBB81E0089568BBF2
:1026C00081E0089562BB81E0089565BB81E00895D3
:1026D000843050F4813079F0813040F08230A9F0BC
:1026E000833071F081E0089580E008958BB3809588
:1026F0008BBB81E0089588B3809588BB81E0089505
:1027000082B3809582BB81E0089585B3809585BBB7
:1027100081E00895FB01843040F4813061F0813024
:1027200030F0823081F0833051F080E0089589B339
:10273000808381E0089586B3808381E0089580B32B
:10274000808381E0089583B3808381E0089584309D
:1027500060F46295607F813091F0813040F082308A
:10276000F1F08330A1F081E0089580E008958BB30B
:102770008F708BBB8BB3682B6BBB81E0089588B3E4
:102780008F7088BB88B3682B68BB81E0089582B3E3
:102790008F7082BB82B3682B62BB81E0089585B3E2
:1027A0008F7085BB85B3682B65BB81E0089584304D
:1027B00058F46F70813091F0813040F08230F1F048
:1027C0008330A1F081E0089580E008958BB3807F8D
:1027D0008BBB8BB3682B6BBB81E0089588B3807F84
:1027E00088BB88B3682B68BB81E0089582B3807F83
:1027F00082BB82B3682B62BB81E0089585B3807F82
:1028000085BB85B3682B65BB81E00895DF93CF93CB
:1028100000D000D0CDB7DEB7262F6A837B838C83B0
:10282000672F1982823000F1823049F090E0892FC1
:102830000F900F900F900F90CF91DF910895822FFE
:10284000AE014F5F5F4F0E941F128981882371F391
:1028500090E0813061F791E0892F0F900F900F90F9
:102860000F90CF91DF910895822FAE014F5F5F4FA0
:102870000E941F1290E089818823C9F6ECCF0F9344
:102880001F93DF93CF9300D00F92CDB7DEB769834C
:102890007A838B83062F172F862F672F40E00E94A5
:1028A00017118B81882329F4802F612F41E00E942A
:1028B0009B110F900F900F90CF91DF911F910F916F
:1028C00008950F931F93182F092F662329F0613065
:1028D00079F01F910F910895692F41E00E9417111F
:1028E000812F602F41E00E949B111F910F9108954D
:1028F000692F41E00E941711812F602F40E00E9454
:102900009B111F910F9108950F931F93182F092F5B
:10291000662329F0613079F01F910F910895692F96
:1029200041E00E941711812F602F40E00E949B110F
:102930001F910F910895692F41E00E941711812F77
:10294000602F41E00E949B111F910F910895662313
:1029500019F0613051F00895E42FF0E0EF50FE4F90
:10296000872F60810E9450130895E42FF0E0EF500C
:10297000FE4F60816095872F0E9450130895872F26
:102980006FEF0E9438130895DF93CF9300D00F921A
:10299000CDB7DEB7962F6983672F7A838B83892F14
:1029A0000E945C120F900F900F90CF91DF910895CD
:1029B000DF93CF9300D00F92CDB7DEB7262F698378
:1029C0007A838B83672F813061F0882321F4822FF3
:1029D00041E00E949B110F900F900F90CF91DF91DB
:1029E0000895822F40E00E949B110F900F900F904E
:1029F000CF91DF910895DF93CF9300D00F92CDB7A1
:102A0000DEB7262F69837A838B83672F813061F04D
:102A1000882321F4822F40E00E949B110F900F9099
:102A20000F90CF91DF910895822F41E00E949B117A
:102A30000F900F900F90CF91DF910895DF93CF9378
:102A400000D00F92CDB7DEB7962F6983672F7A83B8
:102A50008B83892F41E00E9417110F900F900F90E8
:102A6000CF91DF910895EF92FF921F93182F81E08D
:102A700065E040E00E949B1181E066E040E00E943A
:102A80009B11612F62956F7083E00E94A71381E014
:102A900067E041E00E949B1180EDE82E87E0F82E70
:102AA000C7010197F1F781E067E040E00E949B11C8
:102AB000C7010197F1F783E0612F0E94A71381E01E
:102AC00067E041E00E949B11C7010197F1F781E0A7
:102AD00067E040E00E949B11C7010197F1F7C70131
:102AE0000197F1F71F91FF90EF900895EF92FF92F9
:102AF0001F93182F81E065E041E00E949B1181E067
:102B000066E040E00E949B11612F62956F7083E048
:102B10000E94A71381E067E041E00E949B1190EDC5
:102B2000E92E97E0F92EC7010197F1F781E067E000
:102B300040E00E949B11C7010197F1F783E0612FEC
:102B40000E94A71381E067E041E00E949B11C7014A
:102B50000197F1F781E067E040E00E949B11C70117
:102B60000197F1F7C7010197F1F71F91FF90EF90DF
:102B70000895EF92FF920F931F93CF93DF937C0101
:102B8000FC011081112309F442C000E0C0EDD7E040
:102B900081E065E041E00E949B1181E066E040E059
:102BA0000E949B11612F62956F7083E00E94A713B2
:102BB00081E067E041E00E949B11CE010197F1F7AF
:102BC00081E067E040E00E949B11CE010197F1F7A0
:102BD00083E0612F0E94A71381E067E041E00E943B
:102BE0009B11CE010197F1F781E067E040E00E9480
:102BF0009B11CE010197F1F7CE010197F1F70F5F1D
:102C0000F701E00FF11D1081112309F0C1CFDF9111
:102C1000CF911F910F91FF90EF9008950F931F9305
:102C200081E065E040E00E949B1181E066E040E0C9
:102C30000E949B1183E060E00E94A71381E067E09F
:102C400041E00E949B1100ED17E0C8010197F1F7E8
:102C500081E067E040E00E949B11C8010197F1F715
:102C600083E061E00E94A71381E067E041E00E94F9
:102C70009B11C8010197F1F781E067E040E00E94F5
:102C80009B11C8010197F1F7C8010197F1F780E2A4
:102C90009EE40197F1F71F910F910895FF920F9312
:102CA0001F93982F8150823008F442C020E8F22E02
:102CB00081E065E040E00E949B1181E066E040E039
:102CC0000E949B116F2D62956F7083E00E94A71385
:102CD00081E067E041E00E949B1100ED17E0C80130
:102CE0000197F1F781E067E040E00E949B11C80185
:102CF0000197F1F783E06F2D0E94A71381E067E051
:102D000041E00E949B11C8010197F1F781E067E063
:102D100040E00E949B11C8010197F1F7C80101979B
:102D2000F1F7C8010197F1F71F910F91FF900895F6
:102D3000613108F0BBCF662309F4B8CF913039F088
:102D4000923009F0B5CF3FEBF32EF60EB1CF4FE73F
:102D5000F42EF60EADCF0F931F9320E030E048EC39
:102D600050E0CA010197F1F72F5F3F4F81E0243F08
:102D70003807B9F783E064E041E00E94171183E06F
:102D800065E041E00E94171183E066E041E00E94A7
:102D9000171183E067E041E00E94171181E065E0D0
:102DA00041E00E94171181E066E041E00E941711A6
:102DB00081E067E041E00E94171181E065E040E0BA
:102DC0000E949B1181E066E040E00E949B1183E03D
:102DD00060E00E94A71381E067E041E00E949B1140
:102DE00000ED17E0C8010197F1F781E067E040E0EE
:102DF0000E949B11C8010197F1F783E062E00E94F5
:102E0000A71381E067E041E00E949B11C801019790
:102E1000F1F781E067E040E00E949B11C801019753
:102E2000F1F7C8010197F1F780E69AEE0197F1F703
:102E300081E065E040E00E949B1181E066E040E0B7
:102E40000E949B1183E062E00E94A71381E067E08B
:102E500041E00E949B11C8010197F1F781E067E012
:102E600040E00E949B11C8010197F1F783E068E2FE
:102E70000E94A71381E067E041E00E949B11C80116
:102E80000197F1F781E067E040E00E949B11C801E3
:102E90000197F1F7C8010197F1F7C8010197F1F720
:102EA00081E065E040E00E949B1181E066E040E047
:102EB0000E949B1183E060E00E94A71381E067E01D
:102EC00041E00E949B11C8010197F1F781E067E0A2
:102ED00040E00E949B11C8010197F1F783E06CE08C
:102EE0000E94A71381E067E041E00E949B11C801A6
:102EF0000197F1F781E067E040E00E949B11C80173
:102F00000197F1F7C8010197F1F7C8010197F1F7AF
:102F100081E065E040E00E949B1181E066E040E0D6
:102F20000E949B1183E060E00E94A71381E067E0AC
:102F300041E00E949B11C8010197F1F781E067E031
:102F400040E00E949B11C8010197F1F783E061E026
:102F50000E94A71381E067E041E00E949B11C80135
:102F60000197F1F781E067E040E00E949B11C80102
:102F70000197F1F7C8010197F1F780E29EE401970C
:102F8000F1F781E065E040E00E949B1181E066E09E
:102F900040E00E949B1183E060E00E94A71381E063
:102FA00067E041E00E949B11C8010197F1F781E0C1
:102FB00067E040E00E949B11C8010197F1F783E0B0
:102FC00066E00E94A71381E067E041E00E949B1148
:102FD000C8010197F1F781E067E040E00E949B1192
:102FE000C8010197F1F7C8010197F1F7C8010197EE
:102FF000F1F71F910F9108952F923F924F925F9298
:103000006F927F928F929F92AF92BF92CF92DF92F8
:10301000EF92FF920F931F93DF93CF93CDB7DEB75D
:103020002A970FB6F894DEBF0FBECDBF2B833C832B
:103030004D835E836F83788789879A87822F832B5E
:10304000842B852B862B872B4985842B892B09F490
:1030500086C199249394882455242224332444241B
:1030600066247724292D382D452D522D632D742D5E
:10307000C30101E00E944900122FF32EE42ED52E49
:10308000C62EB72EA82E792E02E00E944900822E6D
:10309000810EE1E0811608F0E0E03F0D21E03F15F0
:1030A00008F020E06E2E630EE1E0631608F0E0E029
:1030B0002E2B4E0D31E04E1508F030E0522E540EFE
:1030C00021E0541608F020E0322B5D0D21E05D1563
:1030D00008F020E0432E450E31E0451608F030E0C0
:1030E000232B6C0D31E06C1508F030E0322E360EDB
:1030F00021E0361608F020E0322B7B0D21E07B1515
:1031000008F020E0232E270E31E0271608F030E0EB
:10311000232B8A0D31E08A1508F030E0280F29832F
:1031200021E0A981A81708F020E0932E922A970D9C
:10313000990E2B813C814D815E816F8178858985D7
:103140009A85AAE0AA2EBB24CC24DD24EE24FF24F9
:1031500000E010E00E943D07122F180DF1E0121759
:1031600008F0F0E0232F260DE1E0231708F0E0E05F
:103170000F2F020F31E0021708F030E0E32B242F6D
:10318000250D31E0241708F030E0FE2FF20F41E06A
:10319000F21708F040E0342B252F240D41E02517CD
:1031A00008F040E0E32FE20F31E0E21708F030E0F2
:1031B000432B262F230D31E0261708F030E0642F33
:1031C000620F41E0621708F040E0342B272F220DF8
:1031D00041E0271708F040E0532F520F31E052171B
:1031E00008F030E0432B2981280F31E0281708F040
:1031F00030E0420F81E0421708F080E0382B990E52
:10320000B32FB90DBA8348015F2E2E2E362E452ED0
:10321000642E7B2E2B813C814D815E816F81788570
:1032200089859A85FAE0AF2EBB24CC24DD24EE24D8
:10323000FF2400E010E00E94C8002B833C834D83F4
:103240005E836F83788789879A87822F832B842B6D
:10325000852B862B872BE9858E2B892B09F002CFB6
:10326000F1E09F1609F4CBC0292D382D452D522DA4
:10327000632D742DC301EAE0AE2EBB24CC24DD24E3
:10328000EE24FF2400E010E00E943D07122F105DA5
:1032900081E065E041E00E949B1181E066E040E052
:1032A0000E949B11612F62956F7083E00E94A713AB
:1032B00081E067E041E00E949B1180ED97E001977B
:1032C000F1F781E067E040E00E949B1180ED97E01C
:1032D0000197F1F783E0612F0E94A71381E067E077
:1032E00041E00E949B1180ED97E00197F1F781E0AA
:1032F00067E040E00E949B1180ED97E00197F1F7B5
:1033000080ED97E00197F1F7292D382D452D522DAD
:10331000632D742DC30110E00E94C800922E832EED
:10332000542E252E362E472E3C0141E0941609F0EE
:103330009BCF882009F098CF552009F095CF222007
:1033400009F092CF332009F08FCF442009F08CCFC1
:10335000662009F089CF992309F086CF37C081E034
:1033600065E041E00E949B1181E066E040E00E9440
:103370009B1183E063E00E94A71381E067E041E0D6
:103380000E949B1100ED17E0C8010197F1F781E061
:1033900067E040E00E949B11C8010197F1F783E0CC
:1033A00060E30E94A71381E067E041E00E949B1167
:1033B000C8010197F1F781E067E040E00E949B11AE
:1033C000C8010197F1F7C8010197F1F72A960FB6E6
:1033D000F894DEBF0FBECDBFCF91DF911F910F914B
:1033E000FF90EF90DF90CF90BF90AF909F908F9025
:1033F0007F906F905F904F903F902F90089588201E
:1034000009F032CF552009F02FCF222009F02CCF20
:10341000332009F029CF442009F026CF662009F097
:1034200023CF772099F220CFCF92DF92EF92FF92B5
:103430000F931F93CF93DF93D82EC62E81E065E0C4
:1034400040E00E949B1181E066E040E00E949B11F9
:1034500083E064E00E94A71381E067E041E00E94FE
:103460009B1100ED17E0C8010197F1F781E067E0DB
:1034700040E00E949B11C8010197F1F783E060E4EE
:103480000E94A71381E067E041E00E949B11C80100
:103490000197F1F781E067E040E00E949B11C801CD
:1034A0000197F1F7C8010197F1F7C8E9D1E080ED84
:1034B000E82E87E0F82E199181E065E041E00E9456
:1034C0009B1181E066E040E00E949B11612F6295B4
:1034D0006F7083E00E94A71381E067E041E00E94E3
:1034E0009B11C7010197F1F781E067E040E00E947E
:1034F0009B11C7010197F1F783E0612F0E94A71389
:1035000081E067E041E00E949B11C7010197F1F75C
:1035100081E067E040E00E949B11C7010197F1F74D
:10352000C7010197F1F781E0C83DD80709F0C3CF83
:103530008D2D8150823008F4EEC1B0E8FB2E18E0EA
:1035400081E065E040E00E949B1181E066E040E0A0
:103550000E949B1183E0612F0E94A71381E067E026
:1035600041E00E949B1100ED17E0C8010197F1F7BF
:1035700081E067E040E00E949B11C8010197F1F7EC
:1035800083E06F2D0E94A71381E067E041E00E9475
:103590009B11C8010197F1F781E067E040E00E94CC
:1035A0009B11C8010197F1F7C8010197F1F7C80114
:1035B0000197F1F781E065E041E00E949B1181E015
:1035C00066E040E00E949B1183E060E00E94A71348
:1035D00081E067E041E00E949B11C8010197F1F78B
:1035E00081E067E040E00E949B11C8010197F1F77C
:1035F00083E060E00E94A71381E067E041E00E9461
:103600009B11C8010197F1F781E067E040E00E945B
:103610009B11C8010197F1F7C8010197F1F781E00B
:1036200065E041E00E949B1181E066E040E00E947D
:103630009B1183E060E00E94A71381E067E041E016
:103640000E949B11C8010197F1F781E067E040E01B
:103650000E949B11C8010197F1F783E061E00E948D
:10366000A71381E067E041E00E949B11C801019728
:10367000F1F781E067E040E00E949B11C8010197EB
:10368000F1F7C8010197F1F781E065E041E00E94A0
:103690009B1181E066E040E00E949B1183E060E0C6
:1036A0000E94A71381E067E041E00E949B11C801DE
:1036B0000197F1F781E067E040E00E949B11C801AB
:1036C0000197F1F783E062E00E94A71381E067E0D1
:1036D00041E00E949B11C8010197F1F781E067E08A
:1036E00040E00E949B11C8010197F1F7C8010197C2
:1036F000F1F781E065E041E00E949B1181E066E026
:1037000040E00E949B1183E060E00E94A71381E0EB
:1037100067E041E00E949B11C8010197F1F781E049
:1037200067E040E00E949B11C8010197F1F783E038
:1037300063E00E94A71381E067E041E00E949B11D3
:10374000C8010197F1F781E067E040E00E949B111A
:10375000C8010197F1F7C8010197F1F781E065E031
:1037600041E00E949B1181E066E040E00E949B11D5
:1037700083E060E00E94A71381E067E041E00E94DF
:103780009B11C8010197F1F781E067E040E00E94DA
:103790009B11C8010197F1F783E064E00E94A71331
:1037A00081E067E041E00E949B11C8010197F1F7B9
:1037B00081E067E040E00E949B11C8010197F1F7AA
:1037C000C8010197F1F781E065E041E00E949B119B
:1037D00081E066E040E00E949B1183E060E00E948F
:1037E000A71381E067E041E00E949B11C8010197A7
:1037F000F1F781E067E040E00E949B11C80101976A
:10380000F1F783E065E00E94A71381E067E041E003
:103810000E949B11C8010197F1F781E067E040E049
:103820000E949B11C8010197F1F7C8010197F1F7B8
:1038300081E065E041E00E949B1181E066E040E0AC
:103840000E949B1183E060E00E94A71381E067E083
:1038500041E00E949B11C8010197F1F781E067E008
:1038600040E00E949B11C8010197F1F783E066E0F8
:103870000E94A71381E067E041E00E949B11C8010C
:103880000197F1F781E067E040E00E949B11C801D9
:103890000197F1F7C8010197F1F781E065E041E098
:1038A0000E949B1181E066E040E00E949B1183E052
:1038B00060E00E94A71381E067E041E00E949B1155
:1038C000C8010197F1F781E067E040E00E949B1199
:1038D000C8010197F1F783E067E00E94A71381E038
:1038E00067E041E00E949B11C8010197F1F781E078
:1038F00067E040E00E949B11C8010197F1F7C80101
:103900000197F1F7DF91CF911F910F91FF90EF9009
:10391000DF90CF90089580E18C1508F40ECECC2076
:1039200009F40BCE81E0D81631F082E0D81641F0D0
:10393000FF2410E005CE0FE7F02EFC0C18E000CEBF
:103940001FEBF12EFC0C1CE0FBCD81E080932802E4
:1039500008950E94B10F6091ED017091EE01809188
:10396000EF019091F0010E94BF146091ED01709100
:10397000EE018091EF019091F0010E9484140E9469
:10398000AB1680E066E00E94CC0F85EA9CE160E027
:103990000E94881086E00E9458106091EA017091A0
:1039A000EB018091EC010E943F148FED9CE16AE0F5
:1039B0000E945B0E0E94AD0D0E94BD0F08950F93F3
:1039C0001F938091290290912A02019690932A02D6
:1039D00080932902885E934019F01F910F910895FA
:1039E0000091ED011091EE012091EF013091F00175
:1039F00080912B0290912C0265E070E00E94791E6C
:103A0000482FC901B8010E94A71420912B023091C0
:103A10002C02C901019690932C0280932B024091B5
:103A20002802442309F05EC0069708F47FC0C9014C
:103A30000597059708F4D1C0C9010A97059708F4BE
:103A400008C12F5030402530310508F04DC081E0CD
:103A500061E00E944E1684E890E00E94B9156091E2
:103A6000E1017091E2018091E3010E94D81410926B
:103A700025026091E4017091E5018091E6010E94C8
:103A8000D814109226026091D8017091D9018091CA
:103A9000DA010E94D814109222026091DB01709129
:103AA000DC018091DD010E94D81410922302609104
:103AB000DE017091DF018091E0010E94C4146091E9
:103AC000E7017091E8018091E9010E94C41480919E
:103AD0002B0290912C02449739F410922C021092F0
:103AE0002B0202C0413051F010922A02109229029A
:103AF0008DE70E94090E1F910F9108958091220277
:103B0000813009F459C0882379F7809123028130EC
:103B100021F080912402813039F780E190E0909388
:103B20002C0280932B0210922802DECF81E061E00C
:103B30000E944E1680E690E00E94B9156091E40163
:103B40007091E5018091E6010E94FB1411E0109351
:103B500026026091E1017091E2018091E3010E94EF
:103B6000D814109225026091E7017091E8018091CC
:103B7000E9010E94D814109227026091D801709137
:103B8000D9018091DA010E94FB1410932202609106
:103B9000DB017091DC018091DD010E94D81410924C
:103BA00023026091DE017091DF018091E0010E94AB
:103BB000D8141092240298CF80912302882309F010
:103BC00093CF80912402882309F08ECF10922C028B
:103BD00010922B021092280287CF81E061E00E94B0
:103BE0004E1681E790E00E94B9156091E101709155
:103BF000E2018091E3010E94FB1411E01093250281
:103C00006091E4017091E5018091E6010E94D81471
:103C1000109226026091E7017091E8018091E9011C
:103C20000E94D814109227026091DB017091DC0190
:103C30008091DD010E94FB14109323026091D80152
:103C40007091D9018091DA010E94D8141092220259
:103C5000A8CF81E061E00E944E1684E890E00E94C7
:103C6000B9156091E7017091E8018091E9010E9426
:103C7000FB1411E0109327026091E4017091E501BB
:103C80008091E6010E94D814109226026091E10111
:103C90007091E2018091E3010E94D81410922502F4
:103CA0006091DE017091DF018091E0010E94FB14C0
:103CB000109324026091D8017091D9018091DA01AA
:103CC0000E94D814109222026091DB017091DC01F5
:103CD0008091DD010E94D8141092230280912B0262
:103CE00090912C020F9709F0FFCEF7CE0E94A91CED
:103CF000FFCFAA1BBB1B51E107C0AA1FBB1FA61702
:103D0000B70710F0A61BB70B881F991F5A95A9F784
:103D100080959095BC01CD010895629FD001739F5D
:103D2000F001829FE00DF11D649FE00DF11D929F57
:103D3000F00D839FF00D749FF00D659FF00D992796
:103D4000729FB00DE11DF91F639FB00DE11DF91FBA
:103D5000BD01CF0111240895A1E21A2EAA1BBB1B9D
:103D6000FD010DC0AA1FBB1FEE1FFF1FA217B30747
:103D7000E407F50720F0A21BB30BE40BF50B661F5D
:103D8000771F881F991F1A9469F760957095809521
:103D900090959B01AC01BD01CF0108952F923F92F8
:103DA0004F925F926F927F928F929F92AF92BF924B
:103DB000CF92DF92EF92FF920F931F93CF93DF93F7
:103DC000CDB7DEB7CA1BDB0B0FB6F894DEBF0FBE54
:103DD000CDBF09942A88398848885F846E847D84A1
:103DE0008C849B84AA84B984C884DF80EE80FD80A3
:103DF0000C811B81AA81B981CE0FD11D0FB6F89419
:0E3E0000DEBF0FBECDBFED010895F894FFCFD9
:103E0E00596F752043616E204D6F7665204E6F772A
:103E1E0000446F204E6F74204D6F76652020202059
:103E2E002020200057616974202E2E2E2E2E202049
:103E3E002020202020202000000102020303030383
:103E4E00040404040404040405050505050505051C
:103E5E0005050505050505050606060606060606FC
:103E6E0006060606060606060606060606060606E4
:103E7E0006060606060606060707070707070707CC
:103E8E0007070707070707070707070707070707B4
:103E9E0007070707070707070707070707070707A4
:103EAE000707070707070707070707070707070794
:103EBE00070707070707070708080808080808087C
:103ECE000808080808080808080808080808080864
:103EDE000808080808080808080808080808080854
:103EEE000808080808080808080808080808080844
:103EFE000808080808080808080808080808080834
:103F0E000808080808080808080808080808080823
:103F1E000808080808080808080808080808080813
:103F2E000808080808080808080808080808080803
:103F3E00080808080808080807051F1010100000D8
:103F4E00040202020418000004040407000000002A
:103F5E000F08041E00000000040404040404000002
:103F6E0000000202021E0000000E0A0F02020408E8
:103F7E000609011F000000000100010101010102FC
:103F8E00010003010004010005010002000002020D
:0C3F9E00073F065B4F666D7D077F6F00DC
:00000001FF
