:100000000C942A000C9447000C9447000C94470071
:100010000C9447000C9447000C9447000C943B0F41
:100020000C9447000C9447000C9447000C94470034
:100030000C9447000C9447000C9447000C94470024
:100040000C9447000C9447000C9447000C94470014
:100050000C94470011241FBECFE5D8E0DEBFCDBF12
:1000600010E0A0E6B0E0E6E9F5E302C005900D92ED
:10007000A836B107D9F713E0A8E6B0E001C01D9299
:10008000A338B107E1F70E94EA0B0C94C91A0C944B
:100090000000DF93CF93CDB7DEB728970FB6F89463
:1000A000DEBF0FBECDBF8A836B834C8381E0898323
:1000B0008A81843008F0F1C08B81883008F0EDC06F
:1000C0008C81813009F06FC08A81282F30E0388719
:1000D0002F838F8198858130910549F12F81388553
:1000E000223031052CF48F819885009761F0D6C0BD
:1000F0002F8138852230310571F18F8198858330C9
:100100009105E9F1CBC0AAE3B0E0EAE3F0E0808139
:10011000482F8B81282F30E081E090E0022E02C032
:10012000880F991F0A94E2F7842B8C93B7C0A7E33A
:10013000B0E0E7E3F0E08081482F8B81282F30E0AA
:1001400081E090E0022E02C0880F991F0A94E2F726
:10015000842B8C93A3C0A4E3B0E0E4E3F0E08081BF
:10016000482F8B81282F30E081E090E0022E02C0E2
:10017000880F991F0A94E2F7842B8C938FC0A1E318
:10018000B0E0E1E3F0E08081482F8B81282F30E060
:1001900081E090E0022E02C0880F991F0A94E2F7D6
:1001A000842B8C937BC08C81882309F074C08A8156
:1001B000282F30E03E832D838D819E8181309105F3
:1001C00059F12D813E81223031052CF48D819E81A3
:1001D000009769F063C02D813E812230310589F19D
:1001E0008D819E818330910509F440C057C0AAE3F8
:1001F000B0E0EAE3F0E08081482F8B81282F30E0E7
:1002000081E090E0022E02C0880F991F0A94E2F765
:10021000809584238C9342C0A7E3B0E0E7E3F0E04D
:100220008081482F8B81282F30E081E090E0022EE2
:1002300002C0880F991F0A94E2F7809584238C935B
:100240002DC0A4E3B0E0E4E3F0E08081482F8B818F
:10025000282F30E081E090E0022E02C0880F991F25
:100260000A94E2F7809584238C9318C0A1E3B0E050
:10027000E1E3F0E08081482F8B81282F30E081E09E
:1002800090E0022E02C0880F991F0A94E2F7809531
:1002900084238C9303C0198201C019828981289616
:1002A0000FB6F894DEBF0FBECDBFCF91DF9108959A
:1002B000DF93CF93CDB7DEB728970FB6F894DEBFA4
:1002C0000FBECDBF8A836B834C8381E089838A8193
:1002D000843008F0F1C08B81883008F0EDC08C814B
:1002E000813009F06FC08A81282F30E038872F8352
:1002F0008F8198858130910549F12F813885223091
:1003000031052CF48F819885009761F0D6C02F813C
:1003100038852230310571F18F81988583309105C0
:10032000E9F1CBC0ABE3B0E0EBE3F0E08081482F34
:100330008B81282F30E081E090E0022E02C0880FF0
:10034000991F0A94E2F7842B8C93B7C0A8E3B0E01E
:10035000E8E3F0E08081482F8B81282F30E081E0B6
:1003600090E0022E02C0880F991F0A94E2F7842BB6
:100370008C93A3C0A5E3B0E0E5E3F0E08081482FD3
:100380008B81282F30E081E090E0022E02C0880FA0
:10039000991F0A94E2F7842B8C938FC0A2E3B0E0FC
:1003A000E2E3F0E08081482F8B81282F30E081E06C
:1003B00090E0022E02C0880F991F0A94E2F7842B66
:1003C0008C937BC08C81882309F074C08A81282F8C
:1003D00030E03E832D838D819E818130910559F1DE
:1003E0002D813E81223031052CF48D819E81009734
:1003F00069F063C02D813E812230310589F18D8104
:100400009E818330910509F440C057C0ABE3B0E052
:10041000EBE3F0E08081482F8B81282F30E081E0F2
:1004200090E0022E02C0880F991F0A94E2F780958F
:1004300084238C9342C0A8E3B0E0E8E3F0E080813D
:10044000482F8B81282F30E081E090E0022E02C0FF
:10045000880F991F0A94E2F7809584238C932DC00E
:10046000A5E3B0E0E5E3F0E08081482F8B81282F01
:1004700030E081E090E0022E02C0880F991F0A94BC
:10048000E2F7809584238C9318C0A2E3B0E0E2E306
:10049000F0E08081482F8B81282F30E081E090E0D0
:1004A000022E02C0880F991F0A94E2F780958423D8
:1004B0008C9303C0198201C01982898128960FB6D6
:1004C000F894DEBF0FBECDBFCF91DF910895DF93CB
:1004D000CF93CDB7DEB727970FB6F894DEBF0FBE28
:1004E000CDBF8A836B835D834C8381E089838A815E
:1004F000843008F0A6C08B81883008F0A2C08A81C1
:10050000282F30E03F832E834E815F81413051059B
:10051000C1F18E819F818230910534F42E813F811B
:100520002115310571F08EC04E815F814230510539
:1005300009F447C08E819F818330910509F461C021
:1005400081C0E9E3F0E08081482F50E08B81282FC3
:1005500030E081E090E002C0880F991F2A95E2F711
:100560009A01282339238B81882F90E0A90102C0AA
:10057000559547958A95E2F7CA01EC81FD81808304
:1005800061C0E6E3F0E08081482F50E08B81282FA6
:1005900030E081E090E002C0880F991F2A95E2F7D1
:1005A0009A01282339238B81882F90E0A90102C06A
:1005B000559547958A95E2F7CA01EC81FD818083C4
:1005C00041C0E3E3F0E08081482F50E08B81282F89
:1005D00030E081E090E002C0880F991F2A95E2F791
:1005E0009A01282339238B81882F90E0A90102C02A
:1005F000559547958A95E2F7CA01EC81FD81808384
:1006000021C0E0E3F0E08081482F50E08B81282F6B
:1006100030E081E090E002C0880F991F2A95E2F750
:100620009A01282339238B81882F90E0A90102C0E9
:10063000559547958A95E2F7CA01EC81FD81808343
:1006400001C01982898127960FB6F894DEBF0FBECC
:10065000CDBFCF91DF910895DF93CF9300D000D02D
:100660000F92CDB7DEB78A836B8381E089838B815C
:10067000883008F06FC08A81282F30E03D832C83BA
:100680008C819D818130910549F12C813D81223001
:1006900031052CF48C819D81009761F05CC02C8128
:1006A0003D812230310571F18C819D81833091052E
:1006B000E9F151C0ABE3B0E0EBE3F0E08081482F1B
:1006C0008B81282F30E081E090E0022E02C0880F5D
:1006D000991F0A94E2F784278C933DC0A8E3B0E009
:1006E000E8E3F0E08081482F8B81282F30E081E023
:1006F00090E0022E02C0880F991F0A94E2F7842727
:100700008C9329C0A5E3B0E0E5E3F0E08081482FB9
:100710008B81282F30E081E090E0022E02C0880F0C
:10072000991F0A94E2F784278C9315C0A2E3B0E0E6
:10073000E2E3F0E08081482F8B81282F30E081E0D8
:1007400090E0022E02C0880F991F0A94E2F78427D6
:100750008C9301C0198289810F900F900F900F9098
:100760000F90CF91DF910895DF93CF9300D000D009
:1007700000D0CDB7DEB78A836B834C8381E0898359
:100780008A81843008F03EC18B81883008F03AC1FC
:100790008A81282F30E03E832D838D819E81813098
:1007A000910509F45DC02D813E81223031052CF484
:1007B0008D819E81009771F026C12D813E8122306E
:1007C000310509F493C08D819E818330910509F430
:1007D000D3C019C18C81813071F5A0E5B0E0E0E5AE
:1007E000F0E080818B7F8C93AAE3B0E0EAE3F0E055
:1007F0008081482F8B81282F30E081E090E002C07B
:10080000880F991F2A95E2F7809584238C93ABE398
:10081000B0E0EBE3F0E08081482F8B81282F30E0BF
:1008200081E090E0022E02C0880F991F0A94E2F73F
:10083000842B8C93E8C0ABE3B0E0EBE3F0E0808185
:10084000482F8B81282F30E081E090E0022E02C0FB
:10085000880F991F0A94E2F7809584238C93D3C064
:100860008C81813071F5A0E5B0E0E0E5F0E08081B9
:100870008B7F8C93A7E3B0E0E7E3F0E08081482F23
:100880008B81282F30E081E090E002C0880F991F13
:100890002A95E2F7809584238C93A8E3B0E0E8E3FF
:1008A000F0E08081482F8B81282F30E081E090E0BC
:1008B000022E02C0880F991F0A94E2F7842B8C93B2
:1008C000A2C0A8E3B0E0E8E3F0E08081482F8B818C
:1008D000282F30E081E090E0022E02C0880F991F9F
:1008E0000A94E2F7809584238C938DC08C818130AB
:1008F00071F5A0E5B0E0E0E5F0E080818B7F8C93BE
:10090000A4E3B0E0E4E3F0E08081482F8B81282F5E
:1009100030E081E090E002C0880F991F2A95E2F74D
:10092000809584238C93A5E3B0E0E5E3F0E080813B
:10093000482F8B81282F30E081E090E0022E02C00A
:10094000880F991F0A94E2F7842B8C935CC0A5E36F
:10095000B0E0E5E3F0E08081482F8B81282F30E084
:1009600081E090E0022E02C0880F991F0A94E2F7FE
:10097000809584238C9347C08C81813071F5A0E5EC
:10098000B0E0E0E5F0E080818B7F8C93A1E3B0E004
:10099000E1E3F0E08081482F8B81282F30E081E077
:1009A00090E002C0880F991F2A95E2F78095842372
:1009B0008C93A2E3B0E0E2E3F0E08081482F8B81EA
:1009C000282F30E081E090E0022E02C0880F991FAE
:1009D0000A94E2F7842B8C9316C0A2E3B0E0E2E322
:1009E000F0E08081482F8B81282F30E081E090E07B
:1009F000022E02C0880F991F0A94E2F78095842383
:100A00008C9301C01982898126960FB6F894DEBFB7
:100A10000FBECDBFCF91DF910895DF93CF9300D06C
:100A200000D00F92CDB7DEB78A836B8381E08983D4
:100A30008A818430A8F58A81282F30E03D832C8379
:100A40008C819D8181309105D1F02C813D812230B6
:100A500031052CF48C819D81009761F01FC02C81A1
:100A60003D812230310581F08C819D81833091055B
:100A700081F014C0EAE3F0E08B81808312C0E7E3E9
:100A8000F0E08B8180830DC0E4E3F0E08B81808314
:100A900008C0E1E3F0E08B81808303C0198201C0CC
:100AA000198289810F900F900F900F900F90CF9126
:100AB000DF910895DF93CF9300D000D00F92CDB790
:100AC000DEB78A836B8381E089838A818430A8F5CD
:100AD0008A81282F30E03D832C838C819D81813059
:100AE0009105D1F02C813D81223031052CF48C818F
:100AF0009D81009761F01FC02C813D81223031051E
:100B000081F08C819D818330910581F014C0EBE3ED
:100B1000F0E08B81808312C0E8E3F0E08B8180837A
:100B20000DC0E5E3F0E08B81808308C0E2E3F0E0F4
:100B30008B81808303C0198201C0198289810F9043
:100B40000F900F900F900F90CF91DF910895DF934A
:100B5000CF9300D000D0CDB7DEB78A8381E0898300
:100B60008A81843008F03FC08A81282F30E03C839E
:100B70002B838B819C8181309105E9F02B813C8115
:100B8000223031052CF48B819C81009761F02CC0C0
:100B90002B813C8122303105B1F08B819C818330E7
:100BA0009105C9F021C0ABE3B0E0EBE3F0E0808158
:100BB00080958C9319C0A8E3B0E0E8E3F0E0808171
:100BC00080958C9311C0A5E3B0E0E5E3F0E080816F
:100BD00080958C9309C0A2E3B0E0E2E3F0E080816D
:100BE00080958C9301C0198289810F900F900F908E
:100BF0000F90CF91DF910895DF93CF9300D000D075
:100C000000D0CDB7DEB78A837C836B8381E0898394
:100C10008A818430E8F58A81282F30E03E832D8355
:100C20008D819E8181309105E1F02D813E812230C0
:100C300031052CF48D819E81009761F027C02D81B4
:100C40003E8122303105A1F08D819E818330910556
:100C5000B1F01CC0E9E3F0E08081EB81FC8180838E
:100C600018C0E6E3F0E08081EB81FC81808311C055
:100C7000E3E3F0E08081EB81FC8180830AC0E0E364
:100C8000F0E08081EB81FC81808303C0198201C088
:100C90001982898126960FB6F894DEBF0FBECDBFAC
:100CA000CF91DF910895DF93CF9300D000D00F92C2
:100CB000CDB7DEB78A836B8381E089838A818430F4
:100CC00008F063C08B818295807F8B838A81282F77
:100CD00030E03D832C838C819D818130910529F109
:100CE0002C813D81223031052CF48C819D8100972F
:100CF00061F04CC02C813D812230310531F18C8175
:100D00009D818330910589F141C0ABE3B0E0EBE315
:100D1000F0E080818F708C93ABE3B0E0EBE3F0E028
:100D200090818B81892B8C9331C0A8E3B0E0E8E3FC
:100D3000F0E080818F708C93A8E3B0E0E8E3F0E00E
:100D400090818B81892B8C9321C0A5E3B0E0E5E3F2
:100D5000F0E080818F708C93A5E3B0E0E5E3F0E0F4
:100D600090818B81892B8C9311C0A2E3B0E0E2E3E8
:100D7000F0E080818F708C93A2E3B0E0E2E3F0E0DA
:100D800090818B81892B8C9301C0198289810F906E
:100D90000F900F900F900F90CF91DF910895DF93F8
:100DA000CF9300D000D00F92CDB7DEB78A836B838C
:100DB00081E089838A81843008F062C08B818F70E2
:100DC0008B838A81282F30E03D832C838C819D8109
:100DD0008130910529F12C813D81223031052CF49F
:100DE0008C819D81009761F04CC02C813D81223027
:100DF000310531F18C819D818330910589F141C0AC
:100E0000ABE3B0E0EBE3F0E08081807F8C93ABE379
:100E1000B0E0EBE3F0E090818B81892B8C9331C0C3
:100E2000A8E3B0E0E8E3F0E08081807F8C93A8E362
:100E3000B0E0E8E3F0E090818B81892B8C9321C0B6
:100E4000A5E3B0E0E5E3F0E08081807F8C93A5E34B
:100E5000B0E0E5E3F0E090818B81892B8C9311C0A9
:100E6000A2E3B0E0E2E3F0E08081807F8C93A2E334
:100E7000B0E0E2E3F0E090818B81892B8C9301C09C
:100E8000198289810F900F900F900F900F90CF9142
:100E9000DF910895DF93CF93CDB7DEB7EAE3F0E0BB
:100EA00087E08083E7E3F0E01082E4E3F0E0108283
:100EB000E1E3F0E01082EBE3F0E087E08083E8E339
:100EC000F0E01082E5E3F0E01082E2E3F0E010826F
:100ED000CF91DF910895DF93CF93CDB7DEB72797FA
:100EE0000FB6F894DEBF0FBECDBF9D838C836E839B
:100EF0004F838AE190E00E94430A9A838983898123
:100F00009A81009709F46FC0809168009091690000
:100F1000009741F489819A819093690080936800D9
:100F20000E94D2098E81823010F081E08E83E981A7
:100F3000FA81118E108EE981FA818E81868BE9818A
:100F4000FA818F81878BE981FA818C819D819183E0
:100F5000808389819A8102960E94D90A89819A8127
:100F60000C960E94D90AE981FA8189819A81918738
:100F70008087E981FA8189819A81938B828B8E8126
:100F8000282F30E089E090E0821B930BE981FA8101
:100F900095878487E981FA81968980916A0089170B
:100FA00028F4E981FA81868980936A00E981FA81CF
:100FB0008689282F30E0C901880F991F880F991F53
:100FC000880F991F820F931FAC014F585F4F898183
:100FD0009A819C012E5F3F4FCA01B9010E94E90A24
:100FE00081E08B8302C08FEF8B838B8127960FB6B6
:100FF000F894DEBF0FBECDBFCF91DF910895DF9390
:10100000CF9300D000D000D0CDB7DEB79C838B83C8
:101010007E836D8320916B0030916C008B819C816D
:10102000820F931F9A838983809168009091690051
:1010300002960E94A10BE0916800F09169008981FD
:101040009A819383828320916B0030916C00898117
:101050009A818217930770F480919700909198007D
:1010600020916800309169002E5F3F4FB9010E94C6
:10107000350B0DC0809195009091960020916800ED
:10108000309169002E5F3F4FB9010E94350B8D8171
:101090009E81009761F080916800909169009C01A9
:1010A000245F3F4F8D819E81B9010E94350B2696AA
:1010B0000FB6F894DEBF0FBECDBFCF91DF9108957C
:1010C000DF93CF9300D0CDB7DEB73AC0F894E0916C
:1010D0009E00F0919F00868197819A838983898100
:1010E0009A810C960E94A10B789489819A8102962C
:1010F0000E94A10BE981FA81968980916A00891783
:1011000028F4E981FA81868980936A00E981FA816D
:101110008689282F30E0C901880F991F880F991FF1
:10112000880F991F820F931FAC014F585F4F898121
:101130009A819C012E5F3F4FCA01B9010E94E90AC2
:1011400080919900882309F0C1CF0F900F90CF9123
:10115000DF910895DF93CF9300D000D0CDB7DEB7F5
:101160000E94911620916D0030916E00821B930BAE
:101170009093700080936F0085C080916B00909178
:101180006C00019690936C0080936B0080916F00CF
:101190009091700001979093700080936F00809100
:1011A0006B0090916C00009709F064C080919500ED
:1011B000909196009A8389838091970090919800EE
:1011C000909396008093950089819A8190939800DE
:1011D000809397004FC0E0919500F09196000580B4
:1011E000F681E02D868197819C838B83EB81FC8146
:1011F0002281338180916B0090916C00821793075C
:1012000008F440C0F8948B819C8102960E94A10B47
:10121000EB81FC8184899589009729F08B819C81E1
:101220000C960E94A10B7894EB81FC8196898091A9
:101230006A00891728F4EB81FC81868980936A0013
:10124000EB81FC818689282F30E0C901880F991F26
:10125000880F991F880F991F820F931FAC014F5859
:101260005F4F8B819C819C012E5F3F4FCA01B9016A
:101270000E94E90AE0919500F09196008081882310
:1012800009F0A9CF80916F0090917000009709F04C
:1012900074CF80916B0090916C0090936E0080935E
:1012A0006D000F900F900F900F90CF91DF910895E8
:1012B000DF93CF9300D0CDB7DEB70E9460080E94C5
:1012C000AA080AC080916A00882309F466C0809148
:1012D0006A00815080936A0080916A00282F30E074
:1012E000C901880F991F880F991F880F991F820FB6
:1012F000931FFC01EF58FF4F8081882319F38091E1
:101300006A00282F30E0C901880F991F880F991FA4
:10131000880F991F820F931F8F589F4F9A8389833D
:10132000E981FA810180F281E02D82819381E98156
:10133000FA8192838183E981FA81218132818981D5
:101340009A8103962817390759F4E981FA810180B7
:10135000F281E02D82819381E981FA8192838183F8
:10136000E981FA810180F281E02D86819781909355
:10137000690080936800E0916800F0916900408105
:1013800051818091680090916900E0916800F0912E
:1013900069002789622FFA0109950F900F90CF916C
:1013A000DF910895DF93CF930F92CDB7DEB7198207
:1013B00013C08981282F30E0C901880F991F880F39
:1013C000991F880F991F820F931F8F589F4F0E945C
:1013D000AF0A89818F5F89838981823050F383E8E6
:1013E00090E00E94AF0A8CE890E00E94AF0A89E981
:1013F00090E00E94AF0A83E890E09093960080937B
:1014000095008CE890E090939800809397000F905F
:10141000CF91DF910895DF93CF9300D000D00F924A
:10142000CDB7DEB79D838C83EC81FD810580F6818D
:10143000E02D868197819B838A838A819B810C968C
:101440000E94A10B8A819B819C01245F3F4F89E907
:1014500090E0B9010E94E90AEA81FB819689E09156
:101460006800F09169008689981718F081E08983F7
:1014700001C0198289810F900F900F900F900F90EB
:10148000CF91DF910895DF93CF9300D000D0CDB7F7
:10149000DEB79C838B831A8219820E94FB15809190
:1014A000A2009091A3002B813C81820F931F22E028
:1014B0008835920718F52091A2003091A3008B8106
:1014C0009C81280F391F8091A2009091A300821760
:1014D0009307A0F48091A2009091A3008C559F4F98
:1014E0009A8389832091A2003091A3008B819C81F3
:1014F000820F931F9093A3008093A2000E9407166F
:1015000089819A810F900F900F900F90CF91DF916A
:101510000895DF93CF9300D0CDB7DEB79A83898348
:101520000F900F90CF91DF910895DF93CF93CDB7B8
:10153000DEB71092A3001092A200CF91DF91089520
:10154000DF93CF93CDB7DEB72091A2003091A300F7
:1015500088E592E0821B930BCF91DF910895DF9392
:10156000CF9300D0CDB7DEB79A83898389819A81E2
:101570000396E981FA8192838183E981FA818FEF71
:101580009FEF9483838389819A810396E981FA810D
:101590009683858389819A810396E981FA81908770
:1015A0008783E981FA8110820F900F90CF91DF91AC
:1015B0000895DF93CF9300D0CDB7DEB79A838983A8
:1015C000E981FA81118610860F900F90CF91DF91FB
:1015D0000895DF93CF9300D000D000D0CDB7DEB711
:1015E0009C838B837E836D83EB81FC8181819281DF
:1015F0009A838983E981FA8182819381ED81FE81D9
:1016000093838283EB81FC8181819281ED81FE81D4
:1016100095838483E981FA810280F381E02D8D81B5
:101620009E81958384838D819E81E981FA81938354
:1016300082838D819E81EB81FC8192838183ED8108
:10164000FE818B819C8191878087EB81FC818081E9
:101650008F5FEB81FC81808326960FB6F894DEBF06
:101660000FBECDBFCF91DF910895DF93CF93CDB75C
:10167000DEB728970FB6F894DEBF0FBECDBF9E83AE
:101680008D8378876F83EF81F885808191819A833C
:10169000898389819A812FEF8F3F920739F4ED81F9
:1016A000FE81878190859C838B8318C08D819E816C
:1016B00003969C838B8306C0EB81FC81828193819E
:1016C0009C838B83EB81FC810280F381E02D208160
:1016D000318189819A818217930770F7EB81FC81B0
:1016E00082819381EF81F88593838283EF81F885EE
:1016F0000280F381E02D8F81988595838483EF812B
:10170000F8858B819C81958384838F819885EB817B
:10171000FC8193838283EF81F8858D819E819187FF
:101720008087ED81FE8180818F5FED81FE818083E6
:1017300028960FB6F894DEBF0FBECDBFCF91DF91D4
:101740000895DF93CF9300D000D0CDB7DEB79C8350
:101750008B83EB81FC81A281B381EB81FC8184814D
:10176000958115969C938E931497EB81FC81A481AF
:10177000B581EB81FC818281938113969C938E933A
:101780001297EB81FC81808591859A838983E98119
:10179000FA81218132818B819C812817390741F49C
:1017A000EB81FC8184819581E981FA819283818337
:1017B000EB81FC8111861086E981FA81808181505C
:1017C000E981FA8180830F900F900F900F90CF9155
:1017D000DF910895AF92BF92CF92DF92EF92FF9286
:1017E0000F93DF93CF93CDB7DEB70E944A0786E30E
:1017F0009CE060E070E04AEA50E020E030E002E087
:10180000EE24FF24CC24DD24AA24BB240E94BF1391
:1018100088E49CE060E070E04AEA50E020E030E0DC
:1018200001E0EE24FF24CC24DD24AA24BB240E9462
:10183000BF138AE59CE060E070E04AEA50E020E0F7
:1018400030E000E0EE24FF24CC24DD24AA24BB24D5
:101850000E94BF130E94B815CF91DF910F91FF90A6
:10186000EF90DF90CF90BF90AF900895DF93CF932C
:1018700000D0CDB7DEB79A838983EBE3F0E08081B7
:1018800060E00E942C0388EE93E00E948315F5CF60
:10189000DF93CF9300D0CDB7DEB79A838983EBE394
:1018A000F0E0808161E00E942C0380ED97E00E94CF
:1018B0008315F5CFDF93CF9300D0CDB7DEB79A83F2
:1018C0008983EBE3F0E0808162E00E942C0388EBE7
:1018D0009BE00E948315F5CFDF93CF93CDB7DEB7A2
:1018E00028970FB6F894DEBF0FBECDBF9C838B83C5
:1018F0007E836D8358874F83EB81FC8181E18083F8
:101900008B819C8101979C838B83EB81FC8182E29C
:1019100080838B819C8101979C838B83EB81FC81ED
:1019200083E380838B819C8101979C838B838D8152
:101930009E819A8389838981EB81FC8180838B815D
:101940009C8101979C838B8389819A81892F992718
:101950009A8389838981EB81FC8180838B819C813F
:1019600001979C838B83EB81FC8110828B819C810E
:1019700001979C838B83EB81FC8180E880838B8142
:101980009C8101979C838B83EB81FC8110828B81EE
:101990009C8101979C838B83EB81FC8182E0808317
:1019A0008B819C8101979C838B83EB81FC8183E0FD
:1019B00080838B819C8101979C838B83EB81FC814D
:1019C00084E080838B819C8101979C838B83EB8156
:1019D000FC8185E080838B819C8101979C838B8334
:1019E000EB81FC8186E080838B819C8101979C83C5
:1019F0008B83EB81FC8187E080838B819C810197C5
:101A00009C838B83EB81FC8188E080838B819C812C
:101A100001979C838B83EB81FC8189E080838B81A0
:101A20009C8101979C838B83EB81FC8180E1808387
:101A30008B819C8101979C838B83EB81FC8181E16D
:101A400080838B819C8101979C838B83EB81FC81BC
:101A500082E180838B819C8101979C838B83EB81C6
:101A6000FC8183E180838B819C8101979C838B83A4
:101A7000EB81FC8184E180838B819C8101979C8335
:101A80008B83EB81FC8185E180838B819C81019735
:101A90009C838B83EB81FC8186E180838B819C819D
:101AA00001979C838B83EB81FC8187E180838B8111
:101AB0009C8101979C838B83EB81FC8188E18083EF
:101AC0008B819C8101979C838B83EB81FC8189E1D5
:101AD00080838B819C8101979C838B83EB81FC812C
:101AE00080E280838B819C8101979C838B83EB8137
:101AF000FC8181E280838B819C8101979C838B8315
:101B0000EB81FC8182E280838B819C8101979C83A5
:101B10008B83EB81FC8183E280838B819C810197A5
:101B20009C838B838F8198859A8389838981EB81BC
:101B3000FC8180838B819C8101979C838B8389812D
:101B40009A81892F99279A8389838981EB81FC81E6
:101B500080838B819C8101979C838B83EB81FC81AB
:101B600086E280838B819C8101979C838B83EB81B0
:101B7000FC8187E280838B819C8101979C838B838E
:101B8000EB81FC8188E280838B819C8101979C831F
:101B90008B83EB81FC8189E280838B819C8101971F
:101BA0009C838B83EB81FC8180E380838B819C8190
:101BB00001979C838B83EB81FC8181E380838B8104
:101BC0009C8101979C838B838B819C8128960FB687
:101BD000F894DEBF0FBECDBFCF91DF910895DF93A4
:101BE000CF93CDB7DEB70E94DF0EA091FC02B0917B
:101BF000FD02CD91CDBFDD91DEBFFF91EF91DF9171
:101C0000CF91BF91AF919F918F917F916F915F9194
:101C10004F913F912F911F910F91FF90EF90DF9087
:101C2000CF90BF90AF909F908F907F906F905F907C
:101C30004F903F902F901F900F900FBE0F900895E0
:101C400081E0CF91DF910895DF93CF93CDB7DEB7D9
:101C5000CF91DF9108950F920FB6F8940F921F92D3
:101C600011242F923F924F925F926F927F928F92A8
:101C70009F92AF92BF92CF92DF92EF92FF920F931B
:101C80001F932F933F934F935F936F937F938F9304
:101C90009F93AF93BF93CF93DF93EF93FF93A09165
:101CA000FC02B091FD020DB60D920EB60D920E948F
:101CB0009B17A091FC02B091FD02CD91CDBFDD91AB
:101CC000DEBFFF91EF91DF91CF91BF91AF919F91D7
:101CD0008F917F916F915F914F913F912F911F91C4
:101CE0000F91FF90EF90DF90CF90BF90AF909F90BB
:101CF0008F907F906F905F904F903F902F901F90AC
:101D00000F900FBE0F9008950F920FB6F8940F9298
:101D10001F9211242F923F924F925F926F927F9267
:101D20008F929F92AF92BF92CF92DF92EF92FF92EB
:101D30000F931F932F933F934F935F936F937F93D3
:101D40008F939F93AF93BF93CF93DF93EF93FF93C3
:101D5000A091FC02B091FD020DB60D920EB60D924F
:101D60000E94C6160E949B17A091FC02B091FD0232
:101D7000CD91CDBFDD91DEBFFF91EF91DF91CF918E
:101D8000BF91AF919F918F917F916F915F914F9193
:101D90003F912F911F910F91FF90EF90DF90CF9087
:101DA000BF90AF909F908F907F906F905F904F907B
:101DB0003F902F901F900F900FBE0F900895DF93CC
:101DC000CF9300D000D000D0CDB7DEB780E49FE144
:101DD000A0E0B0E08B839C83AD83BE838B819C812C
:101DE000AD81BE81689415F8B695A79597958795AE
:101DF0001694D1F78B839C83AD83BE838B819C81AA
:101E0000AD81BE810197A109B1098B839C83AD830C
:101E1000BE838B8189838B819C81AD81BE81892F1B
:101E20009A2FAB2FBB278B839C83AD83BE838B8183
:101E30008A83EBE4F0E08A818083EAE4F0E0898140
:101E400080838BE08983EEE4F0E089818083E9E59B
:101E5000F0E080818983898180618983E9E5F0E010
:101E60008981808326960FB6F894DEBF0FBECDBF62
:101E7000CF91DF9108950E94840E1895DF93CF9340
:101E8000CDB7DEB728970FB6F894DEBF0FBECDBF33
:101E90008F8368871A8219828F81882309F48CC006
:101EA0008FE190E00E94430A9E838D838D819E8105
:101EB000009709F481C08F81282F30E08885882F12
:101EC00090E0AC01249FC001259F900D349F900DA0
:101ED000112401969C838B838B819C810E94430AF1
:101EE000ED81FE8191838083ED81FE8180819181EE
:101EF000009709F45DC0ED81FE81408151818F81A1
:101F0000282F30E08885882F90E0BC01269FC001F3
:101F1000279F900D369F900D1124840F951FED8102
:101F2000FE8193838283ED81FE81128EED81FE819D
:101F300080819181ED81FE8195838483ED81FE8195
:101F4000408151818F81882F90E09C012150304049
:101F50008885882F90E0BC01269FC001279F900DA7
:101F6000369F900D1124840F951FED81FE8197837C
:101F70008683ED81FE818F81838FED81FE8188854F
:101F8000848FED81FE818FEF858FED81FE818FEF54
:101F9000868F8D819E8108960E94AF0A8D819E81D9
:101FA00041960E94AF0A8D819E819A83898304C0E5
:101FB0008D819E810E94890A89819A8128960FB617
:101FC000F894DEBF0FBECDBFCF91DF910895DF93B0
:101FD000CF93CDB7DEB72C970FB6F894DEBF0FBE08
:101FE000CDBF9E838D8378876F835A8749872B87E0
:101FF00019820FB6F8940F92ED81FE81928DED81DA
:10200000FE81838D9817D8F48D819E812F8138852C
:10201000B9014B850E942212ED81FE8181898823BE
:1020200049F08D819E8141960E943718813011F4CC
:102030000E942B0E0F900FBE81E08C875CC08985BB
:102040009A85009721F40F900FBE1C8654C0898199
:10205000882331F4CE0102960E949F1881E0898383
:102060000F900FBE0E94FB150FB6F8940F92ED81F2
:10207000FE81858D8F3F19F4ED81FE81158EED81F6
:10208000FE81868D8F3F19F4ED81FE81168E0F90B3
:102090000FBECE0102969E01275F3F4FB9010E94FD
:1020A000B818882309F58D819E810E9486138823A4
:1020B000A1F08D819E81089629853A85B9010E94FB
:1020C00001188D819E810E94FF120E9407168823AD
:1020D00009F08FCF0E942B0E8CCF8D819E810E94A4
:1020E000FF120E94071685CF8D819E810E94FF12EC
:1020F0000E9407161C868C852C960FB6F894DEBFBE
:102100000FBECDBFCF91DF910895DF93CF93CDB7B1
:10211000DEB729970FB6F894DEBF0FBECDBF9C8304
:102120008B837E836D8358874F8329871982EB8148
:10213000FC81928DEB81FC81838D981740F58B811A
:102140009C812D813E81B90149850E942212EB813B
:10215000FC81868D8F3F89F4EB81FC818189882306
:1021600099F08B819C8141960E943718882361F0F9
:10217000EF81F88581E0808307C0EB81FC81868D4B
:102180008F5FEB81FC81868F81E08A8301C01A8298
:102190008A8129960FB6F894DEBF0FBECDBFCF91CE
:1021A000DF910895DF93CF93CDB7DEB72E970FB6AB
:1021B000F894DEBF0FBECDBF98878F837A8769877B
:1021C0005C874B872D871B820FB6F8940F92EF81A7
:1021D000F885828D882309F43FC0EF81F8858681D8
:1021E00097819A8389838F81988529853A85B9015A
:1021F0000E94B7128D858823B1F4EF81F885828D16
:102200008150EF81F885828FEF81F8858085882362
:10221000F1F08F81988508960E9437188130B9F4C3
:102220000E942B0E14C0EF81F88589819A819783D3
:102230008683EF81F8858189882349F08F8198858D
:1022400041960E943718882311F00E942B0E0F90A0
:102250000FBE81E08E875CC08B859C85009721F442
:102260000F900FBE1E8654C08B81882331F4CE019F
:1022700004960E949F1881E08B830F900FBE0E94EE
:10228000FB150FB6F8940F92EF81F885858D8F3F7F
:1022900019F4EF81F885158EEF81F885868D8F3FD3
:1022A00019F4EF81F885168E0F900FBECE010496BB
:1022B0009E01255F3F4FB9010E94B818882309F598
:1022C0008F8198850E9453138823A1F08F81988570
:1022D00041962B853C85B9010E9401188F81988514
:1022E0000E94FF120E940716882309F06DCF0E94FA
:1022F0002B0E6ACF8F8198850E94FF120E940716CD
:1023000063CF8F8198850E94FF120E9407161E8658
:102310008E852E960FB6F894DEBF0FBECDBFCF913F
:10232000DF910895DF93CF93CDB7DEB728970FB62F
:10233000F894DEBF0FBECDBF9C838B837E836D83FD
:1023400058874F831982EB81FC81828D882371F13C
:102350008B819C812D813E81B9010E94B712EB8156
:10236000FC81828D8150EB81FC81828FEB81FC812D
:10237000858D8F3F89F4EB81FC818085882399F0DE
:102380008B819C8108960E943718882361F0EF8129
:10239000F88581E0808307C0EB81FC81858D8F5FAC
:1023A000EB81FC81858F81E08A8301C01A828A815A
:1023B00028960FB6F894DEBF0FBECDBFCF91DF9148
:1023C0000895DF93CF9300D00F92CDB7DEB79B83F4
:1023D0008A830FB6F8940F92EA81FB81828D8983FC
:1023E0000F900FBE89810F900F900F90CF91DF91CA
:1023F0000895DF93CF9300D00F92CDB7DEB79B83C4
:102400008A83EA81FB81828D898389810F900F9075
:102410000F90CF91DF910895DF93CF9300D0CDB788
:10242000DEB79A838983E981FA81808191810E9454
:10243000890A89819A810E94890A0F900F90CF9111
:10244000DF910895DF93CF9300D000D00F92CDB7E6
:10245000DEB79A8389837C836B834D83E981FA811C
:10246000848D882309F474C08D81882399F5E981CE
:10247000FA8164817581E981FA81848D482F50E069
:102480002B813C81CB01B9010E94AA1AE981FA8112
:1024900024813581E981FA81848D882F90E0820F33
:1024A000931FE981FA8195838483E981FA812481EC
:1024B0003581E981FA81828193812817390708F4EF
:1024C00047C0E981FA8180819181E981FA81958310
:1024D00084833EC0E981FA8166817781E981FA814E
:1024E000848D482F50E02B813C81CB01B9010E94A3
:1024F000AA1AE981FA8126813781E981FA81848DDE
:10250000882F90E0909581959F4F820F931FE981CE
:10251000FA8197838683E981FA8126813781E9816F
:10252000FA81808191812817390790F4E981FA8135
:1025300022813381E981FA81848D882F90E0909502
:1025400081959F4F820F931FE981FA81978386833C
:10255000E981FA81828D8F5FE981FA81828F0F9004
:102560000F900F900F900F90CF91DF910895DF9310
:10257000CF9300D000D0CDB7DEB79A8389837C8318
:102580006B83E981FA8180819181009789F1E981EA
:10259000FA8126813781E981FA81848D882F90E044
:1025A000820F931FE981FA8197838683E981FA81FB
:1025B00026813781E981FA81828193812817390741
:1025C00040F0E981FA8180819181E981FA819783E4
:1025D0008683E981FA8146815781E981FA81848D78
:1025E000282F30E08B819C81BA01A9010E94AA1A90
:1025F0000F900F900F900F90CF91DF910895DF9380
:10260000CF9300D0CDB7DEB79A8389830FB6F89405
:102610000F9215C0E981FA8181898823A9F0898107
:102620009A8141960E943718882311F00E9415194B
:10263000E981FA81868D8150E981FA81868FE9816D
:10264000FA81868D181634F3E981FA818FEF868F2F
:102650000F900FBE0FB6F8940F9215C0E981FA8162
:1026600080858823A9F089819A8108960E9437186D
:10267000882311F00E941519E981FA81858D815016
:10268000E981FA81858FE981FA81858D181634F305
:10269000E981FA818FEF858F0F900FBE0F900F9019
:1026A000CF91DF910895DF93CF9300D00F92CDB7F4
:1026B000DEB79B838A830FB6F8940F92EA81FB8181
:1026C000828D1982882311F481E089830F900FBED7
:1026D00089810F900F900F90CF91DF910895DF9334
:1026E000CF9300D00F92CDB7DEB79B838A83EA8168
:1026F000FB81828D1982882311F481E0898389818D
:102700000F900F900F90CF91DF910895DF93CF93AB
:1027100000D00F92CDB7DEB79B838A830FB6F894B3
:102720000F92EA81FB81928DEA81FB81838D198270
:10273000981711F481E089830F900FBE89810F9063
:102740000F900F90CF91DF910895DF93CF9300D03A
:102750000F92CDB7DEB79B838A83EA81FB81928D8E
:10276000EA81FB81838D1982981711F481E08983B6
:1027700089810F900F900F90CF91DF910895AF92C4
:10278000BF92CF92DF92EF92FF920F931F93DF934E
:10279000CF93CDB7DEB764970FB6F894DEBF0FBE08
:1027A000CDBF9F838E83798768875B874A873D8704
:1027B0002C870E87F88AEF86DA8AC98ABC8AAB8AA8
:1027C0008A859B8529893A89B9010E94441A9C838C
:1027D0008B838B819C81009709F499C0EB81FC81EC
:1027E0002789308D8A859B850197820F931F9A8355
:1027F00089838B819C8128853985EB89FC89AA8511
:10280000BB85B9014E859F018D010E9429198981DF
:102810009A812E813F814C855D85B9010E946C0CA7
:10282000EB81FC81918380838F859889009731F0BB
:10283000EF85F8898B819C81918380830FB6F89412
:102840000F928091FF028F5F8093FF028091FC02C4
:102850009091FD02009769F48B819C819093FD0219
:102860008093FC028091FF028130A9F40E948019BC
:1028700012C080910403882371F4E091FC02F0916E
:10288000FD0296898E85891730F08B819C8190930B
:10289000FD028093FC02EB81FC819689809102030A
:1028A000891728F4EB81FC8186898093020380914B
:1028B00009038F5F80930903EB81FC8196898091E6
:1028C0000303891728F4EB81FC8186898093030335
:1028D000EB81FC818689282F30E0C901880F991F80
:1028E000880F991F880F991F820F931FAC01465FB5
:1028F0005C4F8B819C819C012E5F3F4FCA01B901C7
:102900000E94E90A81E08D830F900FBE02C08FEF15
:102910008D838D81813071F480910403882351F07F
:10292000E091FC02F091FD0296898E85981710F4D3
:102930000E942B0E8D8164960FB6F894DEBF0FBEF9
:10294000CDBFCF91DF911F910F91FF90EF90DF905E
:10295000CF90BF90AF900895DF93CF9300D000D079
:1029600000D0CDB7DEB79C838B830FB6F8940F925F
:102970002091FC023091FD028B819C81821793078C
:1029800011F41C821B828B819C81009739F4809109
:10299000FC029091FD029E838D8304C08B819C81FB
:1029A0009E838D838D819E819A83898389819A817B
:1029B00002960E94A10BE981FA818489958900978A
:1029C00029F089819A810C960E94A10B89819A81B4
:1029D0009C012E5F3F4F8AE793E0B9010E94E90A0C
:1029E0008091FE028F5F8093FE02809109038F5FCA
:1029F000809309030F900FBE80910403882331F068
:102A00008B819C81009711F40E942B0E26960FB6A5
:102A1000F894DEBF0FBECDBFCF91DF910895DF9355
:102A2000CF93CDB7DEB728970FB6F894DEBF0FBEB1
:102A3000CDBF9E838D8378876F8319820E94FB159B
:102A4000ED81FE81208131818F819885820F931FD6
:102A50009C838B83ED81FE812081318180910003F5
:102A60009091010382179307A8F4ED81FE812081E4
:102A700031818B819C818217930700F5209100039F
:102A8000309101038B819C8128173907B8F481E0CC
:102A9000898314C0ED81FE81208131818B819C81ED
:102AA0008217930748F020910003309101038B8136
:102AB0009C812817390710F481E08983ED81FE811C
:102AC0008B819C81918380838981882359F08091B7
:102AD000FC029091FD0202960E94A10B8B819C81C9
:102AE0000E94FB190E9407168A838A81882311F4A9
:102AF0000E942B0E28960FB6F894DEBF0FBECDBFF6
:102B0000CF91DF910895DF93CF9300D000D00F9243
:102B1000CDB7DEB79D838C8319828C819D81009710
:102B2000D1F00E94FB1520910003309101038C81AC
:102B30009D81820F931F9B838A838091FC029091D9
:102B4000FD0202960E94A10B8A819B810E94FB19C3
:102B50000E94071689838981882311F40E942B0E15
:102B60000F900F900F900F900F90CF91DF910895DD
:102B7000AF92BF92CF92DF92EF92FF920F93DF93CB
:102B8000CF930F92CDB7DEB720E630E08FE199E129
:102B9000B90145E550E020E030E000E0EE24FF24FC
:102BA000CC24DD24AA24BB240E94BF1389838981FD
:102BB000813051F4F89481E0809304031092010372
:102BC000109200030E94EF0D0F90CF91DF910F91B3
:102BD000FF90EF90DF90CF90BF90AF900895DF937C
:102BE000CF93CDB7DEB7F894109204030E94240E61
:102BF000CF91DF910895DF93CF93CDB7DEB780916A
:102C000005038F5F80930503CF91DF910895DF93D4
:102C1000CF9300D000D0CDB7DEB71A820FB6F894AC
:102C20000F928091050381508093050380910503E5
:102C3000882309F06CC08091FF02882309F467C0E3
:102C4000198241C0E0917603F091770386819781E4
:102C50009C838B838B819C810C960E94A10B8B8122
:102C60009C8102960E94A10BEB81FC819689809148
:102C70000303891728F4EB81FC8186898093030381
:102C8000EB81FC818689282F30E0C901880F991FCC
:102C9000880F991F880F991F820F931F865F9C4F83
:102CA0002B813C812E5F3F4FB9010E94E90AEB81E5
:102CB000FC819689E091FC02F091FD0286899817CB
:102CC00010F081E0898380917103882309F0BACFE5
:102CD00080910603882371F007C00E94C616809178
:102CE0000603815080930603809106038823A9F789
:102CF00081E089838981813021F0809107038130CF
:102D000031F481E08A83109207030E942B0E0F900A
:102D10000FBE8A810F900F900F900F90CF91DF918F
:102D20000895DF93CF9300D0CDB7DEB70FB6F894F8
:102D30000F9280910003909101039A8389830F90F1
:102D40000FBE89819A810F900F90CF91DF910895E6
:102D5000DF93CF9300D00F92CDB7DEB71982809169
:102D60000003909101039B838A838A819B810F904A
:102D70000F900F90CF91DF910895DF93CF93CDB750
:102D8000DEB78091FF02CF91DF910895DF93CF935B
:102D900000D000D000D0CDB7DEB7809105038823E6
:102DA00009F0BBC0809100039091010301969093BC
:102DB0000103809300038091000390910103009729
:102DC000D1F580916D0390916E039C838B838091EC
:102DD0006F039091700390936E0380936D038B81CA
:102DE0009C819093700380936F03809108038F5FA1
:102DF00080930803E0916D03F0916E038081882336
:102E000039F48FEF9FEF909366008093650013C0B5
:102E1000E0916D03F0916E030580F681E02D8681CF
:102E200097819E838D83ED81FE8182819381909332
:102E3000660080936500209100033091010380912A
:102E40006500909166002817390708F46BC0E0917F
:102E50006D03F0916E038081882339F48FEF9FEF2B
:102E600090936600809365005DC0E0916D03F091E2
:102E70006E030580F681E02D868197819E838D8388
:102E8000ED81FE81828193819A8389832091000361
:102E90003091010389819A812817390738F4898193
:102EA0009A8190936600809365003CC08D819E81DD
:102EB00002960E94A10BED81FE818489958900977D
:102EC00029F08D819E810C960E94A10BED81FE81DF
:102ED000968980910303891728F4ED81FE81868904
:102EE00080930303ED81FE818689282F30E0C9019C
:102EF000880F991F880F991F880F991F820F931FA2
:102F0000AC01465F5C4F8D819E819C012E5F3F4FDF
:102F1000CA01B9010E94E90A9ACF809106038F5F26
:102F20008093060326960FB6F894DEBF0FBECDBF82
:102F3000CF91DF910895DF93CF9300D0CDB7DEB767
:102F400080910503882349F081E08093070354C0F2
:102F50008091030381508093030380910303282F02
:102F600030E0C901880F991F880F991F880F991F9A
:102F7000820F931FFC01E65FFC4F8081882341F3A1
:102F800080910303282F30E0C901880F991F880F13
:102F9000991F880F991F820F931F865F9C4F9A83FA
:102FA0008983E981FA810180F281E02D8281938118
:102FB000E981FA8192838183E981FA8121813281D9
:102FC00089819A8103962817390759F4E981FA8192
:102FD0000180F281E02D82819381E981FA819283DF
:102FE0008183E981FA810180F281E02D86819781D8
:102FF0009093FD028093FC020F900F90CF91DF9190
:103000000895DF93CF9300D000D000D0CDB7DEB7C6
:103010009C838B837E836D834B815C818091FC02DA
:103020009091FD029C01245F3F4FCA01B9010E94AB
:10303000350B8091FC029091FD0202960E94A10B3B
:1030400020910003309101038D819E81820F931F97
:103050009A83898389819A810E94FB1926960FB6EB
:10306000F894DEBF0FBECDBFCF91DF910895DF93FF
:10307000CF9300D000D00F92CDB7DEB79D838C8365
:10308000EC81FD810580F681E02D868197819B830F
:103090008A838A819B810C960E94A10B80910503F3
:1030A000882361F58A819B8102960E94A10BEA81A7
:1030B000FB81968980910303891728F4EA81FB81BB
:1030C000868980930303EA81FB818689282F30E07B
:1030D000C901880F991F880F991F880F991F820FA8
:1030E000931FAC01465F5C4F8A819B819C012E5FE0
:1030F0003F4FCA01B9010E94E90A0AC08A819B8137
:103100009C01245F3F4F81E793E0B9010E94E90AE7
:10311000EA81FB819689E091FC02F091FD028689AB
:10312000981718F081E0898301C0198289810F9076
:103130000F900F900F900F90CF91DF910895DF9334
:10314000CF9300D0CDB7DEB79A83898380910803EF
:10315000E981FA8180838091000390910103E981E4
:10316000FA81928381830F900F90CF91DF91089520
:10317000DF93CF9300D000D00F92CDB7DEB79B8303
:103180008A837D836C830FB6F8940F92EA81FB816A
:10319000908180910803981771F0EA81FB81218169
:1031A000328180910003909101038217930718F0F8
:1031B00081E089832FC02091000330910103EA81CF
:1031C000FB8181819281281B390BEC81FD818081FB
:1031D000918128173907E0F4EC81FD81408151810C
:1031E000EA81FB812181328180910003909101036A
:1031F000B901681B790BCB01840F951FEC81FD8110
:10320000918380838A819B810E949F18198202C0CA
:1032100081E089830F900FBE89810F900F900F90EE
:103220000F900F90CF91DF910895DF93CF93CDB79B
:10323000DEB781E080930703CF91DF910895DF939C
:10324000CF9300D0CDB7DEB79A8389830E94BD1992
:10325000FDCF0F931F93DF93CF93CDB7DEB72997A1
:103260000FB6F894DEBF0FBECDBF9A8389837C83EF
:103270006B834D833F832E831987088789819A81C9
:1032800049962B813C81B90148E050E00E94BA1A6E
:10329000E981FA8110A28D81893010F088E08D8358
:1032A000E981FA818D81868B89819A8102960E94BB
:1032B000D90A89819A810C960E94D90AE981FA81FA
:1032C00089819A81918780878D81282F30E089E0DC
:1032D00090E0821B930BE981FA8195878487E981CD
:1032E000FA8189819A81938B828B29960FB6F89403
:1032F000DEBF0FBECDBFCF91DF911F910F9108951B
:10330000DF93CF930F92CDB7DEB7198213C08981B7
:10331000282F30E0C901880F991F880F991F880F47
:10332000991F820F931F865F9C4F0E94AF0A89816D
:103330008F5F89838981893050F38BE593E00E9408
:10334000AF0A84E693E00E94AF0A81E793E00E940F
:10335000AF0A8AE793E00E94AF0A8BE593E090936F
:103360006E0380936D0384E693E0909370038093E3
:103370006F030F90CF91DF910895DF93CF9300D02B
:103380000F92CDB7DEB78091FE02882371F10E94C3
:10339000FB1580917A031B82882311F481E08B83D3
:1033A0000E9407168B81882301F50FB6F8940F92BF
:1033B000E0917F03F0918003868197819A838983CE
:1033C00089819A8102960E94A10B8091FF0281500F
:1033D0008093FF028091FE0281508093FE020F9045
:1033E0000FBE89819A810E94941A0F900F900F90BE
:1033F000CF91DF910895DF93CF9300D0CDB7DEB7A3
:103400009A838983E091FC02F091FD0289819A817F
:1034100093838283209100033091010389819A81F3
:103420008217930770F480916F039091700320913D
:10343000FC023091FD022E5F3F4FB9010E94350B17
:103440001EC040916D0350916E038091FC029091DB
:10345000FD029C012E5F3F4FCA01B9010E94350B4E
:10346000209165003091660089819A8182179307C7
:1034700030F489819A8190936600809365000F9063
:103480000F90CF91DF910895DF93CF93CDB7DEB743
:1034900028970FB6F894DEBF0FBECDBF9C838B83F9
:1034A0007E836D8381E290E00E94430A9A83898340
:1034B00089819A81009769F18D819E81009739F405
:1034C0008B819C810E94430A98878F8304C08D81E1
:1034D0009E8198878F83E981FA818F819885908F6B
:1034E000878BE981FA818789908D009739F48981EA
:1034F0009A810E94890A1A8219820BC0E981FA8195
:103500008789908D2B813C8165EA70E0A9010E943A
:10351000B31A89819A8128960FB6F894DEBF0FBE40
:10352000CDBFCF91DF910895DF93CF9300D0CDB77A
:10353000DEB79A838983E981FA818789908D0E9419
:10354000890A89819A810E94890A0F900F90CF91F0
:10355000DF910895FB01DC0102C001900D92415002
:103560005040D8F70895DC0101C06D9341505040A0
:10357000E0F70895FB01DC014150504048F0019014
:103580000D920020C9F701C01D9241505040E0F754
:063590000895F894FFCF3E
:0835960049444C4500FFFF0011
:00000001FF
