:100000000C942A000C9447000C9447000C94470071
:100010000C9447000C9447000C9447000C94470044
:100020000C9447000C9447000C9447000C94470034
:100030000C9447000C9447000C9447000C94470024
:100040000C9447000C9447000C9447000C94470014
:100050000C94470011241FBECFE5D8E0DEBFCDBF12
:1000600011E0A0E6B0E0E0E2FDE502C005900D92EF
:10007000AC3DB107D9F713E0ACEDB1E001C01D9282
:10008000A030B107E1F70E94112E0C948E2E0C9433
:100090000000EF92FF920F93DF93CF93CDB7DEB7BF
:1000A00060970FB6F894DEBF0FBECDBFA82F002318
:1000B00009F461C07E010894E11CF11C88E0F7019D
:1000C00011928A95E9F729833A834B835C836D8388
:1000D0007E83AF83988780E2801BE82FFF27E7FDB0
:1000E000F09549815A816B817C81181684F01986BC
:1000F0001A861B861C86882799278E1B9F0B04C097
:10010000440F551F661F771F8A95D2F728C0202FEE
:10011000332727FD3095DB01CA01022E04C0880F6A
:10012000991FAA1FBB1F0A94D2F789879A87AB87AA
:10013000BC8704C07695679557954795EA95D2F7A1
:100140008D819E81AF81B88504C0880F991FAA1F39
:10015000BB1F2A95D2F7482B592B6A2B7B2B4D8737
:100160005E876F87788B29853A854B855C856D85A1
:100170007E85AF8598898A2F60960FB6F894DEBF8A
:100180000FBECDBFCF91DF910F91FF90EF900895FB
:10019000A0E0B0E0EEECF0E00C94572E7B018C0177
:1001A00020E030E040E85FE30E94051288234CF431
:1001B000AA24BB24CC24DD24EE24FF2400E010E09C
:1001C00086C0C801B70120E030E040E85FE40E944B
:1001D0000512882354F4C801B7010E94AF135B01D4
:1001E0006C01EE24FF24870172C0C801B70120E032
:1001F00030E040E85FE50E94051287FD0FC0AA24A9
:10020000AA94BB24BA94CC24CA94DD24DA94EE24B4
:10021000EA94FF24FA940FEF1FEF59C0C801B70109
:1002200020E030E040E85FE20E94FF0F7B018C019C
:1002300022243324210190E1A92EB12CC12CD12CF0
:10024000C0E0D0E061E070E080E090E00A2C04C003
:10025000660F771F881F991F0A94D2F70E94E71232
:100260003B014C01C801B701A40193010E94D511C3
:10027000882364F02A283B284C285D28C801B70150
:10028000A40193010E94F9107B018C01D694C794BC
:10029000B794A7942196C530D105A1F6C801B7013E
:1002A00020E030E040E85FE40E94FF0F0E94AF13BF
:1002B0005B016C019B01A60160E070E080E090E0D2
:1002C000022D0E94490059016A017B018C019501B0
:1002D000A601B701C801CDB7DEB7E2E10C94732ED9
:1002E000AEE5B0E0E6E7F1E00C94572EA8E04E0151
:1002F0000894811C911CF4016A2E11926A94E9F70A
:1003000029833A834B835C836D837E838F839887B5
:10031000CE010996FC011192AA95E9F7A986BA8641
:10032000CB86DC86ED86FE860F87188B29843A847F
:100330004B845C84ED84FE840F85188969807A8003
:100340008B809C806DA67EA68FA698AA6D807E80ED
:100350008F809884E114F1040105110509F0B3C3FD
:10036000621473048404950408F03DC100E0201673
:1003700000E0300601E0400600E0500688F41FEF80
:10038000211631044104510439F030F048E0E42EE4
:10039000F12C012D112D18C0EE24FF24870114C06B
:1003A00020E0221620E0320620E0420621E052063C
:1003B00030F038E1E32EF12C012D112D05C020E1A4
:1003C000E22EF12C012D112DD201C1010E2C04C001
:1003D000B695A795979587950A94D2F784579F4F1E
:1003E000DC012C9180E290E0A0E0B0E08E199F0942
:1003F000A00BB10B7C018D01E21AF1080109110972
:10040000E114F10401051105A1F10E2C04C0220C28
:10041000331C441C551C0A94D2F7A40193010E2CE2
:1004200004C0220F331F441F551F0A94D2F780E2E5
:1004300090E08E199F096DA47EA48FA498A804C093
:1004400096948794779467948A95D2F7622A732A50
:10045000842A952AADA4BEA4CFA4D8A804C0AA0C0F
:10046000BB1CCC1CDD1CEA94D2F7ADA6BEA6CFA661
:10047000D8AA6201EE24FF24CDAADEAAEFAAF8AE24
:10048000920181012070307009AF1AAF2BAF3CAFE1
:10049000C401B301A70196010E94352E7B018C0196
:1004A000C401B3012DA93EA94FA958AD0E94352E14
:1004B000C901DA013C014D01C401B30129AD3AADD6
:1004C0004BAD5CAD0E94162E9B01AC018701FF2451
:1004D000EE24ADA4BEA4CFA4D8A8C601AA27BB27EA
:1004E00057016801A82AB92ACA2ADB2AA216B3062C
:1004F000C406D506E0F408946108710881089108E3
:10050000A20CB31CC41CD51CA214B304C404D5048F
:1005100070F0A216B306C406D50648F40894610824
:10052000710881089108A20CB31CC41CD51CA21A26
:10053000B30AC40AD50AC601B5012DA93EA94FA91F
:1005400058AD0E94352E7B018C01C601B5012DA945
:100550003EA94FA958AD0E94352EC901DA015C01B0
:100560006D01C601B50129AD3AAD4BAD5CAD0E9440
:10057000162E9B01AC018701FF24EE248DA59EA5BC
:10058000AFA5B8A9A070B070E82AF92A0A2B1B2BD6
:10059000E216F30604071507C0F40894A108B10891
:1005A000C108D108E20CF31C041D151DE214F3046C
:1005B0000405150550F0E216F3060407150728F4A4
:1005C0000894A108B108C108D108D3019927882748
:1005D00086017501E82AF92A0A2B1B2BE9AAFAAA37
:1005E0000BAB1CABCFC4211431044104510471F492
:1005F00061E070E080E090E020E030E040E050E03A
:100600000E94352EC901DA011C012D0100E02016DF
:1006100000E0300601E0400600E0500688F41FEFDD
:10062000211631044104510431F028F048E050E033
:1006300060E070E017C040E050E060E070E012C0A1
:1006400020E0221620E0320620E0420621E0520699
:1006500028F048E150E060E070E004C040E150E084
:1006600060E070E0D201C101042E04C0B695A795E8
:10067000979587950A94D2F784579F4FDC012C9168
:10068000E0E2EE2EF12C012D112DD801C701841BC3
:10069000950BA60BB70B821B9109A109B109009715
:1006A000A105B10561F464015301A218B308C4089F
:1006B000D50831E0632E712C812C912C1EC16F96D0
:1006C0008FAF6F97082E04C0220C331C441C551C9E
:1006D0000A94D2F7EE2DE81B640153010E2E04C0DC
:1006E000D694C794B794A7940A94D2F7A40193011F
:1006F0006F960FAC6F9704C0220F331F441F551F16
:100700000A94D2F76DA47EA48FA498A80E2E04C0DC
:1007100096948794779467940A94D2F7840173012E
:10072000E22AF32A042B152BE9A6FAA60BA71CA78D
:100730003201882499249201810120703070219621
:100740000CAF1DAF2EAF3FAF2197C601B501A4017D
:1007500093010E94352E7B018C01C601B501A401D5
:1007600093010E94352EC901DA0125968CAF9DAF09
:10077000AEAFBFAF2597BC01CD0121962CAD3DADED
:100780004EAD5FAD21970E94162E9B01AC018701F3
:10079000FF24EE24A9A4BAA4CBA4DCA4C601AA27F2
:1007A000BB275C016D01AE28BF28C02AD12AA21642
:1007B000B306C406D50660F525966CAD7DAD8EAD4D
:1007C0009FAD2597615070408040904025966CAF5A
:1007D0007DAF8EAF9FAF2597A20CB31CC41CD51C58
:1007E000A214B304C404D50498F0A216B306C40638
:1007F000D50670F4615070408040904025966CAFF3
:100800007DAF8EAF9FAF2597A20CB31CC41CD51C27
:10081000A21AB30AC40AD50AC601B501A4019301FC
:100820000E94352E7B018C01C601B501A401930104
:100830000E94352EC901DA013C014D01C401B3010A
:1008400021962CAD3DAD4EAD5FAD21970E94162E89
:100850009B01AC018701FF24EE2489A59AA5ABA5D5
:10086000BCA5A070B07057016801A82AB92ACA2A8D
:10087000DB2AA216B306C406D506E0F40894610884
:10088000710881089108A20CB31CC41CD51CA214C9
:10089000B304C404D50470F0A216B306C406D5068A
:1008A00048F408946108710881089108A20CB31CEF
:1008B000C41CD51C8DA59EA5AFA5B8A96F960FAC7D
:1008C0006F9704C0880F991FAA1FBB1F0A94D2F705
:1008D0008DA79EA7AFA7B8ABA21AB30AC40AD50AC0
:1008E0002596ECACFDAC0EAD1FAD2597D701992731
:1008F0008827682A792A8A2A9B2A82012227332775
:1009000029960CAF1DAF2EAF3FAF2997A2019101E1
:10091000407050702D962CAF3DAF4EAF5FAF2D970E
:10092000C601B50129962CAD3DAD4EAD5FAD299701
:100930000E94352E7B018C01C601B50129962CAD94
:100940003DAD4EAD5FAD29970E94352EC901DA014C
:1009500061968CAF9DAFAEAFBFAF6197BC01CD01CB
:100960002D962CAD3DAD4EAD5FAD2D970E94162E50
:100970009B01AC018701FF24EE24ADA4BEA4CFA44B
:10098000D8A8C601AA27BB2757016801A82AB92AF7
:10099000CA2ADB2AA216B306C406D50660F56196FC
:1009A0006CAD7DAD8EAD9FAD619761507040804064
:1009B000904061966CAF7DAF8EAF9FAF6197A20CF8
:1009C000B31CC41CD51CA214B304C404D50498F0F1
:1009D000A216B306C406D50670F46150704080407C
:1009E000904061966CAF7DAF8EAF9FAF6197A20CC8
:1009F000B31CC41CD51CA21AB30AC40AD50AC6016A
:100A0000B50129962CAD3DAD4EAD5FAD29970E9445
:100A1000352E7B018C01C601B50129962CAD3DAD6B
:100A20004EAD5FAD29970E94352EC901DA015C01F8
:100A30006D01C601B5012D962CAD3DAD4EAD5FAD3E
:100A40002D970E94162E9B01AC018701FF24EE24F6
:100A50008DA59EA5AFA5B8A9A070B070E82AF92A07
:100A60000A2B1B2BE216F30604071507C0F40894A3
:100A7000A108B108C108D108E20CF31C041D151D22
:100A8000E214F3040405150550F0E216F30604071A
:100A9000150728F40894A108B108C108D108619687
:100AA000ECACFDAC0EAD1FAD6197D701992788273F
:100AB00096018501082B192B2A2B3B2B09AB1AAB6E
:100AC0002BAB3CAB62C26E147F048006910608F427
:100AD00051C220E0E21620E0F20621E0020720E009
:100AE000120788F43FEFE316F1040105110531F018
:100AF00028F048E050E060E070E017C040E050E0CF
:100B000060E070E012C040E0E41640E0F40640E02F
:100B1000040741E0140728F048E150E060E070E08D
:100B200004C040E150E060E070E0D801C701042E4D
:100B300004C0B695A795979587950A94D2F78457E0
:100B40009F4FDC012C9130E2A32EB12CC12CD12C73
:100B5000D601C501841B950BA60BB70B821B91090F
:100B6000A109B1090097A105B10589F4E614F704BC
:100B70000805190508F4F2C16DA47EA48FA498A8F5
:100B8000621473048404950408F0E8C1F3C16E96FE
:100B90008FAF6E97082E04C0EE0CFF1C001F111FB4
:100BA0000A94D2F76A2D681BD201C101062E04C037
:100BB000B695A795979587950A94D2F75C016D0134
:100BC000AE28BF28C02AD12AADA2BEA2CFA2D8A6E5
:100BD000720161016E960FAC6E9704C0CC0CDD1CE7
:100BE000EE1CFF1C0A94D2F7C9A2DAA2EBA2FCA267
:100BF00064015301062E04C0D694C794B794A794F9
:100C00000A94D2F7D401C3016E960FAC6E9704C05C
:100C1000880F991FAA1FBB1F0A94D2F7EDA4FEA448
:100C20000FA518A904C016950795F794E7946A953F
:100C3000D2F737014801682A792A8A2A9B2A6D8EC1
:100C40007E8E8F8E98A2EDA0FEA00FA118A5380170
:100C500088249924980187012070307065960CAF24
:100C60001DAF2EAF3FAF6597C601B501A40193013B
:100C70000E94352E7B018C01C601B501A4019301B0
:100C80000E94352EC901DA011C012D01C201B101FA
:100C900065962CAD3DAD4EAD5FAD65970E94162EAD
:100CA0009B01AC018701FF24EE24AD8CBE8CCF8C60
:100CB000D8A0C601AA27BB2757016801A82AB92ACC
:100CC000CA2ADB2AA216B306C406D50600F5089484
:100CD0002108310841085108EDA0FEA00FA118A578
:100CE000AE0CBF1CC01ED11EAE14BF04C006D10680
:100CF00070F0A216B306C406D50648F4089421087D
:100D0000310841085108AE0CBF1CC01ED11EA21AEA
:100D1000B30AC40AD50AC601B501A40193010E9411
:100D2000352E7B018C01C601B501A40193010E94FF
:100D3000352EC901DA013C014D01C401B3016596AC
:100D40002CAD3DAD4EAD5FAD65970E94162E9B015B
:100D5000AC018701FF24EE248D8D9E8DAF8DB8A14F
:100D6000A070B07057016801A82AB92ACA2ADB2AE4
:100D7000A216B306C406D50600F5089461087108EA
:100D8000810891086DA17EA18FA198A5A60EB71E1E
:100D9000C81ED91EA616B706C806D90670F0A21638
:100DA000B306C406D50648F40894610871088108A2
:100DB0009108A60EB71EC81ED91ED601C501821BFA
:100DC000930BA40BB50B898F9A8FAB8FBC8FD1017E
:100DD0009927882764015301A82AB92ACA2ADB2A3D
:100DE000A9AABAAACBAADCAA860175012FEF3FEF08
:100DF00040E050E0E222F32204231523A6016627F7
:100E000077276D964CAF5DAF6EAF7FAF6D97A9A0A2
:100E1000BAA0CBA0DCA06FEF7FEF80E090E0A6222D
:100E2000B722C822D92289A19AA1ABA1BCA11D01D8
:100E300044245524C801B701A60195010E94162E2D
:100E400069966CAF7DAF8EAF9FAF6997C801B70150
:100E5000A20191010E94162E3B014C016D966CADD2
:100E60007DAD8EAD9FAD6D97A60195010E94162EAA
:100E70007B018C016D966CAD7DAD8EAD9FAD6D9798
:100E8000A20191010E94162E5B016C01A80197013D
:100E9000260D371D481D591D69966CAC7DAC8EAC76
:100EA0009FAC6997C401AA27BB27280F391F4A1F87
:100EB0005B1F2E153F054007510748F4E12CF12C2C
:100EC00061E0062F112DAE0CBF1CC01ED11ECA0141
:100ED000AA27BB27BC01CD016A0D7B1D8C1D9D1D62
:100EE000698C7A8C8B8C9C8C6616770688069906A2
:100EF00040F1661577058805990509F043C0D901C9
:100F00009927882769962CAD3DAD4EAD5FAD6997A9
:100F100040705070820F931FA41FB51F2DA53EA5D2
:100F20004FA558A96E960FAC6E9704C0220F331FC1
:100F3000441F551F0A94D2F7281739074A075B0741
:100F400008F509A91AA92BA93CA901501040204075
:100F5000304009AB1AAB2BAB3CAB14C066247724F2
:100F6000430121E030E040E050E029AB3AAB4BAB2D
:100F70005CAB0BC066247724430119AA1AAA1BAAEA
:100F80001CAA03C0662477244301FE01719688E001
:100F9000DF011D928A95E9F7A9A8BAA8CBA8DCA819
:100FA000A98ABA8ACB8ADC8A6D8A7E8A8F8A988ED1
:100FB00029A93A894B895C89662D7E898F89988D0C
:100FC000C25ADF4FE2E10C94732EABE5B0E0EBEEDA
:100FD000F7E00C94572EA8E04E010894811C911C58
:100FE000F4016A2E11926A94E9F729833A834B83BC
:100FF0005C836D837E838F839887CE010996FC0185
:101000001192AA95E9F7A986BA86CB86DC86ED8689
:10101000FE860F87188B29843A844B845C84AD84C8
:10102000BE84CF84D88829813A814B815C816996BE
:101030002FAF69976A963FAF6A976B964FAF6B97E2
:101040006C965FAF6C976C966CAC7DAC8EAC9FACC5
:101050006C9769AA7AAA8BAA9CAA6D817E818F81DE
:1010600098853B014C016DAA7EAA8FAA98AEA11467
:10107000B104C104D10409F004C3621473048404EC
:10108000950408F000C100E0201600E0300601E001
:10109000400600E0500688F41FEF21163104410499
:1010A000510439F030F088E0E82EF12C012D112D9B
:1010B00018C0EE24FF24870114C040E0241640E04D
:1010C000340640E0440641E0540630F0B8E1EB2E2F
:1010D000F12C012D112D05C0A0E1EA2EF12C012DDE
:1010E000112DD201C1010E2C04C0B695A79597957C
:1010F00087950A94D2F784579F4FDC012C9180E2A8
:1011000090E0A0E0B0E08E199F09A00BB10B5C014C
:101110006D01A21AB108C108D108A9AEBAAECBAE12
:10112000DCAEA114B104C104D10409F43FC069AD1F
:10113000062E04C0220C331C441C551C0A94D2F702
:10114000A4019301062E04C0220F331F441F551F14
:101150000A94D2F780E290E08A199B096C96CCAC95
:10116000DDACEEACFFAC6C9704C0F694E794D7947A
:10117000C7948A95D2F787017601E22AF32A042BD5
:10118000152BEDAAFEAA0FAB18AF6C968CAD9DADDA
:10119000AEADBFAD6C9704C0880F991FAA1FBB1FCF
:1011A0006A95D2F789AB9AABABABBCAB3201882462
:1011B0009924B201A1016070707021964CAF5DAFAF
:1011C0006EAF7FAF21976DA97EA98FA998ADA401BD
:1011D00093010E94352E7B018C016DA97EA98FA9F8
:1011E00098ADA40193010E94352ECA01B901219640
:1011F0002CAD3DAD4EAD5FAD21970E94162E9B01EB
:10120000AC018701FF24EE24A9A8BAA8CBA8DCA8CA
:10121000C601AA27BB2757016801A82AB92ACA2AEA
:10122000DB2AA216B306C406D50690F4A20CB31CA2
:10123000C41CD51CA214B304C404D50448F0A216DF
:10124000B306C406D50620F4A20CB31CC41CD51CDE
:10125000A21AB30AC40AD50AC601B501A4019301B2
:101260000E94352E7B018C01C601B501A4019301BA
:101270000E94352ECA01B90121962CAD3DAD4EAD6F
:101280005FAD2197BAC1211431044104510471F4B6
:1012900061E070E080E090E020E030E040E050E08D
:1012A0000E94352EC901DA011C012D0100E0201633
:1012B00000E0300601E0400600E0500688F41FEF31
:1012C000211631044104510439F030F068E0E62E73
:1012D000F12C012D112D18C0EE24FF24870114C01C
:1012E00040E0241640E0340640E0440641E0540665
:1012F00030F058E1E52EF12C012D112D05C040E113
:10130000E42EF12C012D112DD201C1010E2C04C0AF
:10131000B695A795979587950A94D2F784579F4FCE
:10132000DC012C9130E2A32EB12CC12CD12CD601A2
:10133000C5018E199F09A00BB10B7C018D01E21A2A
:10134000F10801091109E9AEFAAE0BAF1CAFE114C7
:10135000F1040105110539F464015301A218B30821
:10136000C408D508E2C0F9AC6896FFAE68970F2CA8
:1013700004C0220C331C441C551C0A94D2F78A2D3D
:101380008F1964015301082E04C0D694C794B794F2
:10139000A7940A94D2F7A401930104C0220F331F2B
:1013A000441F551FFA94D2F76C966CAC7DAC8EAC92
:1013B0009FAC6C9704C096948794779467948A95B1
:1013C000D2F784017301E22AF32A042B152BEDA630
:1013D000FEA60FA718AB320188249924B201A101FF
:1013E0006070707025964CAF5DAF6EAF7FAF259784
:1013F000C601B501A40193010E94352E7B018C0129
:10140000C601B501A40193010E94352ECA01B9019C
:1014100025962CAD3DAD4EAD5FAD25970E94162EA5
:101420009B01AC018701FF24EE24ADA4BEA4CFA490
:10143000D8A8C601AA27BB275C016D01AE28BF282A
:10144000C02AD12AA216B306C406D50690F4A20C6F
:10145000B31CC41CD51CA214B304C404D50448F0A6
:10146000A216B306C406D50620F4A20CB31CC41CF5
:10147000D51CA21AB30AC40AD50AC601B501A40133
:1014800093010E94352E7B018C01C601B501A40198
:1014900093010E94352ECA01B90125962CAD3DADB0
:1014A0004EAD5FAD25970E94162E9B01AC018701C2
:1014B000FF24EE248DA59EA5AFA5B8A9A070B0709D
:1014C00057016801A82AB92ACA2ADB2AA216B3063C
:1014D000C406D50690F4A20CB31CC41CD51CA214DF
:1014E000B304C404D50448F0A216B306C406D50656
:1014F00020F4A20CB31CC41CD51C6C96ECACFDAC47
:101500000EAD1FAD6C9768960FAC689704C0EE0CDB
:10151000FF1C001F111F0A94D2F7E9AAFAAA0BAB0D
:101520001CABA21AB30AC40AD50A32018824992432
:10153000B201A1016070707029964CAF5DAF6EAFC3
:101540007FAF2997C601B501A40193010E94352EF2
:101550007B018C01C601B501A40193010E94352EC7
:10156000CA01B90129962CAD3DAD4EAD5FAD2997AD
:101570000E94162E9B01AC018701FF24EE24A9A82E
:10158000BAA8CBA8DCA8C601AA27BB2757016801C7
:10159000A82AB92ACA2ADB2AA216B306C406D50687
:1015A00090F4A20CB31CC41CD51CA214B304C40434
:1015B000D50448F0A216B306C406D50620F4A20C42
:1015C000B31CC41CD51CA21AB30AC40AD50AC6018E
:1015D000B501A40193010E94352E7B018C01C60147
:1015E000B501A40193010E94352ECA01B9012996C3
:1015F0002CAD3DAD4EAD5FAD29970E94162E9B01DF
:10160000AC018701FF24EE2489A99AA9ABA9BCA942
:10161000A070B070E82AF92A0A2B1B2BE216F306F9
:101620000407150790F4E20CF31C041D151DE214C9
:10163000F3040405150548F0E216F3060407150740
:1016400020F4E20CF31C041D151DE21AF30A040B2E
:10165000150BD801C70109AC04C0B695A79597959D
:1016600087950A94D2F7898B9A8BAB8BBC8B1D8A9A
:101670001E8A1F8A188E282F3A894B895C896D89AA
:101680000CC36A147B048C049D0408F409C300E0B5
:10169000A01600E0B00601E0C00600E0D00688F425
:1016A0001FEFA116B104C104D10439F030F028E0D5
:1016B000E22EF12C012D112D18C0EE24FF248701FC
:1016C00014C040E0A41640E0B40640E0C40641E087
:1016D000D40630F098E1E92EF12C012D112D05C032
:1016E00080E1E82EF12C012D112DD601C5010E2C23
:1016F00004C0B695A795979587950A94D2F7845715
:101700009F4FDC012C9180E290E0A0E0B0E08E19C8
:101710009F09A00BB10B821B9109A109B109009788
:10172000A105B10509F04FC0A614B704C804D90437
:1017300058F06C96ECACFDAC0EAD1FAD6C97E2149E
:10174000F3040405150568F16C96ECACFDAC0EAD28
:101750001FAD6C97E218F30804091509A401930161
:101760002A193B094C095D09AA24BB2465016C9622
:101770006CAD7DAD8EAD9FAD6C976E157F0580070E
:10178000910728F4B1E0AB2EB12CC12CD12CDA0199
:10179000C9018A199B09AC09BD098DAB9EABAFABE2
:1017A000B8AFE98AFA8A0B8B1C8B6DA87EA88FA82C
:1017B00098AC6D8A7E8A8F8A988E2E2D3A894B89B5
:1017C0005C896DA96AC267968FAF6797A60195017C
:1017D000082E04C0220F331F441F551F0A94D2F74E
:1017E000A0E2AA2EA81A6696AFAE6697D201C101F2
:1017F00004C0B695A79597958795AA94D2F76C01E2
:101800007D01C22AD32AE42AF52AC9A6DAA6EBA6C4
:10181000FCA68201710167960FAC679704C0EE0CBD
:10182000FF1C001F111F0A94D2F7EDA2FEA20FA306
:1018300018A76401530166960FAC669704C0D6944E
:10184000C794B794A7940A94D2F7A401930167961A
:101850000FAC679704C0220F331F441F551F0A9413
:10186000D2F76C968CAD9DADAEADBFAD6C97669664
:101870000FAC669704C0B695A795979587950A947F
:10188000D2F73C014D01622A732A842A952A69A263
:101890007AA28BA29CA26C96ECACFDAC0EAD1FADF7
:1018A0006C9767960FAC679704C0EE0CFF1C001F87
:1018B000111F0A94D2F7ED8EFE8E0F8F18A349A543
:1018C0005AA56BA57CA53B01882499246070707093
:1018D0002D964CAF5DAF6EAF7FAF2D97C601B501B2
:1018E000A40193010E94352E7B018C01C601B50134
:1018F000A40193010E94352EC901DA011C012D01BA
:10190000C201B1012D962CAD3DAD4EAD5FAD2D9711
:101910000E94162E9B01AC018701FF24EE24A9A092
:10192000BAA0CBA0DCA0C601AA27BB27570168013B
:10193000A82AB92ACA2ADB2AA216B306C406D506E3
:1019400000F508942108310841085108E9A4FAA4D7
:101950000BA51CA5AE0CBF1CC01ED11EAE14BF042F
:10196000C006D10670F0A216B306C406D50648F428
:1019700008942108310841085108AE0CBF1CC01E54
:10198000D11EA21AB30AC40AD50AC601B501A40120
:1019900093010E94352E7B018C01C601B501A40183
:1019A00093010E94352EC901DA013C014D01C401A9
:1019B000B3012D962CAD3DAD4EAD5FAD2D970E9480
:1019C000162E9B01AC018701FF24EE2489A19AA168
:1019D000ABA1BCA1A070B07057016801A82AB92AB8
:1019E000CA2ADB2AA216B306C406D50600F5089457
:1019F000610871088108910869A57AA58BA59CA545
:101A0000A60EB71EC81ED91EA616B706C806D9064A
:101A100070F0A216B306C406D50648F4089461080F
:101A2000710881089108A60EB71EC81ED91ED601DE
:101A3000C501821B930BA40BB50B898F9A8FAB8FBB
:101A4000BC8FD1019927882784017301E82AF92ADC
:101A50000A2B1B2B4FEFA42E4FEFB42EC12CD12CF1
:101A6000AE20BF20C022D1227801002711276DA00F
:101A70007EA08FA098A44FEF5FEF60E070E064223B
:101A80007522862297228DA19EA1AFA1B8A5BD0186
:101A90008827992765966CAF7DAF8EAF9FAF65970E
:101AA000C601B501A40193010E94162E61966CAF88
:101AB0007DAF8EAF9FAF6197C601B50165962CAD26
:101AC0003DAD4EAD5FAD65970E94162E1B012C01FA
:101AD000C801B701A40193010E94162E5B016C019D
:101AE000C801B70165962CAD3DAD4EAD5FAD6597B4
:101AF0000E94162E7B018C01A6019501220D331D3B
:101B0000441D551D61966CAC7DAC8EAC9FAC61974D
:101B1000C401AA27BB27280F391F4A1F5B1F2A159C
:101B20003B054C055D0548F4812C912CE1E0AE2E7F
:101B3000B12CE80CF91C0A1D1B1DCA01AA27BB27E2
:101B400057016801A80EB91ECA1EDB1EA901332762
:101B5000222761968CAD9DADAEADBFAD6197A070F3
:101B6000B070280F391F4A1F5B1FE98CFA8C0B8D50
:101B70001C8DEA14FB040C051D0570F0AE14BF04A7
:101B8000C006D10669F56D8D7E8D8F8D98A1621787
:101B900073078407950720F5DA01C9016DA07EA0BF
:101BA0008FA098A486199709A809B909E9A4FAA4ED
:101BB0000BA51CA5AE18BF08C00AD10AEE24FF244D
:101BC0008701281739074A075B0728F421E0E22E2E
:101BD000F12C012D112DAE18BF08C00AD10A02C088
:101BE000DA01C9016D8C7E8C8F8C98A0681A790AF5
:101BF0008A0A9B0A498D5A8D6B8D7C8D4A195B0927
:101C00006C097D095A016B012224332421016D8D59
:101C10007E8D8F8D98A1661577058805990528F426
:101C200081E0282E312C412C512C86017501E218BF
:101C3000F30804091509A801970166960FAC669789
:101C400004C0220F331F441F551F0A94D2F7D4013A
:101C5000C30167960FAC679704C0B695A795979593
:101C600087950A94D2F7282B392B4A2B5B2B298B8B
:101C70003A8B4B8B5C8B67960FAC679704C01695BD
:101C80000795F794E7940A94D2F7ED8AFE8A0F8BB2
:101C9000188F3A894B895C896E2D7E898F89988D42
:101CA000C55ADF4FE2E10C94732EA0E0B0E0EBE503
:101CB000FEE00C94572EDC012B01FA019C9192302E
:101CC00008F439C1EB018881823008F433C19430C3
:101CD00069F4843009F02FC111969C911197898184
:101CE000981709F428C1A4E8B0E025C1843009F4AC
:101CF00021C18230A9F4923009F01DC19A01AD01D1
:101D000088E0EA010990AE01E90109929E01815043
:101D1000C1F7E201898111969C918923818308C1D1
:101D2000923009F407C112962D903C901397EB0165
:101D30008A819B811496AD90BD90CD90DC901797D1
:101D4000EC80FD800E811F819101281B390BB901A8
:101D500037FF04C066277727621B730B603271055B
:101D60000CF061C0121613066CF537014801062EFF
:101D700004C096948794779467940A94D2F721E0EC
:101D800030E040E050E004C0220F331F441F551FD5
:101D90006A95D2F721503040404050402E213F21DB
:101DA00040235123211531054105510521F021E042
:101DB00030E040E050E079018A01E628F728082960
:101DC00019293CC0232BD1F1260E371E35014601BF
:101DD000062E04C096948794779467940A94D2F759
:101DE00021E030E040E050E004C0220F331F441FE8
:101DF000551F6A95D2F721503040404050402A216B
:101E00003B214C215D21211531054105510521F072
:101E100021E030E040E050E059016A01A628B728EF
:101E2000C828D9280BC0821593052CF01C01AA24C0
:101E3000BB24650103C0EE24FF24870111969C9109
:101E4000D20111968C91981709F445C0992339F065
:101E5000A80197012A193B094C095D0906C0A60192
:101E600095012E193F09400B510B57FD08C01182F7
:101E70003382228224833583468357831DC081E0C9
:101E800081833382228288279927DC01821B930B6E
:101E9000A40BB50B84839583A683B7830DC0220F53
:101EA000331F441F551F2483358346835783828104
:101EB0009381019793838283248135814681578161
:101EC000DA01C9010197A109B1098F5F9F4FAF4F97
:101ED000BF4328F30BC0918333822282EA0CFB1CA0
:101EE0000C1D1D1DE482F5820683178383E0808329
:101EF000248135814681578157FF1AC0C901AA271D
:101F000097FDA095BA2F81709070A070B070569513
:101F1000479537952795822B932BA42BB52B84833C
:101F20009583A683B783828193810196938382836D
:101F3000DF0101C0D201CD01CDB7DEB7E2E10C94E3
:101F4000732EA0E2B0E0E7EAFFE00C94632E698311
:101F50007A838B839C832D833E834F835887E9E06C
:101F6000EE2EF12CEC0EFD1ECE010196B7010E9463
:101F7000B0148E010F5E1F4FCE010596B8010E946E
:101F8000B0148A8991E089278A8BC701B801AE0114
:101F9000475E5F4F0E94550E0E94DB13A096E6E05D
:101FA0000C947F2EA0E2B0E0E8EDFFE00C94632EED
:101FB00069837A838B839C832D833E834F835887E9
:101FC000F9E0EF2EF12CEC0EFD1ECE010196B701CB
:101FD0000E94B0148E010F5E1F4FCE010596B8010E
:101FE0000E94B014C701B801AE01475E5F4F0E9466
:101FF000550E0E94DB13A096E6E00C947F2EA0E223
:10200000B0E0E5E0F0E10C94572E69837A838B838E
:102010009C832D833E834F835887CE010196BE015A
:10202000675F7F4F0E94B014CE010596BE016F5EC0
:102030007F4F0E94B0149985923088F08989823050
:10204000C8F0943019F4823051F404C0843029F47B
:10205000923081F484E890E0C6C0923049F420E0E8
:102060009A858A89981321E02A87CE010996BBC0F8
:10207000823049F420E09A858A89981321E02A8BDE
:10208000CE014196B0C02D843E844F8458886D881F
:102090007E888F88988CEE24FF248701AA24BB2495
:1020A000650140E050E060E070E0E0E0F0E0C10198
:1020B00081709070892BE9F0E60CF71C081D191D42
:1020C0009A01AB012A0D3B1D4C1D5D1D80E090E087
:1020D000A0E0B0E0E614F7040805190520F481E05B
:1020E00090E0A0E0B0E0BA01A901480F591F6A1FB3
:1020F0007B1FAA0CBB1CCC1CDD1C97FE08C081E01A
:1021000090E0A0E0B0E0A82AB92ACA2ADB2A3196DA
:10211000E032F10549F0660C771C881C991C569436
:10212000479437942794C3CFFA85EA892B893C8951
:102130008B859C85280F391F2E5F3F4F17C0CA0122
:1021400081709070892B61F016950795F794E7944C
:1021500080E090E0A0E0B0E8E82AF92A0A2B1B2BE7
:1021600076956795579547952F5F3F4F77FDE7CF5A
:102170000CC0440F551F661F771F17FD4160EE0C02
:10218000FF1C001F111F21503040403090E05907C4
:1021900090E0690790E4790760F32B8F3C8FDB01B7
:1021A000CA018F779070A070B07080349105A1053E
:1021B000B10561F447FD0AC0E114F1040105110500
:1021C00029F0405C5F4F6F4F7F4F40781A8EFE17AB
:1021D00011F081E08A8F4D8F5E8F6F8F78A383E03F
:1021E000898FCE0149960E94DB13A096E2E10C9400
:1021F000732EA8E1B0E0EFEFF0E10C945F2E69835D
:102200007A838B839C832D833E834F835887B9E0E9
:10221000EB2EF12CEC0EFD1ECE010196B7010E94B3
:10222000B0148E010F5E1F4FCE010596B8010E94BB
:10223000B0142985223008F47EC03989323010F478
:10224000B8017CC08A859A8989278A87243011F051
:10225000223031F4231709F06EC064E870E06EC0DC
:10226000343039F41D861E861F86188A1C861B860C
:1022700004C0323021F484E08987B7015FC02B8528
:102280003C858B899C89281B390B3C872B87ED84E7
:10229000FE840F851889AD88BE88CF88D88CEA1453
:1022A000FB040C051D0540F4EE0CFF1C001F111F64
:1022B000215030403C872B8720E030E040E050E068
:1022C00080E090E0A0E0B0E460E070E0EA14FB049D
:1022D0000C051D0540F0282B392B4A2B5B2BEA18E7
:1022E000FB080C091D09B695A79597958795EE0CE7
:1022F000FF1C001F111F6F5F7F4F6F31710531F79A
:10230000DA01C9018F779070A070B07080349105A8
:10231000A105B10561F427FD0AC0E114F10401052E
:10232000110529F0205C3F4F4F4F5F4F20782D87DC
:102330003E874F87588BBE01675F7F4FCB010E945E
:10234000DB136896EAE00C947B2EA8E1B0E0EBEAA0
:10235000F1E10C94632E69837A838B839C832D83B4
:102360003E834F83588789E0E82EF12CEC0EFD1E4A
:10237000CE010196B7010E94B0148E010F5E1F4F6F
:10238000CE010596B8010E94B0148985823040F0D4
:102390008989823028F0C701B8010E94281501C040
:1023A00081E06896E6E00C947F2EA8E1B0E0EBEDCA
:1023B000F1E10C94632E69837A838B839C832D8354
:1023C0003E834F83588789E0E82EF12CEC0EFD1EEA
:1023D000CE010196B7010E94B0148E010F5E1F4F0F
:1023E000CE010596B8010E94B0148985823040F074
:1023F0008989823028F0C701B8010E94281501C0E0
:102400008FEF6896E6E00C947F2EA8E1B0E0EBE059
:10241000F2E10C94632E69837A838B839C832D83F2
:102420003E834F83588789E0E82EF12CEC0EFD1E89
:10243000CE010196B7010E94B0148E010F5E1F4FAE
:10244000CE010596B8010E94B0148985823040F013
:102450008989823028F0C701B8010E94281501C07F
:1024600081E06896E6E00C947F2EA8E0B0E0EBE314
:10247000F2E10C94602E9B01AC0183E08983DA01C8
:10248000C9018827B7FD83959927AA27BB27B82EAE
:10249000211531054105510519F482E089833AC0BF
:1024A0008823A9F0203080E0380780E0480780E8E2
:1024B000580729F460E070E080E09FEC30C0EE2423
:1024C000FF248701E21AF30A040B150B02C07901FD
:1024D0008A018EE1C82ED12CDC82CB82ED82FE8275
:1024E0000F831887C801B7010E946013019718165F
:1024F000190684F4082E04C0EE0CFF1C001F111FE7
:102500000A94D2F7ED82FE820F831887C81AD90A7F
:10251000DC82CB82BA82CE0101960E94DB13289620
:10252000E9E00C947C2EACE0B0E0E9E9F2E10C9437
:10253000672E69837A838B839C83CE010196BE01CB
:102540006B5F7F4F0E94B0148D81823061F18230C9
:1025500050F1843021F48E81882351F12EC02F81D7
:10256000388537FD20C06E812F3131051CF0662380
:10257000F9F023C08EE190E0821B930B29853A8508
:102580004B855C8504C056954795379527958A9568
:10259000D2F76623B1F050954095309521953F4F85
:1025A0004F4F5F4F0EC020E030E040E050E009C0E8
:1025B0002FEF3FEF4FEF5FE704C020E030E040E057
:1025C00050E8B901CA012C96E2E00C94832EA8E0F1
:1025D000B0E0EDEEF2E10C945F2E7B018C01611511
:1025E00071058105910519F482E0898360C083E05B
:1025F00089838EE1C82ED12CDC82CB82ED82FE82D3
:102600000F831887C801B7010E946013FC0131973E
:10261000F7FF3BC0222733272E1B3F0B57016801D2
:10262000022E04C0D694C794B794A7940A94D2F704
:1026300040E050E060E070E081E090E0A0E0B0E0D9
:1026400004C0880F991FAA1FBB1F2A95D2F70197B4
:10265000A109B1098E219F21A023B1230097A105D3
:10266000B10521F041E050E060E070E04A295B29CB
:102670006C297D294D835E836F8378878EE190E09E
:102680008E1B9F0B9C838B8312C0309781F00E2E84
:1026900004C0EE0CFF1C001F111F0A94D2F7ED823C
:1026A000FE820F831887CE1ADF0ADC82CB821A8261
:1026B000CE0101960E94DB132896EAE00C947B2E53
:1026C000EF92FF920F931F937B018C0180E0E8163D
:1026D00080E0F80681E0080780E0180788F48FEFB3
:1026E000E816F1040105110531F028F088E090E0CA
:1026F000A0E0B0E017C080E090E0A0E0B0E012C041
:1027000080E0E81680E0F80680E0080781E018071E
:1027100028F088E190E0A0E0B0E004C080E190E023
:10272000A0E0B0E020E230E040E050E0281B390BB0
:102730004A0B5B0B04C016950795F794E7948A95AE
:10274000D2F7F701E457FF4F8081281B3109410977
:102750005109C9011F910F91FF90EF900895EF92D9
:10276000FF920F931F937B018C0120E030E040E04B
:102770005FE40E94D51188238CF0C801B70120E0E6
:1027800030E040E05FE40E94A10F0E9493129B01A1
:10279000AC01205030404040504806C0C801B7014D
:1027A0000E9493129B01AC01B901CA011F910F91C4
:1027B000FF90EF900895DF92EF92FF920F931F9397
:1027C000FC01E480F58006811781D1808081823010
:1027D00048F480E090E0A0E1B0E0E82AF92A0A2B72
:1027E0001B2BA5C0843009F49FC0823021F4EE2455
:1027F000FF24870105C0E114F1040105110519F456
:10280000E0E0F0E096C0628173819FEF6238790763
:102810000CF05BC022E83FEF261B370B2A31310555
:102820002CF020E030E040E050E02AC0B801A701E1
:10283000022E04C076956795579547950A94D2F76E
:1028400081E090E0A0E0B0E004C0880F991FAA1FCB
:10285000BB1F2A95D2F70197A109B1098E219F21AB
:10286000A023B1230097A105B10521F081E090E0FC
:10287000A0E0B0E09A01AB01282B392B4A2B5B2B4F
:10288000DA01C9018F779070A070B0708034910523
:10289000A105B10539F427FF09C0205C3F4F4F4F18
:1028A0005F4F04C0215C3F4F4F4F5F4FE0E0F0E0CF
:1028B0002030A0E03A07A0E04A07A0E45A0710F051
:1028C000E1E0F0E079018A0127C06038710564F524
:1028D000FB01E158FF4FD801C7018F779070A070BE
:1028E000B07080349105A105B10539F4E7FE0DC043
:1028F00080E490E0A0E0B0E004C08FE390E0A0E0CE
:10290000B0E0E80EF91E0A1F1B1F17FF05C0169541
:102910000795F794E794319687E016950795F79415
:10292000E7948A95D1F705C0EE24FF248701EFEFE5
:10293000F0E06E2F679566276795902F9F77D79465
:10294000DD24D7948E2F8695492F462B582F5D294D
:10295000B701CA011F910F91FF90EF90DF9008958A
:10296000FC01DB01408151812281622F6F7770E091
:10297000221F2227221F9381892F880F822B282F25
:1029800030E0991F9927991F11969C931197211553
:102990003105A9F5411551056105710511F482E074
:1029A00037C082E89FEF13969C938E9312979A01FB
:1029B000AB0167E0220F331F441F551F6A95D1F703
:1029C00083E08C930DC0220F331F441F551F1296B6
:1029D0008D919C911397019713969C938E931297C8
:1029E000203080E0380780E0480780E4580758F33B
:1029F00014962D933D934D935C93179708952F3F15
:102A0000310579F4411551056105710519F484E02A
:102A10008C93089564FF03C081E08C9312C01C92D4
:102A200010C02F57304013963C932E93129783E09B
:102A30008C9387E0440F551F661F771F8A95D1F747
:102A4000706414964D935D936D937C9317970895DE
:102A50001F93DC01FB019C91923008F447C08081F8
:102A6000823008F443C0943051F411961C918430A4
:102A700099F58181682F70E0611B71093FC0843036
:102A800021F0923031F48230B9F18181882389F1CB
:102A90002DC011961C9111978230F1F08181181789
:102AA000D9F412962D913C911397828193818217CC
:102AB000930794F028173907BCF014968D919D91D7
:102AC0000D90BC91A02D2481358146815781281716
:102AD00039074A075B0718F4112341F00AC082172F
:102AE0009307A407B50740F4112319F061E070E0E3
:102AF00005C06FEF7FEF02C060E070E0CB011F9177
:102B00000895843090F4683080F4413081F044239B
:102B100061F48130D9F1813000F1823009F450C084
:102B2000833009F440C081E0089580E00895813049
:102B300009F453C08130F0F0823009F45AC0833078
:102B400091F721B381E090E002C0880F991F6A9548
:102B5000E2F7282B21BB81E008952AB381E090E0C1
:102B600002C0880F991F6A95E2F7809582238ABB7D
:102B700081E008952AB381E090E002C0880F991F98
:102B80006A95E2F7282B2ABB81E0089527B381E0FC
:102B900090E002C0880F991F6A95E2F78095822322
:102BA00087BB81E0089521B381E090E002C0880FE7
:102BB000991F6A95E2F78095822381BB81E0089591
:102BC00024B381E090E002C0880F991F6A95E2F774
:102BD0008095822384BB81E0089527B381E090E053
:102BE00002C0880F991F6A95E2F7282B27BB81E066
:102BF000089524B381E090E002C0880F991F6A9580
:102C0000E2F7282B24BB81E00895843090F46830EB
:102C100080F4413081F0442361F48130D9F1813076
:102C200000F1823009F450C0833009F440C081E0E3
:102C3000089580E00895813009F453C08130F0F0A8
:102C4000823009F45AC0833091F722B381E090E0DA
:102C500002C0880F991F6A95E2F7282B22BB81E0FA
:102C600008952BB381E090E002C0880F991F6A9508
:102C7000E2F7809582238BBB81E008952BB381E03E
:102C800090E002C0880F991F6A95E2F7282B2BBBB2
:102C900081E0089528B381E090E002C0880F991F79
:102CA0006A95E2F78095822388BB81E0089522B37C
:102CB00081E090E002C0880F991F6A95E2F7809545
:102CC000822382BB81E0089525B381E090E002C0B9
:102CD000880F991F6A95E2F78095822385BB81E072
:102CE000089528B381E090E002C0880F991F6A958B
:102CF000E2F7282B28BB81E0089525B381E090E01E
:102D000002C0880F991F6A95E2F7282B25BB81E046
:102D10000895FA01843060F4683050F48130F1F0A5
:102D2000813040F0823081F1833061F181E008959B
:102D300080E0089529B381E090E0062E02C0880F5C
:102D4000991F0A94E2F730E08223932302C09595FD
:102D500087956A95E2F7808381E0089526B381E044
:102D600090E0062E02C0880F991F0A94E2F730E027
:102D70008223932302C0959587956A95E2F7808315
:102D800081E0089520B3EBCF23B3E9CF683050F44E
:102D90008130B1F0813040F0823051F18330E1F088
:102DA00081E0089580E008952BB381E090E002C0B7
:102DB000880F991F6A95E2F728272BBB81E00895B9
:102DC00028B381E090E002C0880F991F6A95E2F76E
:102DD000282728BB81E0089522B381E090E002C05B
:102DE000880F991F6A95E2F7282722BB81E0089592
:102DF00025B381E090E002C0880F991F6A95E2F741
:102E0000282725BB81E00895843060F4683050F4B1
:102E10008130D1F0813040F08230B1F1833021F146
:102E200081E0089580E00895413009F43CC02BB35F
:102E300081E090E002C0880F991F6A95E2F78095C3
:102E400082238BBB81E00895413009F453C028B33D
:102E500081E090E002C0880F991F6A95E2F78095A3
:102E6000822388BB81E00895413009F457C022B322
:102E700081E090E002C0880F991F6A95E2F7809583
:102E8000822382BB81E00895413001F125B381E0C6
:102E900090E002C0880F991F6A95E2F7809582231F
:102EA00085BB81E0089580B78B7F80BF3AB381E016
:102EB00090E002C0880F991F6A95E2F7282F2095AD
:102EC00023232ABB2BB3822B8BBBAACF80B78B7F4C
:102ED00080BF34B381E090E002C0880F991F6A95EB
:102EE000E2F7282F2095232324BB25B3822B85BB13
:102EF00081E0089580B78B7F80BF37B381E090E099
:102F000002C0880F991F6A95E2F7282F2095232386
:102F100027BB28B3822B88BB81E0089580B78B7FC5
:102F200080BF31B381E090E002C0880F991F6A959D
:102F3000E2F7282F2095232321BB22B3822B82BBCB
:102F400081E00895843040F4813059F0813030F0D0
:102F5000823069F0833041F080E008956ABB81E0FF
:102F6000089567BB81E0089561BB81E0089564BB6B
:102F700081E00895843040F4813059F0813030F0A0
:102F8000823069F0833041F080E008956BBB81E0CE
:102F9000089568BB81E0089562BB81E0089565BB38
:102FA00081E00895843050F4813079F0813040F030
:102FB0008230A9F0833071F081E0089580E00895B7
:102FC0008BB380958BBB81E0089588B3809588BBD7
:102FD00081E0089582B3809582BB81E0089585B336
:102FE000809585BB81E00895FB01843040F48130F9
:102FF00061F0813030F0823081F0833051F080E038
:10300000089589B3808381E0089586B3808381E049
:10301000089580B3808381E0089583B3808381E045
:103020000895843060F46295607F813091F0813042
:1030300040F08230F1F08330A1F081E0089580E02B
:1030400008958BB38F708BBB8BB3682B6BBB81E008
:10305000089588B38F7088BB88B3682B68BB81E004
:10306000089582B38F7082BB82B3682B62BB81E00C
:10307000089585B38F7085BB85B3682B65BB81E0F0
:103080000895843058F46F70813091F0813040F0B1
:103090008230F1F08330A1F081E0089580E008955E
:1030A0008BB3807F8BBB8BB3682B6BBB81E00895A8
:1030B00088B3807F88BB88B3682B68BB81E00895A4
:1030C00082B3807F82BB82B3682B62BB81E00895AC
:1030D00085B3807F85BB85B3682B65BB81E0089590
:1030E0009F92AF92BF92CF92DF92EF92FF920F9397
:1030F0001F93DF93CF930F92CDB7DEB799249A94A5
:10310000EE24FF248E010F5F1F4F48ECC42ED12CFC
:1031100034E0A32EAE0C80E06A2D40E00E9405163C
:1031200080E060E0A8010E94891689818823A9F1C6
:1031300080E061E0A8010E9489168981882309F452
:1031400054C080E062E0A8010E948916898188232A
:1031500009F44EC080E063E0A8010E9489168981CD
:10316000882309F448C080E06A2D41E00E940516DA
:103170000894E11CF11C84E0E816F10449F6892D5D
:103180000F90CF91DF911F910F91FF90EF90DF9003
:10319000CF90BF90AF909F900895BB2420E030E087
:1031A000C6010197F1F72F5F3F4F81E0243F3807B9
:1031B000B9F780E06B2DA8010E94891689818823C8
:1031C00059F4EB2DF0E0EE0FFF1FEE0FFF1FEE0D99
:1031D000FF1DE457FE4F908080E06B2DA8010E94F8
:1031E000891689818823C1F3BECFBB24B394D6CF7F
:1031F00022E0B22ED3CF93E0B92ED0CF80E060E0B2
:1032000041E00E94041780E061E041E00E94041761
:1032100080E062E041E00E94041780E063E041E06A
:103220000E94041780E064E041E00E94811580E084
:1032300065E041E00E94811580E066E041E00E9487
:10324000811580E067E041E00E94811580E064E044
:1032500041E00E94051680E065E041E00E9405160D
:1032600080E066E041E00E94051680E067E041E012
:103270000E9405160895EF92FF921F93182F81E088
:1032800065E040E00E94051681E066E040E00E94B3
:103290000516612F62956F7083E00E94111881E01E
:1032A00067E041E00E94051680EDE82E87E0F82EE9
:1032B000C7010197F1F781E067E040E00E94051641
:1032C000C7010197F1F783E0612F0E94111881E097
:1032D00067E041E00E940516C7010197F1F781E020
:1032E00067E040E00E940516C7010197F1F7C701AA
:1032F0000197F1F71F91FF90EF900895EF92FF92E1
:103300001F93182F81E065E041E00E94051681E0DF
:1033100066E040E00E940516612F62956F7083E0C1
:103320000E94111881E067E041E00E94051690EDCF
:10333000E92E97E0F92EC7010197F1F781E067E0E8
:1033400040E00E940516C7010197F1F783E0612F65
:103350000E94111881E067E041E00E940516C70154
:103360000197F1F781E067E040E00E940516C70190
:103370000197F1F7C7010197F1F71F91FF90EF90C7
:103380000895EF92FF920F931F93CF93DF937C01E9
:10339000FC011081112309F442C000E0C0EDD7E028
:1033A00081E065E041E00E94051681E066E040E0D2
:1033B0000E940516612F62956F7083E00E941118BC
:1033C00081E067E041E00E940516CE010197F1F728
:1033D00081E067E040E00E940516CE010197F1F719
:1033E00083E0612F0E94111881E067E041E00E94B4
:1033F0000516CE010197F1F781E067E040E00E94F9
:103400000516CE010197F1F7CE010197F1F70F5F95
:10341000F701E00FF11D1081112309F0C1CFDF91F9
:10342000CF911F910F91FF90EF9008950F931F93ED
:1034300081E065E040E00E94051681E066E040E042
:103440000E94051683E060E00E94111881E067E0A9
:1034500041E00E94051600ED17E0C8010197F1F761
:1034600081E067E040E00E940516C8010197F1F78E
:1034700083E061E00E94111881E067E041E00E9472
:103480000516C8010197F1F781E067E040E00E946E
:103490000516C8010197F1F7C8010197F1F780E21D
:1034A0009EE40197F1F71F910F910895FF920F93FA
:1034B0001F93982F8150823008F442C020E8F22EEA
:1034C00081E065E040E00E94051681E066E040E0B2
:1034D0000E9405166F2D62956F7083E00E9411188F
:1034E00081E067E041E00E94051600ED17E0C801A9
:1034F0000197F1F781E067E040E00E940516C801FE
:103500000197F1F783E06F2D0E94111881E067E0C9
:1035100041E00E940516C8010197F1F781E067E0DC
:1035200040E00E940516C8010197F1F7C801019714
:10353000F1F7C8010197F1F71F910F91FF900895DE
:10354000613108F0BBCF662309F4B8CF913039F070
:10355000923009F0B5CF3FEBF32EF60EB1CF4FE727
:10356000F42EF60EADCF0F931F9320E030E048EC21
:1035700050E0CA010197F1F72F5F3F4F81E0243FF0
:103580003807B9F783E064E041E00E94811583E0E9
:1035900065E041E00E94811583E066E041E00E9421
:1035A000811583E067E041E00E94811581E065E0DC
:1035B00041E00E94811581E066E041E00E948115B2
:1035C00081E067E041E00E94811581E065E040E034
:1035D0000E94051681E066E040E00E94051683E047
:1035E00060E00E94111881E067E041E00E9405164A
:1035F00000ED17E0C8010197F1F781E067E040E0D6
:103600000E940516C8010197F1F783E062E00E946D
:10361000111881E067E041E00E940516C80101979A
:10362000F1F781E067E040E00E940516C8010197CC
:10363000F1F7C8010197F1F780E69AEE0197F1F7EB
:1036400081E065E040E00E94051681E066E040E030
:103650000E94051683E062E00E94111881E067E095
:1036600041E00E940516C8010197F1F781E067E08B
:1036700040E00E940516C8010197F1F783E068E277
:103680000E94111881E067E041E00E940516C80120
:103690000197F1F781E067E040E00E940516C8015C
:1036A0000197F1F7C8010197F1F7C8010197F1F708
:1036B00081E065E040E00E94051681E066E040E0C0
:1036C0000E94051683E060E00E94111881E067E027
:1036D00041E00E940516C8010197F1F781E067E01B
:1036E00040E00E940516C8010197F1F783E06CE005
:1036F0000E94111881E067E041E00E940516C801B0
:103700000197F1F781E067E040E00E940516C801EB
:103710000197F1F7C8010197F1F7C8010197F1F797
:1037200081E065E040E00E94051681E066E040E04F
:103730000E94051683E060E00E94111881E067E0B6
:1037400041E00E940516C8010197F1F781E067E0AA
:1037500040E00E940516C8010197F1F783E061E09F
:103760000E94111881E067E041E00E940516C8013F
:103770000197F1F781E067E040E00E940516C8017B
:103780000197F1F7C8010197F1F780E29EE40197F4
:10379000F1F781E065E040E00E94051681E066E017
:1037A00040E00E94051683E060E00E94111881E06D
:1037B00067E041E00E940516C8010197F1F781E03A
:1037C00067E040E00E940516C8010197F1F783E029
:1037D00066E00E94111881E067E041E00E94051652
:1037E000C8010197F1F781E067E040E00E9405160B
:1037F000C8010197F1F7C8010197F1F7C8010197D6
:10380000F1F71F910F9108952F923F924F925F927F
:103810006F927F928F929F92AF92BF92CF92DF92E0
:10382000EF92FF920F931F93DF93CF93CDB7DEB745
:103830002A970FB6F894DEBF0FBECDBF2B833C8313
:103840004D835E836F83788789879A87822F832B46
:10385000842B852B862B872B4985842B892B09F478
:1038600086C1992493948824552422243324442403
:1038700066247724292D382D452D522D632D742D46
:10388000C30101E00E944900122FF32EE42ED52E31
:10389000C62EB72EA82E792E02E00E944900822E55
:1038A000810EE1E0811608F0E0E03F0D21E03F15D8
:1038B00008F020E06E2E630EE1E0631608F0E0E011
:1038C0002E2B4E0D31E04E1508F030E0522E540EE6
:1038D00021E0541608F020E0322B5D0D21E05D154B
:1038E00008F020E0432E450E31E0451608F030E0A8
:1038F000232B6C0D31E06C1508F030E0322E360EC3
:1039000021E0361608F020E0322B7B0D21E07B15FC
:1039100008F020E0232E270E31E0271608F030E0D3
:10392000232B8A0D31E08A1508F030E0280F298317
:1039300021E0A981A81708F020E0932E922A970D84
:10394000990E2B813C814D815E816F8178858985BF
:103950009A85AAE0AA2EBB24CC24DD24EE24FF24E1
:1039600000E010E00E94E507122F180DF1E0121799
:1039700008F0F0E0232F260DE1E0231708F0E0E047
:103980000F2F020F31E0021708F030E0E32B242F55
:10399000250D31E0241708F030E0FE2FF20F41E052
:1039A000F21708F040E0342B252F240D41E02517B5
:1039B00008F040E0E32FE20F31E0E21708F030E0DA
:1039C000432B262F230D31E0261708F030E0642F1B
:1039D000620F41E0621708F040E0342B272F220DE0
:1039E00041E0271708F040E0532F520F31E0521703
:1039F00008F030E0432B2981280F31E0281708F028
:103A000030E0420F81E0421708F080E0382B990E39
:103A1000B32FB90DBA8348015F2E2E2E362E452EB8
:103A2000642E7B2E2B813C814D815E816F81788558
:103A300089859A85FAE0AF2EBB24CC24DD24EE24C0
:103A4000FF2400E010E00E9470012B833C834D8333
:103A50005E836F83788789879A87822F832B842B55
:103A6000852B862B872BE9858E2B892B09F002CF9E
:103A7000F1E09F1609F4CBC0292D382D452D522D8C
:103A8000632D742DC301EAE0AE2EBB24CC24DD24CB
:103A9000EE24FF2400E010E00E94E507122F105DE5
:103AA00081E065E041E00E94051681E066E040E0CB
:103AB0000E940516612F62956F7083E00E941118B5
:103AC00081E067E041E00E94051680ED97E00197F4
:103AD000F1F781E067E040E00E94051680ED97E095
:103AE0000197F1F783E0612F0E94111881E067E0F0
:103AF00041E00E94051680ED97E00197F1F781E023
:103B000067E040E00E94051680ED97E00197F1F72D
:103B100080ED97E00197F1F7292D382D452D522D95
:103B2000632D742DC30110E00E947001922E832E2C
:103B3000542E252E362E472E3C0141E0941609F0D6
:103B40009BCF882009F098CF552009F095CF2220EF
:103B500009F092CF332009F08FCF442009F08CCFA9
:103B6000662009F089CF992309F086CF37C081E01C
:103B700065E041E00E94051681E066E040E00E94B9
:103B8000051683E063E00E94111881E067E041E0E0
:103B90000E94051600ED17E0C8010197F1F781E0DA
:103BA00067E040E00E940516C8010197F1F783E045
:103BB00060E30E94111881E067E041E00E94051671
:103BC000C8010197F1F781E067E040E00E94051627
:103BD000C8010197F1F7C8010197F1F72A960FB6CE
:103BE000F894DEBF0FBECDBFCF91DF911F910F9133
:103BF000FF90EF90DF90CF90BF90AF909F908F900D
:103C00007F906F905F904F903F902F900895882005
:103C100009F032CF552009F02FCF222009F02CCF08
:103C2000332009F029CF442009F026CF662009F07F
:103C300023CF772099F220CFCF92DF92EF92FF929D
:103C40000F931F93CF93DF937B018C010E949312FC
:103C5000EB01BE01882777FD8095982F0E943512D1
:103C60009B01AC01C801B7010E94A10F6B017C014F
:103C700020E030E040E050E00E940512882324F468
:103C8000F7FAF094F7F8F094FE01FF0FEE0BFE2F19
:103C90009E014E2F5E2F6E2F7E2F8E2F9E2F0E9405
:103CA000041C00E01EE2C0EDD7E081E065E041E0E9
:103CB0000E94051681E066E040E00E940516612F33
:103CC00062956F7083E00E94111881E067E041E027
:103CD0000E940516CE010197F1F781E067E040E010
:103CE0000E940516CE010197F1F783E0612F0E9433
:103CF000111881E067E041E00E940516CE010197AE
:103D0000F1F781E067E040E00E940516CE010197DF
:103D1000F1F7CE010197F1F70F5FE02FF0E0E05AE5
:103D2000FF4F1081112309F0C0CFC701B60120E079
:103D300030E44CE156E40E94FF0F0E94C8000E944C
:103D4000041CDF91CF911F910F91FF90EF90DF90B6
:103D5000CF900895CF92DF92EF92FF920F931F932F
:103D6000CF93DF93D82EC62E81E065E040E00E941D
:103D7000051681E066E040E00E94051683E064E0FD
:103D80000E94111881E067E041E00E94051600EDF5
:103D900017E0C8010197F1F781E067E040E00E9479
:103DA0000516C8010197F1F783E060E40E9411183D
:103DB00081E067E041E00E940516C8010197F1F734
:103DC00081E067E040E00E940516C8010197F1F725
:103DD000C8010197F1F7CCE9D1E090EDE92E97E029
:103DE000F92E199181E065E041E00E94051681E01D
:103DF00066E040E00E940516612F62956F7083E0D7
:103E00000E94111881E067E041E00E940516C70199
:103E10000197F1F781E067E040E00E940516C701D5
:103E20000197F1F783E0612F0E94111881E067E0AC
:103E300041E00E940516C7010197F1F781E067E0B4
:103E400040E00E940516C7010197F1F7C7010197ED
:103E5000F1F781E0CC3DD80709F0C3CF8D2D81501B
:103E6000823008F4EEC110E8F12E18E081E065E040
:103E700040E00E94051681E066E040E00E940516E1
:103E800083E0612F0E94111881E067E041E00E9409
:103E9000051600ED17E0C8010197F1F781E067E032
:103EA00040E00E940516C8010197F1F783E06F2DED
:103EB0000E94111881E067E041E00E940516C801E8
:103EC0000197F1F781E067E040E00E940516C80124
:103ED0000197F1F7C8010197F1F7C8010197F1F7D0
:103EE00081E065E041E00E94051681E066E040E087
:103EF0000E94051683E060E00E94111881E067E0EF
:103F000041E00E940516C8010197F1F781E067E0E2
:103F100040E00E940516C8010197F1F783E060E0D8
:103F20000E94111881E067E041E00E940516C80177
:103F30000197F1F781E067E040E00E940516C801B3
:103F40000197F1F7C8010197F1F781E065E041E0E1
:103F50000E94051681E066E040E00E94051683E0BD
:103F600060E00E94111881E067E041E00E940516C0
:103F7000C8010197F1F781E067E040E00E94051673
:103F8000C8010197F1F783E061E00E94111881E018
:103F900067E041E00E940516C8010197F1F781E052
:103FA00067E040E00E940516C8010197F1F7C801DB
:103FB0000197F1F781E065E041E00E94051681E09C
:103FC00066E040E00E94051683E060E00E94111860
:103FD00081E067E041E00E940516C8010197F1F712
:103FE00081E067E040E00E940516C8010197F1F703
:103FF00083E062E00E94111881E067E041E00E94E6
:104000000516C8010197F1F781E067E040E00E94E2
:104010000516C8010197F1F7C8010197F1F781E092
:1040200065E041E00E94051681E066E040E00E9404
:10403000051683E060E00E94111881E067E041E02E
:104040000E940516C8010197F1F781E067E040E0A2
:104050000E940516C8010197F1F783E063E00E9412
:10406000111881E067E041E00E940516C801019740
:10407000F1F781E067E040E00E940516C801019772
:10408000F1F7C8010197F1F781E065E041E00E9496
:10409000051681E066E040E00E94051683E060E0DE
:1040A0000E94111881E067E041E00E940516C801F6
:1040B0000197F1F781E067E040E00E940516C80132
:1040C0000197F1F783E064E00E94111881E067E056
:1040D00041E00E940516C8010197F1F781E067E011
:1040E00040E00E940516C8010197F1F7C801019749
:1040F000F1F781E065E041E00E94051681E066E0AD
:1041000040E00E94051683E060E00E94111881E003
:1041100067E041E00E940516C8010197F1F781E0D0
:1041200067E040E00E940516C8010197F1F783E0BF
:1041300065E00E94111881E067E041E00E940516E9
:10414000C8010197F1F781E067E040E00E940516A1
:10415000C8010197F1F7C8010197F1F781E065E027
:1041600041E00E94051681E066E040E00E940516ED
:1041700083E060E00E94111881E067E041E00E9466
:104180000516C8010197F1F781E067E040E00E9461
:104190000516C8010197F1F783E066E00E94111847
:1041A00081E067E041E00E940516C8010197F1F740
:1041B00081E067E040E00E940516C8010197F1F731
:1041C000C8010197F1F781E065E041E00E94051622
:1041D00081E066E040E00E94051683E060E00E9416
:1041E000111881E067E041E00E940516C8010197BF
:1041F000F1F781E067E040E00E940516C8010197F1
:10420000F1F783E067E00E94111881E067E041E088
:104210000E940516C8010197F1F781E067E040E0D0
:104220000E940516C8010197F1F7C8010197F1F73F
:10423000DF91CF911F910F91FF90EF90DF90CF9082
:10424000089580E18C1508F40ECECC2009F40BCE35
:1042500081E0D81631F082E0D81641F0FF2410E05A
:1042600005CE8FE7F82EFC0C18E000CE0FEBF02EF9
:10427000FC0C1CE0FBCD0F931F93009122020F5FFB
:1042800000932202112707FD1095000F111F000F48
:10429000111FF801E652FE4F608171818281938186
:1042A00020E030E040E251E40E94FF0F20911E0226
:1042B00030911F0240912002509121020E94D20FA2
:1042C0009B01AC01F801E252FE4F2083318342830F
:1042D00053838091DD01813049F4DA01C901B0587E
:1042E00080839183A283B3831092DD011F910F918C
:1042F000089580E090E0A0E0B0E08093DE0190932C
:10430000DF01A093E001B093E10180931E0290933E
:104310001F02A0932002B093210210922202109259
:10432000290210927D0210923B028093C00290936A
:10433000C102A093C202B093C3021092BF021092B6
:10434000240280937F0290938002A0938102B09315
:10435000820280933D0290933E02A0933F02B0936D
:10436000400210922302109228021092250210920D
:10437000DC0108950E94B31A0E94FE1882E690E0C4
:104380000E94C11920E030E048EC50E0CA010197DA
:10439000F1F72F5F3F4F8EE420323807B9F70E94C4
:1043A000161A81E061E00E94561A0895EF92FF927A
:1043B0000F931F93CF93DF932091BF022F5F209322
:1043C000BF0280913B028F5F80933B02C82FDD27A5
:1043D000C7FDD095CC0FDD1FCC0FDD1FC35CDD4FBB
:1043E000E0912902FF27E7FDF095EE0FFF1FEE0F8A
:1043F000FF1FE054FD4F80819181A281B3818883AA
:104400009983AA83BB83223039F0DF91CF911F912A
:104410000F91FF90EF900895809125028130B9F1BE
:104420008230D1F081E08093BF0280933B021092F2
:10443000250280917E02813009F450C080912802CB
:10444000813019F785E080932502DF91CF911F918C
:104450000F91FF90EF900895609141027091420298
:10446000809143029091440220914502309146028E
:1044700040914702509148020E94FF0F6093410211
:10448000709342028093430290934402CBCFE0901A
:104490004502F09046020091470210914802C8017F
:1044A000B70120E030E040E050E00E94A5118823F1
:1044B000E1F060914102709142028091430290913B
:1044C0004402A80197010E94F91060934102709381
:1044D00042028093430290934402A4CF10923B0285
:1044E0001092BF0210927E02A9CF82E061E00E948A
:1044F000561A89E790E00E94C11981E18093DC019E
:1045000091CFEF92FF920F931F93A0912902AF5F7B
:10451000A093290280912202E82FFF27E7FDF09562
:10452000EE0FFF1FEE0FFF1FE252FE4F2081318181
:1045300042815381BB27A7FDB095AA0FBB1FAA0FCD
:10454000BB1FA054BD4F2D933D934D935C93139788
:10455000E82FEF5FE0932202FF27E7FDF095EE0FD3
:10456000FF1FEE0FFF1FE252FE4F80E090E0A0E041
:10457000B0E080839183A283B38380913C028D322B
:1045800009F4E2C08E3250F08F3209F499C08D33B5
:10459000D1F11F910F91FF90EF9008958A3209F4A5
:1045A000B1C08B32B1F781E080937E02709124021A
:1045B0007F5F7093240260917D026F5F60937D0244
:1045C000E62FFF27E7FDF095EE0FFF1FEE0FFF1F11
:1045D000E158FD4F2083318342835383909125021C
:1045E000892F8150823008F476C2953009F496C143
:1045F000723009F4D9C081E0809323021F910F919A
:10460000FF90EF90089581E08093280280933A0212
:10461000809125028150823008F47CC2809123026F
:104620008150823008F0B5CF81E080937E02709196
:1046300024027F5F7093240260917D026F5F60931C
:104640007D02262F332727FD3095220F331F220F9F
:10465000331F21583D4FE0912902FF27E7FDF095D8
:10466000EE0FFF1FEE0FFF1FE054FD4F8081918181
:10467000A281B381F90180839183A283B383909156
:104680002502892F8150823008F4B9C2953009F48F
:1046900082C2723009F454C28091DC01813109F484
:1046A00078CF82E061E00E94561A60918302709197
:1046B000840280918502909186020E941C1E69CF1F
:1046C0008091BF028F5F8093BF02E0913B02EF5F5A
:1046D000E0933B02FF27E7FDF095EE0FFF1FEE0F83
:1046E000FF1FE35CFD4F208331834283538382307D
:1046F00009F485C081E0809325021F910F91FF90FE
:10470000EF9008958091BF028F5F8093BF02E09188
:104710003B02EF5FE0933B02FF27E7FDF095EE0FD2
:10472000FF1FEE0FFF1FE35CFD4F208331834283A9
:104730005383823009F495C082E0809325021F9153
:104740000F91FF90EF90089581E080937E02709129
:1047500024027F5F7093240260917D026F5F6093FB
:104760007D02E62FFF27E7FDF095EE0FFF1FEE0F0E
:10477000FF1FE158FD4F2083318342835383909183
:104780002502892F8150823008F486C1953009F4C2
:10479000E1C0723009F497C082E0809323021F9138
:1047A0000F91FF90EF90089580912302813009F4DA
:1047B00030C18230D1F46091830270918402809183
:1047C0008502909186022091870230918802409163
:1047D000890250918A020E94A10F60938302709314
:1047E0008402809385029093860281E08093240264
:1047F00080937D021092BF0210923B02FCCE80910A
:104800002502813009F4DDC08230D1F4609141028B
:10481000709142028091430290914402209145029E
:104820003091460240914702509148020E94FF0F8A
:10483000609341027093420280934302909344023A
:1048400081E08093BF0280933B0280917E028130A1
:1048500009F050CF10923B021092BF0210927E02DC
:1048600049CF80912502813009F4EEC08230D1F425
:104870006091410270914202809143029091440202
:1048800020914502309146024091470250914802E2
:104890000E94FF0F60934102709342028093430293
:1048A0009093440281E08093BF0280933B02809109
:1048B0007E02813009F040CF10923B021092BF027D
:1048C00010927E0239CF80912302813009F45EC0BC
:1048D0008230D1F4609183027091840280918502CC
:1048E000909186022091870230918802409189023E
:1048F00050918A020E94A10F6093830270938402F8
:10490000809385029093860281E0809324028093B5
:104910007D021092BF0210923B023ECF809128028E
:10492000813009F065CEE62FFF27E7FDF095EE0F09
:10493000FF1FEE0FFF1FE158FD4F80914102909144
:104940004202A0914302B091440280839183A283EA
:10495000B3834ECE80912802813009F01ACFE62F22
:10496000FF27E7FDF095EE0FFF1FEE0FFF1FE15849
:10497000FD4F8091410290914202A0914302B0917B
:10498000440280839183A283B38303CF6091830227
:104990007091840280918502909186022091870215
:1049A000309188024091890250918A020E94D20F70
:1049B00060938302709384028093850290938602B1
:1049C000A3CFE0904502F09046020091470210917B
:1049D0004802C801B70120E030E040E050E00E940A
:1049E000A511882309F4F3C060914102709142023D
:1049F0008091430290914402A80197010E94F9100E
:104A00006093410270934202809343029093440268
:104A100017CF6091830270918402809185029091FA
:104A2000860220918702309188024091890250913C
:104A30008A020E94D20F6093830270938402809353
:104A4000850290938602D1CEE0904502F090460216
:104A50000091470210914802C801B70120E030E000
:104A600040E050E00E94A511882309F4BCC0609189
:104A70004102709142028091430290914402A80148
:104A800097010E94F9106093410270934202809353
:104A900043029093440206CF0E94D62160917D028A
:104AA000E62FFF27E7FDF095EE0FFF1FEE0FFF1F2C
:104AB000E158FD4F8091410290914202A091430242
:104AC000B091440280839183A283B38390912502A5
:104AD000709124025BCE0E94D62160917D02E62F68
:104AE000FF27E7FDF095EE0FFF1FEE0FFF1FE158C8
:104AF000FD4F8091410290914202A0914302B091FA
:104B0000440280839183A283B383909125027091A4
:104B100024026BCD0E94D6218091DC01813109F401
:104B20007DCD82E061E00E94561A60914102709151
:104B3000420280914302909144020E941C1E6ECD5D
:104B400080912302813009F479C08230D1F46091E0
:104B50008302709184028091850290918602209157
:104B60008702309188024091890250918A020E9406
:104B7000A10F6093830270938402809385029093C7
:104B8000860281E08093240280937D021092BF020E
:104B900010923B0281CD80912802813009F079CDBD
:104BA000E62FFF27E7FDF095EE0FFF1FEE0FFF1F2B
:104BB000E158FD4F8091410290914202A091430241
:104BC000B091440280839183A283B38362CD82E05B
:104BD00061E00E94561A89E790E00E94C11981E1C4
:104BE0008093DC012DCE82E061E00E94561A89E7B5
:104BF00090E00E94C11981E18093DC0153CE0E94B4
:104C0000D62160917D02E62FFF27E7FDF095EE0F9C
:104C1000FF1FEE0FFF1FE158FD4F80914102909161
:104C20004202A0914302B091440280839183A28307
:104C3000B383909125027091240228CD6091830264
:104C40007091840280918502909186022091870262
:104C5000309188024091890250918A020E94D20FBD
:104C600060938302709384028093850290938602FE
:104C700088CFCF92DF92EF92FF920F931F9381E044
:104C800080937E02009124020F5F00932402109112
:104C90007D021F5F10937D02E0912902FF27E7FD4F
:104CA000F095EE0FFF1FEE0FFF1FE054FD4F208128
:104CB000318142815381E12FFF27E7FDF095EE0F0F
:104CC000FF1FEE0FFF1FE158FD4F2083318342830A
:104CD000538360912502862F8150823008F458C09A
:104CE000653001F1023039F01F910F91FF90EF9084
:104CF000DF90CF90089580912302813009F478C02D
:104D0000823059F181E08093240280937D021092D9
:104D1000BF0210923B021F910F91FF90EF90DF9026
:104D2000CF900895809128028130E1F6E12FFF278E
:104D3000E7FDF095EE0FFF1FEE0FFF1FE158FD4F4F
:104D40008091410290914202A0914302B0914402AD
:104D500080839183A283B383C5CF609183027091D6
:104D60008402809185029091860220918702309181
:104D700088024091890250918A020E94A10F60939B
:104D80008302709384028093850290938602BACF47
:104D90008091BF028F5F8093BF02E0913B02EF5F83
:104DA000E0933B02FF27E7FDF095EE0FFF1FEE0FAC
:104DB000FF1FE35CFD4F20833183428353838230A6
:104DC00091F1E12FFF27E7FDF095EE0FFF1FEE0FAA
:104DD000FF1FE158FD4F8091410290914202A09146
:104DE0004302B091440280839183A283B38378CF3E
:104DF0006091830270918402809185029091860275
:104E000020918702309188024091890250918A0254
:104E10000E94D20F60938302709384028093850274
:104E2000909386026FCF6130A9F0623009F446C0DA
:104E300081E08093BF0280933B0210922502809113
:104E40007E02813079F180912802813091F1609168
:104E50002502B7CFC0904502D0904602E0904702AD
:104E6000F0904802C701B60120E030E040E050E099
:104E70000E94A5118823E9F16091410270914202DC
:104E80008091430290914402A70196010E94F9107B
:104E900060934102709342028093430290934402D4
:104EA0001092250210923B021092BF0210927E02D5
:104EB000CACF85E08093250265E083CF60914102EF
:104EC00070914202809143029091440220914502E8
:104ED0003091460240914702509148020E94FF0FD4
:104EE0006093410270934202809343029093440284
:104EF000D7CF82E061E00E94561A89E790E00E94D5
:104F0000C11981E18093DC010091240210917D029E
:104F10008FCF6F927F928F929F92AF92BF92CF92DC
:104F2000DF92EF92FF920F931F93CF93DF930E9434
:104F30007018809326028F3F09F452C0833409F41D
:104F40005EC08F3209F43EC18A3209F43BC18B3214
:104F500009F438C18D3209F435C16091DC0146C1D4
:104F600080E090E0A0E0B0E08093DE019093DF016C
:104F7000A093E001B093E10180931E0290931F0281
:104F8000A0932002B09321021092220210922902D3
:104F900010927D0210923B028093C0029093C10256
:104FA000A093C202B093C3021092BF0210922402D7
:104FB00080937F0290938002A0938102B09382023B
:104FC00080933D0290933E02A0933F02B093400233
:104FD0001092230210922802109225021092DC01F6
:104FE000DF91CF911F910F91FF90EF90DF90CF90C5
:104FF000BF90AF909F908F907F906F900895809119
:105000003A02813009F4FAC26091DC01662309F0AA
:1050100005C1809126028D3319F78091DC018093C0
:10502000270282E061E00E94561A1092DC0160E0E3
:105030000F2EF0E08F2EF0E09F2EF0E0AF2EF0E08C
:10504000BF2EF02D7724739411E1612E55C06B3281
:1050500009F4F4C06D3209F4E8C16D3309F09DC163
:10506000809129028F5F80932902C82FDD27C7FD19
:10507000D095CC0FDD1FCC0FDD1FC054DD4FE02FCE
:10508000FF27E7FDF095EE0FFF1FEE0FFF1FE25227
:10509000FE4F80819181A281B38188839983AA8305
:1050A000BB83E02FEF5FE0932202FF27E7FDF0953F
:1050B000EE0FFF1FEE0FFF1FE252FE4F8082918224
:1050C000A282B3827092280270923A0280912502E5
:1050D0008150823008F420C38091230281508230B5
:1050E00008F402C36091DC016F5F6093DC01809182
:1050F0002702861708F434CFE62FF0E0E65DFD4F77
:10510000608160933C0200912202002319F46D3209
:1051100009F48FC06F3209F4EFC06A3209F097CFFB
:10512000A0912902AF5FA0932902E02FFF27E7FD9E
:10513000F095EE0FFF1FEE0FFF1FE252FE4F208192
:10514000318142815381BB27A7FDB095AA0FBB1FB8
:10515000AA0FBB1FA054BD4F2D933D934D935C935D
:105160001397E02FEF5FE0932202FF27E7FDF09512
:10517000EE0FFF1FEE0FFF1FE252FE4F8082918263
:10518000A282B3828091BF028F5F8093BF02E091C1
:105190003B02EF5FE0933B02FF27E7FDF095EE0F48
:1051A000FF1FEE0FFF1FE35CFD4F2083318342831F
:1051B0005383823009F498C182E080932502609184
:1051C000DC0192CF6091DC01E62FF0E0E75DFD4F5E
:1051D000E081EF3231F0EA3221F0EB3211F0ED32C2
:1051E00029F4862F81508093DC01682F6F5F81E066
:1051F0000E94561A809126020E947E196091DC015D
:1052000080912602E62FF0E0E65DFD4F80836F5F20
:105210006093DC01833409F0FECEF8CE61506093D8
:10522000DC016F5F81E00E94561A8EEF0E947E19AA
:10523000F0CE7092DD016091DC0156CFA091290281
:10524000AF5FA0932902E02FFF27E7FDF095EE0F57
:10525000FF1FEE0FFF1FE252FE4F2081318142817E
:105260005381BB27A7FDB095AA0FBB1FAA0FBB1F79
:10527000A054BD4F2D933D934D935C931397E02F16
:10528000EF5FE0932202FF27E7FDF095EE0FFF1F8F
:10529000EE0FFF1FE252FE4F80829182A282B38204
:1052A00070927E02709124027F5F7093240260915D
:1052B0007D026F5F60937D02E62FFF27E7FDF0958B
:1052C000EE0FFF1FEE0FFF1FE158FD4F20833183CC
:1052D0004283538390912502892F8150823008F4B4
:1052E00050C2953009F452C1723009F42DC1709248
:1052F00023026091DC01F8CEA0912902AF5FA09358
:105300002902E02FFF27E7FDF095EE0FFF1FEE0FBC
:10531000FF1FE252FE4F2081318142815381BB2722
:10532000A7FDB095AA0FBB1FAA0FBB1FA054BD4F6E
:105330002D933D934D935C931397E02FEF5FE09394
:105340002202FF27E7FDF095EE0FFF1FEE0FFF1F74
:10535000E252FE4F80829182A282B3828091BF028C
:105360008F5F8093BF02E0913B02EF5FE0933B02CF
:10537000FF27E7FDF095EE0FFF1FEE0FFF1FE35C29
:10538000FD4F2083318342835383823009F4C4C0AC
:10539000709225026091DC01A7CE70E060537040EE
:1053A000882777FD8095982F0E9435126B017C012C
:1053B00060931E0270931F0280932002909321023B
:1053C0000F5F00932202112707FD1095000F111F98
:1053D000000F111FF801E652FE4F6081718182813A
:1053E000938120E030E040E251E40E94FF0F9B01F6
:1053F000AC01C701B6010E94D20F9B01AC01F801BC
:10540000E252FE4F20833183428353838091DD013A
:10541000813009F067CEDA01C901B05880839183E9
:10542000A283B3831092DD015DCEA0912902AF5F0C
:10543000A0932902E02FFF27E7FDF095EE0FFF1F55
:10544000EE0FFF1FE252FE4F2081318142815381D6
:10545000BB27A7FDB095AA0FBB1FAA0FBB1FA05467
:10546000BD4F2D933D934D935C931397E02FEF5FCA
:10547000E0932202FF27E7FDF095EE0FFF1FEE0FEE
:10548000FF1FE252FE4F80829182A282B38270920D
:105490007E02709124027F5F7093240260917D02EE
:1054A0006F5F60937D02E62FFF27E7FDF095EE0F1B
:1054B000FF1FEE0FFF1FE158FD4F20833183428312
:1054C000538390912502892F8150823008F43AC18C
:1054D000953009F477C0723009F447C082E08093B8
:1054E00023026091DC0100CE80912502813009F415
:1054F00067C1823009F48CC07092BF0270923B0287
:1055000080917E02813009F057CE10923B021092BA
:10551000BF0210927E0250CE80912502813009F4A4
:1055200077C1823009F48FC07092BF0270923B0243
:1055300080917E02813009F02BCF10923B021092B5
:10554000BF0210927E0224CF80912302813009F4A1
:10555000A2C1823009F4ADC07092240270927D0223
:105560001092BF0210923B02C2CE80912302813082
:1055700009F476C1823009F481C0709224027092DD
:105580007D021092BF0210923B02A8CF80912802A8
:10559000813009F0A9CEE62FFF27E7FDF095EE0F49
:1055A000FF1FEE0FFF1FE158FD4F809141029091C8
:1055B0004202A0914302B091440280839183A2836E
:1055C000B38392CE80912802813009F084CFE62FF8
:1055D000FF27E7FDF095EE0FFF1FEE0FFF1FE158CD
:1055E000FD4F8091410290914202A0914302B091FF
:1055F000440280839183A283B3836DCF10923A02D9
:105600000E94161A80912602833409F4FDCC99CCAD
:105610006091410270914202809143029091440254
:105620002091450230914602409147025091480234
:105630000E94FF0F609341027093420280934302E5
:105640009093440259CF609141027091420280913F
:1056500043029091440220914502309146024091CC
:105660004702509148020E94FF0F609341027093DD
:105670004202809343029093440256CF609183028A
:105680007091840280918502909186022091870218
:10569000309188024091890250918A020E94A10FA4
:1056A00060938302709384028093850290938602B4
:1056B00064CF609183027091840280918502909101
:1056C0008602209187023091880240918902509190
:1056D0008A020E94A10F60938302709384028093D8
:1056E00085029093860238CF0E9439266091DC01B2
:1056F000613109F4F9CC82E061E00E94561A6091B0
:1057000083027091840280918502909186020E94AA
:105710001C1E6091DC01E8CC0E94D6216091DC0166
:10572000613109F4D9CC82E061E00E94561A60919F
:1057300041027091420280914302909144020E9482
:105740001C1ECACC0E94D62160917D02E62FFF2745
:10575000E7FDF095EE0FFF1FEE0FFF1FE158FD4F25
:105760008091410290914202A0914302B091440283
:1057700080839183A283B383909125027091240248
:10578000A7CE0E94D62160917D02E62FFF27E7FD7C
:10579000F095EE0FFF1FEE0FFF1FE158FD4F8091B8
:1057A000410290914202A0914302B0914402808351
:1057B0009183A283B383909125027091240291CDAD
:1057C000E0904502F0904602009147021091480295
:1057D000C801B70120E030E040E050E00E94A51190
:1057E000882309F473C06091410270914202809154
:1057F000430290914402A80197010E94F91060931E
:10580000410270934202809343029093440274CE0B
:10581000E0904502F0904602009147021091480244
:10582000C801B70120E030E040E050E00E94A5113F
:10583000882309F456C06091410270914202809120
:10584000430290914402A80197010E94F9106093CD
:10585000410270934202809343029093440264CECB
:1058600060918302709184028091850290918602FA
:1058700020918702309188024091890250918A02DA
:105880000E94D20F609383027093840280938502FA
:105890009093860272CE609183027091840280910F
:1058A0008502909186022091870230918802409172
:1058B000890250918A020E94D20F609383027093F2
:1058C0008402809385029093860246CE82E061E056
:1058D0000E94561A89E790E00E94C1196092DC018B
:1058E0000BCE82E061E00E94561A89E790E00E94A8
:1058F000C1196092DC0118CEEF92FF920F931F93B3
:10590000CF93DF9381E080933A0230912502832F79
:105910008150823008F458C0809123028150823037
:1059200038F0DF91CF911F910F91FF90EF90089584
:1059300081E080937E02509124025F5F50932402A5
:1059400040917D024F5F40937D02242F332727FD36
:105950003095220F331F220F331F21583D4FE09106
:105960002902FF27E7FDF095EE0FFF1FEE0FFF1F47
:10597000E054FD4F80819181A281B381F901808340
:105980009183A283B38390912502892F8150823025
:1059900008F415C1953009F480C0523009F452C0A2
:1059A0008091DC01813109F4BCCF82E061E00E948A
:1059B000561A6091830270918402809185029091C1
:1059C00086020E941C1EADCF2091BF022F5F209344
:1059D000BF0280913B028F5F80933B02C82FDD277F
:1059E000C7FDD095CC0FDD1FCC0FDD1FC35CDD4F95
:1059F000E0912902FF27E7FDF095EE0FFF1FEE0F64
:105A0000FF1FE054FD4F80819181A281B381888383
:105A10009983AA83BB83223009F45BC08091DC01A7
:105A2000813109F479CF82E061E00E94561A6091D9
:105A300041027091420280914302909144020E947F
:105A40001C1E6ACF80912302813009F476C0823017
:105A5000D1F46091830270918402809185029091CB
:105A600086022091870230918802409189025091EC
:105A70008A020E94A10F6093830270938402809334
:105A800085029093860281E08093240280937D02B8
:105A90001092BF0210923B0283CF80912802813086
:105AA00009F07BCFE42FFF27E7FDF095EE0FFF1FF6
:105AB000EE0FFF1FE158FD4F80914102909142028D
:105AC000A0914302B091440280839183A283B38367
:105AD00064CF313009F44CC03230D1F460914102CE
